{
  "_format": "hh-sol-artifact-1",
  "contractName": "CityLiquidity",
  "sourceName": "contracts/masterchef.sol",
  "abi": [
    {
      "inputs": [
        {
          "internalType": "contract IERC20",
          "name": "_CITY",
          "type": "address"
        },
        {
          "internalType": "uint256",
          "name": "_totalCityPerBlock",
          "type": "uint256"
        },
        {
          "internalType": "address",
          "name": "_lokaTreasury",
          "type": "address"
        }
      ],
      "stateMutability": "nonpayable",
      "type": "constructor"
    },
    {
      "anonymous": false,
      "inputs": [
        {
          "indexed": true,
          "internalType": "uint256",
          "name": "pid",
          "type": "uint256"
        },
        {
          "indexed": false,
          "internalType": "uint256",
          "name": "allocPoint",
          "type": "uint256"
        },
        {
          "indexed": true,
          "internalType": "contract IERC20",
          "name": "lpToken",
          "type": "address"
        },
        {
          "indexed": false,
          "internalType": "bool",
          "name": "isRegular",
          "type": "bool"
        }
      ],
      "name": "AddPool",
      "type": "event"
    },
    {
      "anonymous": false,
      "inputs": [
        {
          "indexed": true,
          "internalType": "address",
          "name": "user",
          "type": "address"
        },
        {
          "indexed": true,
          "internalType": "uint256",
          "name": "pid",
          "type": "uint256"
        },
        {
          "indexed": false,
          "internalType": "uint256",
          "name": "amount",
          "type": "uint256"
        }
      ],
      "name": "Deposit",
      "type": "event"
    },
    {
      "anonymous": false,
      "inputs": [
        {
          "indexed": true,
          "internalType": "address",
          "name": "user",
          "type": "address"
        },
        {
          "indexed": true,
          "internalType": "uint256",
          "name": "pid",
          "type": "uint256"
        },
        {
          "indexed": false,
          "internalType": "uint256",
          "name": "amount",
          "type": "uint256"
        }
      ],
      "name": "EmergencyWithdraw",
      "type": "event"
    },
    {
      "anonymous": false,
      "inputs": [],
      "name": "Init",
      "type": "event"
    },
    {
      "anonymous": false,
      "inputs": [
        {
          "indexed": true,
          "internalType": "address",
          "name": "previousOwner",
          "type": "address"
        },
        {
          "indexed": true,
          "internalType": "address",
          "name": "newOwner",
          "type": "address"
        }
      ],
      "name": "OwnershipTransferred",
      "type": "event"
    },
    {
      "anonymous": false,
      "inputs": [
        {
          "indexed": true,
          "internalType": "uint256",
          "name": "pid",
          "type": "uint256"
        },
        {
          "indexed": false,
          "internalType": "uint256",
          "name": "allocPoint",
          "type": "uint256"
        }
      ],
      "name": "SetPool",
      "type": "event"
    },
    {
      "anonymous": false,
      "inputs": [
        {
          "indexed": true,
          "internalType": "address",
          "name": "boostContract",
          "type": "address"
        }
      ],
      "name": "UpdateBoostContract",
      "type": "event"
    },
    {
      "anonymous": false,
      "inputs": [
        {
          "indexed": true,
          "internalType": "address",
          "name": "user",
          "type": "address"
        },
        {
          "indexed": false,
          "internalType": "uint256",
          "name": "pid",
          "type": "uint256"
        },
        {
          "indexed": false,
          "internalType": "uint256",
          "name": "oldMultiplier",
          "type": "uint256"
        },
        {
          "indexed": false,
          "internalType": "uint256",
          "name": "newMultiplier",
          "type": "uint256"
        }
      ],
      "name": "UpdateBoostMultiplier",
      "type": "event"
    },
    {
      "anonymous": false,
      "inputs": [
        {
          "indexed": true,
          "internalType": "address",
          "name": "oldAdmin",
          "type": "address"
        },
        {
          "indexed": true,
          "internalType": "address",
          "name": "newAdmin",
          "type": "address"
        }
      ],
      "name": "UpdateBurnAdmin",
      "type": "event"
    },
    {
      "anonymous": false,
      "inputs": [
        {
          "indexed": true,
          "internalType": "uint256",
          "name": "pid",
          "type": "uint256"
        },
        {
          "indexed": false,
          "internalType": "uint256",
          "name": "lastRewardBlock",
          "type": "uint256"
        },
        {
          "indexed": false,
          "internalType": "uint256",
          "name": "lpSupply",
          "type": "uint256"
        },
        {
          "indexed": false,
          "internalType": "uint256",
          "name": "accCityPerShare",
          "type": "uint256"
        }
      ],
      "name": "UpdatePool",
      "type": "event"
    },
    {
      "anonymous": false,
      "inputs": [
        {
          "indexed": false,
          "internalType": "uint256",
          "name": "burnRate",
          "type": "uint256"
        },
        {
          "indexed": false,
          "internalType": "uint256",
          "name": "regularFarmRate",
          "type": "uint256"
        },
        {
          "indexed": false,
          "internalType": "uint256",
          "name": "specialFarmRate",
          "type": "uint256"
        }
      ],
      "name": "UpdateCityRate",
      "type": "event"
    },
    {
      "anonymous": false,
      "inputs": [
        {
          "indexed": true,
          "internalType": "address",
          "name": "user",
          "type": "address"
        },
        {
          "indexed": false,
          "internalType": "bool",
          "name": "isValid",
          "type": "bool"
        }
      ],
      "name": "UpdateWhiteList",
      "type": "event"
    },
    {
      "anonymous": false,
      "inputs": [
        {
          "indexed": true,
          "internalType": "address",
          "name": "user",
          "type": "address"
        },
        {
          "indexed": true,
          "internalType": "uint256",
          "name": "pid",
          "type": "uint256"
        },
        {
          "indexed": false,
          "internalType": "uint256",
          "name": "amount",
          "type": "uint256"
        }
      ],
      "name": "Withdraw",
      "type": "event"
    },
    {
      "inputs": [],
      "name": "ACC_CITY_PRECISION",
      "outputs": [
        {
          "internalType": "uint256",
          "name": "",
          "type": "uint256"
        }
      ],
      "stateMutability": "view",
      "type": "function"
    },
    {
      "inputs": [],
      "name": "BOOST_PRECISION",
      "outputs": [
        {
          "internalType": "uint256",
          "name": "",
          "type": "uint256"
        }
      ],
      "stateMutability": "view",
      "type": "function"
    },
    {
      "inputs": [],
      "name": "MAX_BOOST_PRECISION",
      "outputs": [
        {
          "internalType": "uint256",
          "name": "",
          "type": "uint256"
        }
      ],
      "stateMutability": "view",
      "type": "function"
    },
    {
      "inputs": [],
      "name": "CITY",
      "outputs": [
        {
          "internalType": "contract IERC20",
          "name": "",
          "type": "address"
        }
      ],
      "stateMutability": "view",
      "type": "function"
    },
    {
      "inputs": [],
      "name": "CITY_RATE_TOTAL_PRECISION",
      "outputs": [
        {
          "internalType": "uint256",
          "name": "",
          "type": "uint256"
        }
      ],
      "stateMutability": "view",
      "type": "function"
    },
    {
      "inputs": [
        {
          "internalType": "uint256",
          "name": "_allocPoint",
          "type": "uint256"
        },
        {
          "internalType": "contract IERC20",
          "name": "_lpToken",
          "type": "address"
        },
        {
          "internalType": "bool",
          "name": "_isRegular",
          "type": "bool"
        },
        {
          "internalType": "bool",
          "name": "_withUpdate",
          "type": "bool"
        }
      ],
      "name": "add",
      "outputs": [],
      "stateMutability": "nonpayable",
      "type": "function"
    },
    {
      "inputs": [],
      "name": "boostContract",
      "outputs": [
        {
          "internalType": "address",
          "name": "",
          "type": "address"
        }
      ],
      "stateMutability": "view",
      "type": "function"
    },
    {
      "inputs": [],
      "name": "burnAdmin",
      "outputs": [
        {
          "internalType": "address",
          "name": "",
          "type": "address"
        }
      ],
      "stateMutability": "view",
      "type": "function"
    },
    {
      "inputs": [
        {
          "internalType": "bool",
          "name": "_withUpdate",
          "type": "bool"
        }
      ],
      "name": "burnCity",
      "outputs": [],
      "stateMutability": "nonpayable",
      "type": "function"
    },
    {
      "inputs": [
        {
          "internalType": "uint256",
          "name": "_totalCityPerBlock",
          "type": "uint256"
        },
        {
          "internalType": "bool",
          "name": "_withUpdate",
          "type": "bool"
        }
      ],
      "name": "changeCityPerBlock",
      "outputs": [],
      "stateMutability": "nonpayable",
      "type": "function"
    },
    {
      "inputs": [
        {
          "internalType": "address",
          "name": "_lokaTreasury",
          "type": "address"
        }
      ],
      "name": "changeCityTreasury",
      "outputs": [],
      "stateMutability": "nonpayable",
      "type": "function"
    },
    {
      "inputs": [
        {
          "internalType": "uint256",
          "name": "_pid",
          "type": "uint256"
        },
        {
          "internalType": "uint256",
          "name": "_amount",
          "type": "uint256"
        }
      ],
      "name": "deposit",
      "outputs": [],
      "stateMutability": "nonpayable",
      "type": "function"
    },
    {
      "inputs": [
        {
          "internalType": "uint256",
          "name": "_pid",
          "type": "uint256"
        }
      ],
      "name": "emergencyWithdraw",
      "outputs": [],
      "stateMutability": "nonpayable",
      "type": "function"
    },
    {
      "inputs": [
        {
          "internalType": "address",
          "name": "_user",
          "type": "address"
        },
        {
          "internalType": "uint256",
          "name": "_pid",
          "type": "uint256"
        }
      ],
      "name": "getBoostMultiplier",
      "outputs": [
        {
          "internalType": "uint256",
          "name": "",
          "type": "uint256"
        }
      ],
      "stateMutability": "view",
      "type": "function"
    },
    {
      "inputs": [],
      "name": "lastBurnedBlock",
      "outputs": [
        {
          "internalType": "uint256",
          "name": "",
          "type": "uint256"
        }
      ],
      "stateMutability": "view",
      "type": "function"
    },
    {
      "inputs": [
        {
          "internalType": "uint256",
          "name": "",
          "type": "uint256"
        }
      ],
      "name": "lpToken",
      "outputs": [
        {
          "internalType": "contract IERC20",
          "name": "",
          "type": "address"
        }
      ],
      "stateMutability": "view",
      "type": "function"
    },
    {
      "inputs": [],
      "name": "massUpdatePools",
      "outputs": [],
      "stateMutability": "nonpayable",
      "type": "function"
    },
    {
      "inputs": [],
      "name": "owner",
      "outputs": [
        {
          "internalType": "address",
          "name": "",
          "type": "address"
        }
      ],
      "stateMutability": "view",
      "type": "function"
    },
    {
      "inputs": [
        {
          "internalType": "uint256",
          "name": "_pid",
          "type": "uint256"
        },
        {
          "internalType": "address",
          "name": "_user",
          "type": "address"
        }
      ],
      "name": "pendingCity",
      "outputs": [
        {
          "internalType": "uint256",
          "name": "",
          "type": "uint256"
        }
      ],
      "stateMutability": "view",
      "type": "function"
    },
    {
      "inputs": [
        {
          "internalType": "uint256",
          "name": "",
          "type": "uint256"
        }
      ],
      "name": "poolInfo",
      "outputs": [
        {
          "internalType": "uint256",
          "name": "accCityPerShare",
          "type": "uint256"
        },
        {
          "internalType": "uint256",
          "name": "lastRewardBlock",
          "type": "uint256"
        },
        {
          "internalType": "uint256",
          "name": "allocPoint",
          "type": "uint256"
        },
        {
          "internalType": "uint256",
          "name": "totalBoostedShare",
          "type": "uint256"
        },
        {
          "internalType": "bool",
          "name": "isRegular",
          "type": "bool"
        }
      ],
      "stateMutability": "view",
      "type": "function"
    },
    {
      "inputs": [],
      "name": "poolLength",
      "outputs": [
        {
          "internalType": "uint256",
          "name": "pools",
          "type": "uint256"
        }
      ],
      "stateMutability": "view",
      "type": "function"
    },
    {
      "inputs": [],
      "name": "renounceOwnership",
      "outputs": [],
      "stateMutability": "nonpayable",
      "type": "function"
    },
    {
      "inputs": [
        {
          "internalType": "uint256",
          "name": "_pid",
          "type": "uint256"
        },
        {
          "internalType": "uint256",
          "name": "_allocPoint",
          "type": "uint256"
        },
        {
          "internalType": "bool",
          "name": "_withUpdate",
          "type": "bool"
        }
      ],
      "name": "set",
      "outputs": [],
      "stateMutability": "nonpayable",
      "type": "function"
    },
    {
      "inputs": [
        {
          "internalType": "bool",
          "name": "_isRegular",
          "type": "bool"
        }
      ],
      "name": "cityPerBlock",
      "outputs": [
        {
          "internalType": "uint256",
          "name": "amount",
          "type": "uint256"
        }
      ],
      "stateMutability": "view",
      "type": "function"
    },
    {
      "inputs": [],
      "name": "cityPerBlockToBurn",
      "outputs": [
        {
          "internalType": "uint256",
          "name": "amount",
          "type": "uint256"
        }
      ],
      "stateMutability": "view",
      "type": "function"
    },
    {
      "inputs": [],
      "name": "cityRateToBurn",
      "outputs": [
        {
          "internalType": "uint256",
          "name": "",
          "type": "uint256"
        }
      ],
      "stateMutability": "view",
      "type": "function"
    },
    {
      "inputs": [],
      "name": "cityRateToRegularFarm",
      "outputs": [
        {
          "internalType": "uint256",
          "name": "",
          "type": "uint256"
        }
      ],
      "stateMutability": "view",
      "type": "function"
    },
    {
      "inputs": [],
      "name": "cityRateToSpecialFarm",
      "outputs": [
        {
          "internalType": "uint256",
          "name": "",
          "type": "uint256"
        }
      ],
      "stateMutability": "view",
      "type": "function"
    },
    {
      "inputs": [],
      "name": "cityTreasury",
      "outputs": [
        {
          "internalType": "address",
          "name": "",
          "type": "address"
        }
      ],
      "stateMutability": "view",
      "type": "function"
    },
    {
      "inputs": [],
      "name": "totalRegularAllocPoint",
      "outputs": [
        {
          "internalType": "uint256",
          "name": "",
          "type": "uint256"
        }
      ],
      "stateMutability": "view",
      "type": "function"
    },
    {
      "inputs": [],
      "name": "totalSpecialAllocPoint",
      "outputs": [
        {
          "internalType": "uint256",
          "name": "",
          "type": "uint256"
        }
      ],
      "stateMutability": "view",
      "type": "function"
    },
    {
      "inputs": [],
      "name": "totalCityPerBlock",
      "outputs": [
        {
          "internalType": "uint256",
          "name": "",
          "type": "uint256"
        }
      ],
      "stateMutability": "view",
      "type": "function"
    },
    {
      "inputs": [
        {
          "internalType": "address",
          "name": "newOwner",
          "type": "address"
        }
      ],
      "name": "transferOwnership",
      "outputs": [],
      "stateMutability": "nonpayable",
      "type": "function"
    },
    {
      "inputs": [
        {
          "internalType": "address",
          "name": "_newBoostContract",
          "type": "address"
        }
      ],
      "name": "updateBoostContract",
      "outputs": [],
      "stateMutability": "nonpayable",
      "type": "function"
    },
    {
      "inputs": [
        {
          "internalType": "address",
          "name": "_user",
          "type": "address"
        },
        {
          "internalType": "uint256",
          "name": "_pid",
          "type": "uint256"
        },
        {
          "internalType": "uint256",
          "name": "_newMultiplier",
          "type": "uint256"
        }
      ],
      "name": "updateBoostMultiplier",
      "outputs": [],
      "stateMutability": "nonpayable",
      "type": "function"
    },
    {
      "inputs": [
        {
          "internalType": "address",
          "name": "_newBurnAdmin",
          "type": "address"
        }
      ],
      "name": "updateBurnAdmin",
      "outputs": [],
      "stateMutability": "nonpayable",
      "type": "function"
    },
    {
      "inputs": [
        {
          "internalType": "uint256",
          "name": "_pid",
          "type": "uint256"
        }
      ],
      "name": "updatePool",
      "outputs": [
        {
          "components": [
            {
              "internalType": "uint256",
              "name": "accCityPerShare",
              "type": "uint256"
            },
            {
              "internalType": "uint256",
              "name": "lastRewardBlock",
              "type": "uint256"
            },
            {
              "internalType": "uint256",
              "name": "allocPoint",
              "type": "uint256"
            },
            {
              "internalType": "uint256",
              "name": "totalBoostedShare",
              "type": "uint256"
            },
            {
              "internalType": "bool",
              "name": "isRegular",
              "type": "bool"
            }
          ],
          "internalType": "struct CityLiquidity.PoolInfo",
          "name": "pool",
          "type": "tuple"
        }
      ],
      "stateMutability": "nonpayable",
      "type": "function"
    },
    {
      "inputs": [
        {
          "internalType": "uint256",
          "name": "_burnRate",
          "type": "uint256"
        },
        {
          "internalType": "uint256",
          "name": "_regularFarmRate",
          "type": "uint256"
        },
        {
          "internalType": "uint256",
          "name": "_specialFarmRate",
          "type": "uint256"
        },
        {
          "internalType": "bool",
          "name": "_withUpdate",
          "type": "bool"
        }
      ],
      "name": "updateCityRate",
      "outputs": [],
      "stateMutability": "nonpayable",
      "type": "function"
    },
    {
      "inputs": [
        {
          "internalType": "address",
          "name": "_user",
          "type": "address"
        },
        {
          "internalType": "bool",
          "name": "_isValid",
          "type": "bool"
        }
      ],
      "name": "updateWhiteList",
      "outputs": [],
      "stateMutability": "nonpayable",
      "type": "function"
    },
    {
      "inputs": [
        {
          "internalType": "uint256",
          "name": "",
          "type": "uint256"
        },
        {
          "internalType": "address",
          "name": "",
          "type": "address"
        }
      ],
      "name": "userInfo",
      "outputs": [
        {
          "internalType": "uint256",
          "name": "amount",
          "type": "uint256"
        },
        {
          "internalType": "uint256",
          "name": "rewardDebt",
          "type": "uint256"
        },
        {
          "internalType": "uint256",
          "name": "boostMultiplier",
          "type": "uint256"
        }
      ],
      "stateMutability": "view",
      "type": "function"
    },
    {
      "inputs": [
        {
          "internalType": "address",
          "name": "",
          "type": "address"
        }
      ],
      "name": "whiteList",
      "outputs": [
        {
          "internalType": "bool",
          "name": "",
          "type": "bool"
        }
      ],
      "stateMutability": "view",
      "type": "function"
    },
    {
      "inputs": [
        {
          "internalType": "uint256",
          "name": "_pid",
          "type": "uint256"
        },
        {
          "internalType": "uint256",
          "name": "_amount",
          "type": "uint256"
        }
      ],
      "name": "withdraw",
      "outputs": [],
      "stateMutability": "nonpayable",
      "type": "function"
    }
  ],
  "bytecode": "0x60a060405264e8d4a51000600c556000600d556000600e553480156200002457600080fd5b5060405162004d8e38038062004d8e83398181016040528101906200004a919062000209565b60006200005c620001bc60201b60201c565b9050806000806101000a81548173ffffffffffffffffffffffffffffffffffffffff021916908373ffffffffffffffffffffffffffffffffffffffff1602179055508073ffffffffffffffffffffffffffffffffffffffff16600073ffffffffffffffffffffffffffffffffffffffff167f8be0079c531659141344cd1fd0a4f28419497f9722a3daafe3b4186f6b6457e060405160405180910390a350600180819055508273ffffffffffffffffffffffffffffffffffffffff1660808173ffffffffffffffffffffffffffffffffffffffff1660601b8152505081600a8190555080600b60006101000a81548173ffffffffffffffffffffffffffffffffffffffff021916908373ffffffffffffffffffffffffffffffffffffffff16021790555043600f819055507f57a86f7d14ccde89e22870afe839e3011216827daa9b24e18629f0a1e9d6cc1460405160405180910390a1505050620002ff565b600033905090565b600081519050620001d581620002b1565b92915050565b600081519050620001ec81620002cb565b92915050565b6000815190506200020381620002e5565b92915050565b6000806000606084860312156200021f57600080fd5b60006200022f86828701620001db565b93505060206200024286828701620001f2565b92505060406200025586828701620001c4565b9150509250925092565b60006200026c8262000287565b9050919050565b600062000280826200025f565b9050919050565b600073ffffffffffffffffffffffffffffffffffffffff82169050919050565b6000819050919050565b620002bc816200025f565b8114620002c857600080fd5b50565b620002d68162000273565b8114620002e257600080fd5b50565b620002f081620002a7565b8114620002fc57600080fd5b50565b60805160601c614a6c6200032260003980610fff52806133535250614a6c6000f3fe608060405234801561001057600080fd5b506004361061025e5760003560e01c806378ed5d1f11610146578063c01bc1b8116100c3578063d298b6c511610087578063d298b6c5146106df578063dfcedeee146106fd578063e08f023a1461071b578063e2bbb15814610739578063e7435b8614610755578063f2fde38b146107855761025e565b8063c01bc1b81461064b578063c40d337b14610669578063c507aeaa14610687578063c874ad94146106a3578063cc6db2da146106c15761025e565b806399d7e84a1161010a57806399d7e84a146105a95780639dd2fcc3146105c7578063aa25802b146105e3578063ac1d060914610613578063bec62ead1461062f5761025e565b806378ed5d1f146104ef57806381bdf98c1461051f5780638533812b1461053d5780638da5cb5b1461055957806393f1a40b146105775761025e565b8063441a3e70116101df57806364482f79116101a357806364482f791461045357806369b021281461046f5780636aaf52f21461048d578063715018a6146104ab57806374f1ed97146104b557806378db4c34146104d15761025e565b8063441a3e70146103c357806351eb05a6146103df5780635312ea8e1461040f5780635a46238a1461042b578063630b5ba1146104495761025e565b80630bb844bc116102265780630bb844bc146103075780631526fe27146103235780632f2c4a3c14610357578063372c12b1146103755780633f97b903146103a55761025e565b8063031620a914610263578063033186e814610281578063041a84c9146102b1578063081e3eda146102cd57806308bd1fcb146102eb575b600080fd5b61026b6107a1565b6040516102789190614818565b60405180910390f35b61029b600480360381019061029691906137c9565b6107a7565b6040516102a89190614818565b60405180910390f35b6102cb60048036038101906102c69190613805565b610822565b005b6102d5610cc7565b6040516102e29190614818565b60405180910390f35b61030560048036038101906103009190613934565b610cd4565b005b610321600480360381019061031c9190613764565b610d6a565b005b61033d600480360381019061033891906138a6565b610fad565b60405161034e959493929190614893565b60405180910390f35b61035f610ffd565b60405161036c91906144e0565b60405180910390f35b61038f600480360381019061038a9190613764565b611021565b60405161039c91906144c5565b60405180910390f35b6103ad611041565b6040516103ba9190614818565b60405180910390f35b6103dd60048036038101906103d891906139d3565b611076565b005b6103f960048036038101906103f491906138a6565b611355565b60405161040691906147fd565b60405180910390f35b610429600480360381019061042491906138a6565b61157d565b005b610433611783565b6040516104409190614818565b60405180910390f35b61045161178f565b005b61046d60048036038101906104689190613a0f565b61183e565b005b610477611a00565b6040516104849190614818565b60405180910390f35b610495611a0a565b6040516104a29190614818565b60405180910390f35b6104b3611a10565b005b6104cf60048036038101906104ca9190613764565b611b4a565b005b6104d9611c0a565b6040516104e69190614818565b60405180910390f35b610509600480360381019061050491906138a6565b611c10565b60405161051691906144e0565b60405180910390f35b610527611c4c565b604051610534919061444a565b60405180910390f35b61055760048036038101906105529190613854565b611c72565b005b610561611d6c565b60405161056e919061444a565b60405180910390f35b610591600480360381019061058c91906138f8565b611d95565b6040516105a09392919061485c565b60405180910390f35b6105b1611dcc565b6040516105be9190614818565b60405180910390f35b6105e160048036038101906105dc9190613764565b611dd2565b005b6105fd60048036038101906105f89190613854565b611f9f565b60405161060a9190614818565b60405180910390f35b61062d6004803603810190610628919061378d565b612012565b005b61064960048036038101906106449190613a5e565b6121a7565b005b610653612358565b6040516106609190614818565b60405180910390f35b61067161235e565b60405161067e9190614818565b60405180910390f35b6106a1600480360381019061069c9190613970565b612364565b005b6106ab61266f565b6040516106b8919061444a565b60405180910390f35b6106c9612695565b6040516106d69190614818565b60405180910390f35b6106e761269e565b6040516106f49190614818565b60405180910390f35b6107056126a7565b604051610712919061444a565b60405180910390f35b6107236126cd565b6040516107309190614818565b60405180910390f35b610753600480360381019061074e91906139d3565b6126d3565b005b61076f600480360381019061076a91906138f8565b612be0565b60405161077c9190614818565b60405180910390f35b61079f600480360381019061079a9190613764565b612e4c565b005b600d5481565b6000806006600084815260200190815260200160002060008573ffffffffffffffffffffffffffffffffffffffff1673ffffffffffffffffffffffffffffffffffffffff16815260200190815260200160002060020154905064e8d4a5100081116108175764e8d4a51000610819565b805b91505092915050565b3373ffffffffffffffffffffffffffffffffffffffff16600360009054906101000a900473ffffffffffffffffffffffffffffffffffffffff1673ffffffffffffffffffffffffffffffffffffffff16146108b2576040517f08c379a00000000000000000000000000000000000000000000000000000000081526004016108a9906146bd565b60405180910390fd5b600260015414156108f8576040517f08c379a00000000000000000000000000000000000000000000000000000000081526004016108ef9061479d565b60405180910390fd5b6002600181905550600073ffffffffffffffffffffffffffffffffffffffff168373ffffffffffffffffffffffffffffffffffffffff161415610970576040517f08c379a0000000000000000000000000000000000000000000000000000000008152600401610967906145dd565b60405180910390fd5b6004828154811061097d57fe5b906000526020600020906005020160040160009054906101000a900460ff166109db576040517f08c379a00000000000000000000000000000000000000000000000000000000081526004016109d2906146dd565b60405180910390fd5b64e8d4a5100081101580156109f657506501d1a94a20008111155b610a35576040517f08c379a0000000000000000000000000000000000000000000000000000000008152600401610a2c9061451d565b60405180910390fd5b610a3d613694565b610a4683611355565b905060006006600085815260200190815260200160002060008673ffffffffffffffffffffffffffffffffffffffff1673ffffffffffffffffffffffffffffffffffffffff16815260200190815260200160002090506000610aa886866107a7565b9050610ab5868683612ff5565b610b13670de0b6b3a7640000610b058560000151610af764e8d4a51000610ae98a896000015461312790919063ffffffff16565b61319790919063ffffffff16565b61312790919063ffffffff16565b61319790919063ffffffff16565b8260010181905550610b9e610b4c64e8d4a51000610b3e87866000015461312790919063ffffffff16565b61319790919063ffffffff16565b610b90610b7d64e8d4a51000610b6f86886000015461312790919063ffffffff16565b61319790919063ffffffff16565b86606001516131ed90919063ffffffff16565b61323d90919063ffffffff16565b8360600181815250508260048681548110610bb557fe5b90600052602060002090600502016000820151816000015560208201518160010155604082015181600201556060820151816003015560808201518160040160006101000a81548160ff021916908315150217905550905050836006600087815260200190815260200160002060008873ffffffffffffffffffffffffffffffffffffffff1673ffffffffffffffffffffffffffffffffffffffff168152602001908152602001600020600201819055508573ffffffffffffffffffffffffffffffffffffffff167f01abd62439b64f6c5dab6f94d56099495bd0c094f9c21f98f4d3562a21edb4ba868387604051610cb09392919061485c565b60405180910390a250505060018081905550505050565b6000600480549050905090565b610cdc613292565b73ffffffffffffffffffffffffffffffffffffffff16610cfa611d6c565b73ffffffffffffffffffffffffffffffffffffffff1614610d50576040517f08c379a0000000000000000000000000000000000000000000000000000000008152600401610d479061469d565b60405180910390fd5b8015610d5f57610d5e61178f565b5b81600a819055505050565b610d72613292565b73ffffffffffffffffffffffffffffffffffffffff16610d90611d6c565b73ffffffffffffffffffffffffffffffffffffffff1614610de6576040517f08c379a0000000000000000000000000000000000000000000000000000000008152600401610ddd9061469d565b60405180910390fd5b600073ffffffffffffffffffffffffffffffffffffffff168173ffffffffffffffffffffffffffffffffffffffff161415610e56576040517f08c379a0000000000000000000000000000000000000000000000000000000008152600401610e4d906145fd565b60405180910390fd5b600260009054906101000a900473ffffffffffffffffffffffffffffffffffffffff1673ffffffffffffffffffffffffffffffffffffffff168173ffffffffffffffffffffffffffffffffffffffff161415610ee7576040517f08c379a0000000000000000000000000000000000000000000000000000000008152600401610ede906147bd565b60405180910390fd5b6000600260009054906101000a900473ffffffffffffffffffffffffffffffffffffffff16905081600260006101000a81548173ffffffffffffffffffffffffffffffffffffffff021916908373ffffffffffffffffffffffffffffffffffffffff1602179055508173ffffffffffffffffffffffffffffffffffffffff168173ffffffffffffffffffffffffffffffffffffffff167fd146fe330fdddf682413850a35b28edfccd4c4b53cfee802fd24950de5be1dbe60405160405180910390a35050565b60048181548110610fba57fe5b90600052602060002090600502016000915090508060000154908060010154908060020154908060030154908060040160009054906101000a900460ff16905085565b7f000000000000000000000000000000000000000000000000000000000000000081565b60076020528060005260406000206000915054906101000a900460ff1681565b600061107164e8d4a51000611063600e54600a5461312790919063ffffffff16565b61319790919063ffffffff16565b905090565b600260015414156110bc576040517f08c379a00000000000000000000000000000000000000000000000000000000081526004016110b39061479d565b60405180910390fd5b60026001819055506110cc613694565b6110d583611355565b905060006006600085815260200190815260200160002060003373ffffffffffffffffffffffffffffffffffffffff1673ffffffffffffffffffffffffffffffffffffffff16815260200190815260200160002090508281600001541015611172576040517f08c379a00000000000000000000000000000000000000000000000000000000081526004016111699061467d565b60405180910390fd5b600061117e33866107a7565b905061118b338683612ff5565b6000841115611216576111ab8483600001546131ed90919063ffffffff16565b82600001819055506112153385600588815481106111c557fe5b9060005260206000200160009054906101000a900473ffffffffffffffffffffffffffffffffffffffff1673ffffffffffffffffffffffffffffffffffffffff1661329a9092919063ffffffff16565b5b611274670de0b6b3a7640000611266856000015161125864e8d4a5100061124a87896000015461312790919063ffffffff16565b61319790919063ffffffff16565b61312790919063ffffffff16565b61319790919063ffffffff16565b82600101819055506112d66112a964e8d4a5100061129b848861312790919063ffffffff16565b61319790919063ffffffff16565b600487815481106112b657fe5b9060005260206000209060050201600301546131ed90919063ffffffff16565b600486815481106112e357fe5b906000526020600020906005020160030181905550843373ffffffffffffffffffffffffffffffffffffffff167ff279e6a1f5e320cca91135676d9cb6e44ca8a08c0b88342bcdb1144f6511b5688660405161133f9190614818565b60405180910390a3505050600180819055505050565b61135d613694565b6004828154811061136a57fe5b90600052602060002090600502016040518060a0016040529081600082015481526020016001820154815260200160028201548152602001600382015481526020016004820160009054906101000a900460ff1615151515815250509050806020015143111561157857600081606001519050600082608001516113f0576009546113f4565b6008545b90506000821180156114065750600081115b156114c05760006114248460200151436131ed90919063ffffffff16565b9050600061146f8361146187604001516114536114448a60800151611f9f565b8761312790919063ffffffff16565b61312790919063ffffffff16565b61319790919063ffffffff16565b90506114b46114a185611493670de0b6b3a76400008561312790919063ffffffff16565b61319790919063ffffffff16565b866000015161323d90919063ffffffff16565b85600001818152505050505b4383602001818152505082600485815481106114d857fe5b90600052602060002090600502016000820151816000015560208201518160010155604082015181600201556060820151816003015560808201518160040160006101000a81548160ff021916908315150217905550905050837f3be3541fc42237d611b30329040bfa4569541d156560acdbbae57640d20b8f46846020015184866000015160405161156d9392919061485c565b60405180910390a250505b919050565b600260015414156115c3576040517f08c379a00000000000000000000000000000000000000000000000000000000081526004016115ba9061479d565b60405180910390fd5b60026001819055506000600482815481106115da57fe5b9060005260206000209060050201905060006006600084815260200190815260200160002060003373ffffffffffffffffffffffffffffffffffffffff1673ffffffffffffffffffffffffffffffffffffffff16815260200190815260200160002090506000816000015490506000826000018190555060008260010181905550600061169064e8d4a5100061168261167333896107a7565b8561312790919063ffffffff16565b61319790919063ffffffff16565b9050808460030154116116a45760006116bc565b6116bb8185600301546131ed90919063ffffffff16565b5b84600301819055506117263383600588815481106116d657fe5b9060005260206000200160009054906101000a900473ffffffffffffffffffffffffffffffffffffffff1673ffffffffffffffffffffffffffffffffffffffff1661329a9092919063ffffffff16565b843373ffffffffffffffffffffffffffffffffffffffff167fbb757047c2b5f3974fe26b7c10f732e7bce710b0952a71082702781e62ae05958460405161176d9190614818565b60405180910390a3505050506001808190555050565b670de0b6b3a764000081565b6000600480549050905060005b8181101561183a576117ac613694565b600482815481106117b957fe5b90600052602060002090600502016040518060a0016040529081600082015481526020016001820154815260200160028201548152602001600382015481526020016004820160009054906101000a900460ff1615151515815250509050600081604001511461182e5761182c82611355565b505b5080600101905061179c565b5050565b611846613292565b73ffffffffffffffffffffffffffffffffffffffff16611864611d6c565b73ffffffffffffffffffffffffffffffffffffffff16146118ba576040517f08c379a00000000000000000000000000000000000000000000000000000000081526004016118b19061469d565b60405180910390fd5b6118c383611355565b5080156118d3576118d261178f565b5b600483815481106118e057fe5b906000526020600020906005020160040160009054906101000a900460ff1615611954576119498261193b6004868154811061191857fe5b9060005260206000209060050201600201546008546131ed90919063ffffffff16565b61323d90919063ffffffff16565b6008819055506119a0565b6119998261198b6004868154811061196857fe5b9060005260206000209060050201600201546009546131ed90919063ffffffff16565b61323d90919063ffffffff16565b6009819055505b81600484815481106119ae57fe5b906000526020600020906005020160020181905550827fc0cfd54d2de2b55f1e6e108d3ec53ff0a1abe6055401d32c61e9433b747ef9f8836040516119f39190614818565b60405180910390a2505050565b6501d1a94a200081565b600c5481565b611a18613292565b73ffffffffffffffffffffffffffffffffffffffff16611a36611d6c565b73ffffffffffffffffffffffffffffffffffffffff1614611a8c576040517f08c379a0000000000000000000000000000000000000000000000000000000008152600401611a839061469d565b60405180910390fd5b600073ffffffffffffffffffffffffffffffffffffffff1660008054906101000a900473ffffffffffffffffffffffffffffffffffffffff1673ffffffffffffffffffffffffffffffffffffffff167f8be0079c531659141344cd1fd0a4f28419497f9722a3daafe3b4186f6b6457e060405160405180910390a360008060006101000a81548173ffffffffffffffffffffffffffffffffffffffff021916908373ffffffffffffffffffffffffffffffffffffffff160217905550565b611b52613292565b73ffffffffffffffffffffffffffffffffffffffff16611b70611d6c565b73ffffffffffffffffffffffffffffffffffffffff1614611bc6576040517f08c379a0000000000000000000000000000000000000000000000000000000008152600401611bbd9061469d565b60405180910390fd5b80600b60006101000a81548173ffffffffffffffffffffffffffffffffffffffff021916908373ffffffffffffffffffffffffffffffffffffffff16021790555050565b600f5481565b60058181548110611c1d57fe5b906000526020600020016000915054906101000a900473ffffffffffffffffffffffffffffffffffffffff1681565b600260009054906101000a900473ffffffffffffffffffffffffffffffffffffffff1681565b611c7a613292565b73ffffffffffffffffffffffffffffffffffffffff16611c98611d6c565b73ffffffffffffffffffffffffffffffffffffffff1614611cee576040517f08c379a0000000000000000000000000000000000000000000000000000000008152600401611ce59061469d565b60405180910390fd5b8015611cfd57611cfc61178f565b5b6000611d14600f54436131ed90919063ffffffff16565b90506000611d32611d23611041565b8361312790919063ffffffff16565b9050611d60600260009054906101000a900473ffffffffffffffffffffffffffffffffffffffff1682613320565b43600f81905550505050565b60008060009054906101000a900473ffffffffffffffffffffffffffffffffffffffff16905090565b6006602052816000526040600020602052806000526040600020600091509150508060000154908060010154908060020154905083565b60095481565b611dda613292565b73ffffffffffffffffffffffffffffffffffffffff16611df8611d6c565b73ffffffffffffffffffffffffffffffffffffffff1614611e4e576040517f08c379a0000000000000000000000000000000000000000000000000000000008152600401611e459061469d565b60405180910390fd5b600073ffffffffffffffffffffffffffffffffffffffff168173ffffffffffffffffffffffffffffffffffffffff1614158015611ed95750600360009054906101000a900473ffffffffffffffffffffffffffffffffffffffff1673ffffffffffffffffffffffffffffffffffffffff168173ffffffffffffffffffffffffffffffffffffffff1614155b611f18576040517f08c379a0000000000000000000000000000000000000000000000000000000008152600401611f0f906147dd565b60405180910390fd5b80600360006101000a81548173ffffffffffffffffffffffffffffffffffffffff021916908373ffffffffffffffffffffffffffffffffffffffff1602179055508073ffffffffffffffffffffffffffffffffffffffff167f4c0c07d0b548b824a1b998eb4d11fccf1cfbc1e47edcdb309970ba88315eb30360405160405180910390a250565b60008115611fdc57611fd564e8d4a51000611fc7600c54600a5461312790919063ffffffff16565b61319790919063ffffffff16565b905061200d565b61200a64e8d4a51000611ffc600d54600a5461312790919063ffffffff16565b61319790919063ffffffff16565b90505b919050565b61201a613292565b73ffffffffffffffffffffffffffffffffffffffff16612038611d6c565b73ffffffffffffffffffffffffffffffffffffffff161461208e576040517f08c379a00000000000000000000000000000000000000000000000000000000081526004016120859061469d565b60405180910390fd5b600073ffffffffffffffffffffffffffffffffffffffff168273ffffffffffffffffffffffffffffffffffffffff1614156120fe576040517f08c379a00000000000000000000000000000000000000000000000000000000081526004016120f5906146fd565b60405180910390fd5b80600760008473ffffffffffffffffffffffffffffffffffffffff1673ffffffffffffffffffffffffffffffffffffffff16815260200190815260200160002060006101000a81548160ff0219169083151502179055508173ffffffffffffffffffffffffffffffffffffffff167fc551bbb22d0406dbfb8b6b7740cc521bcf44e1106029cf899c19b6a8e4c99d518260405161219b91906144c5565b60405180910390a25050565b6121af613292565b73ffffffffffffffffffffffffffffffffffffffff166121cd611d6c565b73ffffffffffffffffffffffffffffffffffffffff1614612223576040517f08c379a000000000000000000000000000000000000000000000000000000000815260040161221a9061469d565b60405180910390fd5b6000841180156122335750600083115b801561223f5750600082115b61227e576040517f08c379a00000000000000000000000000000000000000000000000000000000081526004016122759061461d565b60405180910390fd5b64e8d4a510006122a98361229b868861323d90919063ffffffff16565b61323d90919063ffffffff16565b146122e9576040517f08c379a00000000000000000000000000000000000000000000000000000000081526004016122e09061473d565b60405180910390fd5b80156122f8576122f761178f565b5b6123026000611c72565b83600e8190555082600c8190555081600d819055507ff35c3b56bfdf80d3c8441b40935fbd8c43b632c77be18056875847f2474cc2c284848460405161234a9392919061485c565b60405180910390a150505050565b600e5481565b60085481565b61236c613292565b73ffffffffffffffffffffffffffffffffffffffff1661238a611d6c565b73ffffffffffffffffffffffffffffffffffffffff16146123e0576040517f08c379a00000000000000000000000000000000000000000000000000000000081526004016123d79061469d565b60405180910390fd5b60008373ffffffffffffffffffffffffffffffffffffffff166370a08231306040518263ffffffff1660e01b815260040161241b919061444a565b60206040518083038186803b15801561243357600080fd5b505afa158015612447573d6000803e3d6000fd5b505050506040513d601f19601f8201168201806040525081019061246b91906138cf565b10156124ac576040517f08c379a00000000000000000000000000000000000000000000000000000000081526004016124a39061475d565b60405180910390fd5b80156124bb576124ba61178f565b5b81156124e1576124d68460085461323d90919063ffffffff16565b6008819055506124fd565b6124f68460095461323d90919063ffffffff16565b6009819055505b6005839080600181540180825580915050600190039060005260206000200160009091909190916101000a81548173ffffffffffffffffffffffffffffffffffffffff021916908373ffffffffffffffffffffffffffffffffffffffff16021790555060046040518060a00160405280600081526020014381526020018681526020016000815260200184151581525090806001815401808255809150506001900390600052602060002090600502016000909190919091506000820151816000015560208201518160010155604082015181600201556060820151816003015560808201518160040160006101000a81548160ff02191690831515021790555050508273ffffffffffffffffffffffffffffffffffffffff1661263060016005805490506131ed90919063ffffffff16565b7f18caa0724a26384928efe604ae6ddc99c242548876259770fc88fcb7e719d8fa8685604051612661929190614833565b60405180910390a350505050565b600b60009054906101000a900473ffffffffffffffffffffffffffffffffffffffff1681565b64e8d4a5100081565b64e8d4a5100081565b600360009054906101000a900473ffffffffffffffffffffffffffffffffffffffff1681565b600a5481565b60026001541415612719576040517f08c379a00000000000000000000000000000000000000000000000000000000081526004016127109061479d565b60405180910390fd5b6002600181905550612729613694565b61273283611355565b905060006006600085815260200190815260200160002060003373ffffffffffffffffffffffffffffffffffffffff1673ffffffffffffffffffffffffffffffffffffffff16815260200190815260200160002090508160800151806127e15750600760003373ffffffffffffffffffffffffffffffffffffffff1673ffffffffffffffffffffffffffffffffffffffff16815260200190815260200160002060009054906101000a900460ff165b612820576040517f08c379a00000000000000000000000000000000000000000000000000000000081526004016128179061463d565b60405180910390fd5b600061282c33866107a7565b905060008260000154111561284757612846338683612ff5565b5b6000841115612ab65760006005868154811061285f57fe5b9060005260206000200160009054906101000a900473ffffffffffffffffffffffffffffffffffffffff1673ffffffffffffffffffffffffffffffffffffffff166370a08231306040518263ffffffff1660e01b81526004016128c2919061444a565b60206040518083038186803b1580156128da57600080fd5b505afa1580156128ee573d6000803e3d6000fd5b505050506040513d601f19601f8201168201806040525081019061291291906138cf565b905061297833308760058a8154811061292757fe5b9060005260206000200160009054906101000a900473ffffffffffffffffffffffffffffffffffffffff1673ffffffffffffffffffffffffffffffffffffffff1661339d909392919063ffffffff16565b612a4a816005888154811061298957fe5b9060005260206000200160009054906101000a900473ffffffffffffffffffffffffffffffffffffffff1673ffffffffffffffffffffffffffffffffffffffff166370a08231306040518263ffffffff1660e01b81526004016129ec919061444a565b60206040518083038186803b158015612a0457600080fd5b505afa158015612a18573d6000803e3d6000fd5b505050506040513d601f19601f82011682018060405250810190612a3c91906138cf565b6131ed90919063ffffffff16565b9450612a6385846000015461323d90919063ffffffff16565b8360000181905550612aab612a9864e8d4a51000612a8a858961312790919063ffffffff16565b61319790919063ffffffff16565b856060015161323d90919063ffffffff16565b846060018181525050505b612b14670de0b6b3a7640000612b068560000151612af864e8d4a51000612aea87896000015461312790919063ffffffff16565b61319790919063ffffffff16565b61312790919063ffffffff16565b61319790919063ffffffff16565b82600101819055508260048681548110612b2a57fe5b90600052602060002090600502016000820151816000015560208201518160010155604082015181600201556060820151816003015560808201518160040160006101000a81548160ff021916908315150217905550905050843373ffffffffffffffffffffffffffffffffffffffff167f90890809c654f11d6e72a28fa60149770a0d11ec6c92319d6ceb2bb0a4ea1a1586604051612bca9190614818565b60405180910390a3505050600180819055505050565b6000612bea613694565b60048481548110612bf757fe5b90600052602060002090600502016040518060a0016040529081600082015481526020016001820154815260200160028201548152602001600382015481526020016004820160009054906101000a900460ff1615151515815250509050612c5d6136c5565b6006600086815260200190815260200160002060008573ffffffffffffffffffffffffffffffffffffffff1673ffffffffffffffffffffffffffffffffffffffff16815260200190815260200160002060405180606001604052908160008201548152602001600182015481526020016002820154815250509050600082600001519050600083606001519050836020015143118015612cfe575060008114155b15612dc1576000612d1c8560200151436131ed90919063ffffffff16565b90506000612d7b8660800151612d3457600954612d38565b6008545b612d6d8860400151612d5f612d508b60800151611f9f565b8761312790919063ffffffff16565b61312790919063ffffffff16565b61319790919063ffffffff16565b9050612dbc612dad84612d9f670de0b6b3a76400008561312790919063ffffffff16565b61319790919063ffffffff16565b8561323d90919063ffffffff16565b935050505b6000612dfa64e8d4a51000612dec612dd98a8c6107a7565b876000015161312790919063ffffffff16565b61319790919063ffffffff16565b9050612e3f8460200151612e31670de0b6b3a7640000612e23878661312790919063ffffffff16565b61319790919063ffffffff16565b6131ed90919063ffffffff16565b9550505050505092915050565b612e54613292565b73ffffffffffffffffffffffffffffffffffffffff16612e72611d6c565b73ffffffffffffffffffffffffffffffffffffffff1614612ec8576040517f08c379a0000000000000000000000000000000000000000000000000000000008152600401612ebf9061469d565b60405180910390fd5b600073ffffffffffffffffffffffffffffffffffffffff168173ffffffffffffffffffffffffffffffffffffffff161415612f38576040517f08c379a0000000000000000000000000000000000000000000000000000000008152600401612f2f9061453d565b60405180910390fd5b8073ffffffffffffffffffffffffffffffffffffffff1660008054906101000a900473ffffffffffffffffffffffffffffffffffffffff1673ffffffffffffffffffffffffffffffffffffffff167f8be0079c531659141344cd1fd0a4f28419497f9722a3daafe3b4186f6b6457e060405160405180910390a3806000806101000a81548173ffffffffffffffffffffffffffffffffffffffff021916908373ffffffffffffffffffffffffffffffffffffffff16021790555050565b612ffd6136c5565b6006600084815260200190815260200160002060008573ffffffffffffffffffffffffffffffffffffffff1673ffffffffffffffffffffffffffffffffffffffff1681526020019081526020016000206040518060600160405290816000820154815260200160018201548152602001600282015481525050905060006130a864e8d4a5100061309a85856000015161312790919063ffffffff16565b61319790919063ffffffff16565b905060006130f7670de0b6b3a76400006130e9600488815481106130c857fe5b9060005260206000209060050201600001548561312790919063ffffffff16565b61319790919063ffffffff16565b905060006131128460200151836131ed90919063ffffffff16565b905061311e8782613320565b50505050505050565b60008083141561313a5760009050613191565b600082840290508284828161314b57fe5b041461318c576040517f08c379a00000000000000000000000000000000000000000000000000000000081526004016131839061465d565b60405180910390fd5b809150505b92915050565b60008082116131db576040517f08c379a00000000000000000000000000000000000000000000000000000000081526004016131d2906145bd565b60405180910390fd5b8183816131e457fe5b04905092915050565b600082821115613232576040517f08c379a00000000000000000000000000000000000000000000000000000000081526004016132299061457d565b60405180910390fd5b818303905092915050565b600080828401905083811015613288576040517f08c379a000000000000000000000000000000000000000000000000000000000815260040161327f9061455d565b60405180910390fd5b8091505092915050565b600033905090565b61331b8363a9059cbb60e01b84846040516024016132b992919061449c565b604051602081830303815290604052907bffffffffffffffffffffffffffffffffffffffffffffffffffffffff19166020820180517bffffffffffffffffffffffffffffffffffffffffffffffffffffffff8381831617835250505050613426565b505050565b600081111561339957613398600b60009054906101000a900473ffffffffffffffffffffffffffffffffffffffff1683837f000000000000000000000000000000000000000000000000000000000000000073ffffffffffffffffffffffffffffffffffffffff1661339d909392919063ffffffff16565b5b5050565b613420846323b872dd60e01b8585856040516024016133be93929190614465565b604051602081830303815290604052907bffffffffffffffffffffffffffffffffffffffffffffffffffffffff19166020820180517bffffffffffffffffffffffffffffffffffffffffffffffffffffffff8381831617835250505050613426565b50505050565b6060613488826040518060400160405280602081526020017f5361666545524332303a206c6f772d6c6576656c2063616c6c206661696c65648152508573ffffffffffffffffffffffffffffffffffffffff166134ed9092919063ffffffff16565b90506000815111156134e857808060200190518101906134a8919061387d565b6134e7576040517f08c379a00000000000000000000000000000000000000000000000000000000081526004016134de9061477d565b60405180910390fd5b5b505050565b60606134fc8484600085613505565b90509392505050565b60608247101561354a576040517f08c379a00000000000000000000000000000000000000000000000000000000081526004016135419061459d565b60405180910390fd5b6135538561361a565b613592576040517f08c379a00000000000000000000000000000000000000000000000000000000081526004016135899061471d565b60405180910390fd5b600060608673ffffffffffffffffffffffffffffffffffffffff1685876040516135bc9190614433565b60006040518083038185875af1925050503d80600081146135f9576040519150601f19603f3d011682016040523d82523d6000602084013e6135fe565b606091505b509150915061360e82828661362d565b92505050949350505050565b600080823b905060008111915050919050565b6060831561363d5782905061368d565b6000835111156136505782518084602001fd5b816040517f08c379a000000000000000000000000000000000000000000000000000000000815260040161368491906144fb565b60405180910390fd5b9392505050565b6040518060a00160405280600081526020016000815260200160008152602001600081526020016000151581525090565b60405180606001604052806000815260200160008152602001600081525090565b6000813590506136f5816149da565b92915050565b60008135905061370a816149f1565b92915050565b60008151905061371f816149f1565b92915050565b60008135905061373481614a08565b92915050565b60008135905061374981614a1f565b92915050565b60008151905061375e81614a1f565b92915050565b60006020828403121561377657600080fd5b6000613784848285016136e6565b91505092915050565b600080604083850312156137a057600080fd5b60006137ae858286016136e6565b92505060206137bf858286016136fb565b9150509250929050565b600080604083850312156137dc57600080fd5b60006137ea858286016136e6565b92505060206137fb8582860161373a565b9150509250929050565b60008060006060848603121561381a57600080fd5b6000613828868287016136e6565b93505060206138398682870161373a565b925050604061384a8682870161373a565b9150509250925092565b60006020828403121561386657600080fd5b6000613874848285016136fb565b91505092915050565b60006020828403121561388f57600080fd5b600061389d84828501613710565b91505092915050565b6000602082840312156138b857600080fd5b60006138c68482850161373a565b91505092915050565b6000602082840312156138e157600080fd5b60006138ef8482850161374f565b91505092915050565b6000806040838503121561390b57600080fd5b60006139198582860161373a565b925050602061392a858286016136e6565b9150509250929050565b6000806040838503121561394757600080fd5b60006139558582860161373a565b9250506020613966858286016136fb565b9150509250929050565b6000806000806080858703121561398657600080fd5b60006139948782880161373a565b94505060206139a587828801613725565b93505060406139b6878288016136fb565b92505060606139c7878288016136fb565b91505092959194509250565b600080604083850312156139e657600080fd5b60006139f48582860161373a565b9250506020613a058582860161373a565b9150509250929050565b600080600060608486031215613a2457600080fd5b6000613a328682870161373a565b9350506020613a438682870161373a565b9250506040613a54868287016136fb565b9150509250925092565b60008060008060808587031215613a7457600080fd5b6000613a828782880161373a565b9450506020613a938782880161373a565b9350506040613aa48782880161373a565b9250506060613ab5878288016136fb565b91505092959194509250565b613aca81614918565b82525050565b613ad98161492a565b82525050565b613ae88161492a565b82525050565b6000613af9826148e6565b613b0381856148fc565b9350613b13818560208601614996565b80840191505092915050565b613b2881614972565b82525050565b6000613b39826148f1565b613b438185614907565b9350613b53818560208601614996565b613b5c816149c9565b840191505092915050565b6000613b74602a83614907565b91507f4d61737465724368656656323a20496e76616c6964206e657720626f6f73742060008301527f6d756c7469706c696572000000000000000000000000000000000000000000006020830152604082019050919050565b6000613bda602683614907565b91507f4f776e61626c653a206e6577206f776e657220697320746865207a65726f206160008301527f64647265737300000000000000000000000000000000000000000000000000006020830152604082019050919050565b6000613c40601b83614907565b91507f536166654d6174683a206164646974696f6e206f766572666c6f7700000000006000830152602082019050919050565b6000613c80601e83614907565b91507f536166654d6174683a207375627472616374696f6e206f766572666c6f7700006000830152602082019050919050565b6000613cc0602683614907565b91507f416464726573733a20696e73756666696369656e742062616c616e636520666f60008301527f722063616c6c00000000000000000000000000000000000000000000000000006020830152604082019050919050565b6000613d26601a83614907565b91507f536166654d6174683a206469766973696f6e206279207a65726f0000000000006000830152602082019050919050565b6000613d66602c83614907565b91507f4d61737465724368656656323a2054686520757365722061646472657373206d60008301527f7573742062652076616c696400000000000000000000000000000000000000006020830152604082019050919050565b6000613dcc602e83614907565b91507f4d61737465724368656656323a204275726e2061646d696e206164647265737360008301527f206d7573742062652076616c69640000000000000000000000000000000000006020830152604082019050919050565b6000613e32602f83614907565b91507f4d61737465724368656656323a2053776963682072617465206d75737420626560008301527f2067726561746572207468616e203000000000000000000000000000000000006020830152604082019050919050565b6000613e98604283614907565b91507f4d61737465724368656656323a205468652061646472657373206973206e6f7460008301527f20617661696c61626c6520746f206465706f73697420696e207468697320706f60208301527f6f6c0000000000000000000000000000000000000000000000000000000000006040830152606082019050919050565b6000613f24602183614907565b91507f536166654d6174683a206d756c7469706c69636174696f6e206f766572666c6f60008301527f77000000000000000000000000000000000000000000000000000000000000006020830152604082019050919050565b6000613f8a601683614907565b91507f77697468647261773a20496e73756666696369656e74000000000000000000006000830152602082019050919050565b6000613fca602083614907565b91507f4f776e61626c653a2063616c6c6572206973206e6f7420746865206f776e65726000830152602082019050919050565b600061400a602983614907565b91507f4f776e61626c653a2063616c6c6572206973206e6f742074686520626f6f737460008301527f20636f6e747261637400000000000000000000000000000000000000000000006020830152604082019050919050565b6000614070603083614907565b91507f4d61737465724368656656323a204f6e6c7920726567756c6172206661726d2060008301527f636f756c6420626520626f6f73746564000000000000000000000000000000006020830152604082019050919050565b60006140d6603283614907565b91507f4d61737465724368656656323a20546865207768697465206c6973742061646460008301527f72657373206d7573742062652076616c696400000000000000000000000000006020830152604082019050919050565b600061413c601d83614907565b91507f416464726573733a2063616c6c20746f206e6f6e2d636f6e74726163740000006000830152602082019050919050565b600061417c602583614907565b91507f4d61737465724368656656323a20546f74616c2072617465206d75737420626560008301527f20316531320000000000000000000000000000000000000000000000000000006020830152604082019050919050565b60006141e2601183614907565b91507f4e6f6e6520455243323020746f6b656e730000000000000000000000000000006000830152602082019050919050565b6000614222602a83614907565b91507f5361666545524332303a204552433230206f7065726174696f6e20646964206e60008301527f6f742073756363656564000000000000000000000000000000000000000000006020830152604082019050919050565b6000614288601f83614907565b91507f5265656e7472616e637947756172643a207265656e7472616e742063616c6c006000830152602082019050919050565b60006142c8604183614907565b91507f4d61737465724368656656323a204275726e2061646d696e206164647265737360008301527f206973207468652073616d6520776974682063757272656e742061646472657360208301527f73000000000000000000000000000000000000000000000000000000000000006040830152606082019050919050565b6000614354603683614907565b91507f4d61737465724368656656323a204e657720626f6f737420636f6e747261637460008301527f2061646472657373206d7573742062652076616c6964000000000000000000006020830152604082019050919050565b60a0820160008201516143c36000850182614415565b5060208201516143d66020850182614415565b5060408201516143e96040850182614415565b5060608201516143fc6060850182614415565b50608082015161440f6080850182613ad0565b50505050565b61441e81614968565b82525050565b61442d81614968565b82525050565b600061443f8284613aee565b915081905092915050565b600060208201905061445f6000830184613ac1565b92915050565b600060608201905061447a6000830186613ac1565b6144876020830185613ac1565b6144946040830184614424565b949350505050565b60006040820190506144b16000830185613ac1565b6144be6020830184614424565b9392505050565b60006020820190506144da6000830184613adf565b92915050565b60006020820190506144f56000830184613b1f565b92915050565b600060208201905081810360008301526145158184613b2e565b905092915050565b6000602082019050818103600083015261453681613b67565b9050919050565b6000602082019050818103600083015261455681613bcd565b9050919050565b6000602082019050818103600083015261457681613c33565b9050919050565b6000602082019050818103600083015261459681613c73565b9050919050565b600060208201905081810360008301526145b681613cb3565b9050919050565b600060208201905081810360008301526145d681613d19565b9050919050565b600060208201905081810360008301526145f681613d59565b9050919050565b6000602082019050818103600083015261461681613dbf565b9050919050565b6000602082019050818103600083015261463681613e25565b9050919050565b6000602082019050818103600083015261465681613e8b565b9050919050565b6000602082019050818103600083015261467681613f17565b9050919050565b6000602082019050818103600083015261469681613f7d565b9050919050565b600060208201905081810360008301526146b681613fbd565b9050919050565b600060208201905081810360008301526146d681613ffd565b9050919050565b600060208201905081810360008301526146f681614063565b9050919050565b60006020820190508181036000830152614716816140c9565b9050919050565b600060208201905081810360008301526147368161412f565b9050919050565b600060208201905081810360008301526147568161416f565b9050919050565b60006020820190508181036000830152614776816141d5565b9050919050565b6000602082019050818103600083015261479681614215565b9050919050565b600060208201905081810360008301526147b68161427b565b9050919050565b600060208201905081810360008301526147d6816142bb565b9050919050565b600060208201905081810360008301526147f681614347565b9050919050565b600060a08201905061481260008301846143ad565b92915050565b600060208201905061482d6000830184614424565b92915050565b60006040820190506148486000830185614424565b6148556020830184613adf565b9392505050565b60006060820190506148716000830186614424565b61487e6020830185614424565b61488b6040830184614424565b949350505050565b600060a0820190506148a86000830188614424565b6148b56020830187614424565b6148c26040830186614424565b6148cf6060830185614424565b6148dc6080830184613adf565b9695505050505050565b600081519050919050565b600081519050919050565b600081905092915050565b600082825260208201905092915050565b600061492382614948565b9050919050565b60008115159050919050565b600061494182614918565b9050919050565b600073ffffffffffffffffffffffffffffffffffffffff82169050919050565b6000819050919050565b600061497d82614984565b9050919050565b600061498f82614948565b9050919050565b60005b838110156149b4578082015181840152602081019050614999565b838111156149c3576000848401525b50505050565b6000601f19601f8301169050919050565b6149e381614918565b81146149ee57600080fd5b50565b6149fa8161492a565b8114614a0557600080fd5b50565b614a1181614936565b8114614a1c57600080fd5b50565b614a2881614968565b8114614a3357600080fd5b5056fea264697066735822122056a66821e46caa9958a402a76671c8d2bb0e599d3e651ad87086be19ecda57ba64736f6c634300060c0033",
  "linkReferences": {},
  "deployedLinkReferences": {}
}