{
  "_format": "hh-sol-artifact-1",
  "contractName": "TokenLockFactory",
  "sourceName": "contracts/TokenLockFactory.sol",
  "abi": [
    {
      "anonymous": false,
      "inputs": [
        {
          "indexed": false,
          "internalType": "uint8",
          "name": "version",
          "type": "uint8"
        }
      ],
      "name": "Initialized",
      "type": "event"
    },
    {
      "anonymous": false,
      "inputs": [
        {
          "indexed": true,
          "internalType": "uint256",
          "name": "lockId",
          "type": "uint256"
        },
        {
          "indexed": true,
          "internalType": "address",
          "name": "oldOwner",
          "type": "address"
        },
        {
          "indexed": true,
          "internalType": "address",
          "name": "newOwner",
          "type": "address"
        }
      ],
      "name": "OwnerChanged",
      "type": "event"
    },
    {
      "anonymous": false,
      "inputs": [
        {
          "indexed": true,
          "internalType": "address",
          "name": "previousOwner",
          "type": "address"
        },
        {
          "indexed": true,
          "internalType": "address",
          "name": "newOwner",
          "type": "address"
        }
      ],
      "name": "OwnershipTransferred",
      "type": "event"
    },
    {
      "anonymous": false,
      "inputs": [
        {
          "indexed": true,
          "internalType": "uint256",
          "name": "lockId",
          "type": "uint256"
        },
        {
          "indexed": true,
          "internalType": "address",
          "name": "token",
          "type": "address"
        },
        {
          "indexed": true,
          "internalType": "address",
          "name": "owner",
          "type": "address"
        },
        {
          "indexed": false,
          "internalType": "uint256",
          "name": "amount",
          "type": "uint256"
        }
      ],
      "name": "TokenLocked",
      "type": "event"
    },
    {
      "anonymous": false,
      "inputs": [
        {
          "indexed": true,
          "internalType": "uint256",
          "name": "lockId",
          "type": "uint256"
        },
        {
          "indexed": true,
          "internalType": "address",
          "name": "token",
          "type": "address"
        },
        {
          "indexed": false,
          "internalType": "uint256",
          "name": "amount",
          "type": "uint256"
        }
      ],
      "name": "TokenUnlocked",
      "type": "event"
    },
    {
      "inputs": [
        {
          "internalType": "uint256",
          "name": "lockId",
          "type": "uint256"
        }
      ],
      "name": "amountToUnlock",
      "outputs": [
        {
          "internalType": "uint256",
          "name": "",
          "type": "uint256"
        }
      ],
      "stateMutability": "view",
      "type": "function"
    },
    {
      "inputs": [
        {
          "internalType": "uint256",
          "name": "lockId",
          "type": "uint256"
        },
        {
          "internalType": "address",
          "name": "newOwner",
          "type": "address"
        }
      ],
      "name": "changeOwner",
      "outputs": [],
      "stateMutability": "nonpayable",
      "type": "function"
    },
    {
      "inputs": [],
      "name": "fee_aggregator",
      "outputs": [
        {
          "internalType": "address",
          "name": "",
          "type": "address"
        }
      ],
      "stateMutability": "view",
      "type": "function"
    },
    {
      "inputs": [
        {
          "internalType": "address",
          "name": "token",
          "type": "address"
        }
      ],
      "name": "getTokenLocks",
      "outputs": [
        {
          "internalType": "uint256[]",
          "name": "",
          "type": "uint256[]"
        }
      ],
      "stateMutability": "view",
      "type": "function"
    },
    {
      "inputs": [],
      "name": "getTokensLockedCount",
      "outputs": [
        {
          "internalType": "uint256",
          "name": "",
          "type": "uint256"
        }
      ],
      "stateMutability": "view",
      "type": "function"
    },
    {
      "inputs": [
        {
          "internalType": "address",
          "name": "user",
          "type": "address"
        }
      ],
      "name": "getUserLocks",
      "outputs": [
        {
          "internalType": "uint256[]",
          "name": "",
          "type": "uint256[]"
        }
      ],
      "stateMutability": "view",
      "type": "function"
    },
    {
      "inputs": [
        {
          "internalType": "address",
          "name": "_fee_aggregator",
          "type": "address"
        },
        {
          "internalType": "address",
          "name": "_wrapped_coin",
          "type": "address"
        },
        {
          "internalType": "uint256",
          "name": "_wrapped_coin_fee",
          "type": "uint256"
        }
      ],
      "name": "initialize",
      "outputs": [],
      "stateMutability": "nonpayable",
      "type": "function"
    },
    {
      "inputs": [
        {
          "internalType": "address",
          "name": "token",
          "type": "address"
        },
        {
          "internalType": "uint256",
          "name": "amount",
          "type": "uint256"
        },
        {
          "internalType": "uint256",
          "name": "start_time",
          "type": "uint256"
        },
        {
          "internalType": "uint256",
          "name": "duration",
          "type": "uint256"
        },
        {
          "internalType": "address",
          "name": "owner",
          "type": "address"
        }
      ],
      "name": "lock",
      "outputs": [
        {
          "internalType": "uint256",
          "name": "",
          "type": "uint256"
        }
      ],
      "stateMutability": "payable",
      "type": "function"
    },
    {
      "inputs": [
        {
          "internalType": "address",
          "name": "token",
          "type": "address"
        },
        {
          "internalType": "uint256",
          "name": "amount",
          "type": "uint256"
        },
        {
          "internalType": "uint256",
          "name": "start_time",
          "type": "uint256"
        },
        {
          "internalType": "uint256",
          "name": "duration",
          "type": "uint256"
        }
      ],
      "name": "lock",
      "outputs": [
        {
          "internalType": "uint256",
          "name": "",
          "type": "uint256"
        }
      ],
      "stateMutability": "payable",
      "type": "function"
    },
    {
      "inputs": [],
      "name": "owner",
      "outputs": [
        {
          "internalType": "address",
          "name": "",
          "type": "address"
        }
      ],
      "stateMutability": "view",
      "type": "function"
    },
    {
      "inputs": [],
      "name": "renounceOwnership",
      "outputs": [],
      "stateMutability": "nonpayable",
      "type": "function"
    },
    {
      "inputs": [
        {
          "internalType": "address",
          "name": "_fee_aggregator",
          "type": "address"
        }
      ],
      "name": "setFeeAggregator",
      "outputs": [],
      "stateMutability": "nonpayable",
      "type": "function"
    },
    {
      "inputs": [
        {
          "internalType": "address",
          "name": "_wrapped_coin",
          "type": "address"
        }
      ],
      "name": "setWrappedCoin",
      "outputs": [],
      "stateMutability": "nonpayable",
      "type": "function"
    },
    {
      "inputs": [
        {
          "internalType": "uint256",
          "name": "_wrapped_coin_fee",
          "type": "uint256"
        }
      ],
      "name": "setWrappedCoinFee",
      "outputs": [],
      "stateMutability": "nonpayable",
      "type": "function"
    },
    {
      "inputs": [
        {
          "internalType": "address",
          "name": "",
          "type": "address"
        },
        {
          "internalType": "uint256",
          "name": "",
          "type": "uint256"
        }
      ],
      "name": "tokenToLocks",
      "outputs": [
        {
          "internalType": "uint256",
          "name": "",
          "type": "uint256"
        }
      ],
      "stateMutability": "view",
      "type": "function"
    },
    {
      "inputs": [
        {
          "internalType": "uint256",
          "name": "",
          "type": "uint256"
        }
      ],
      "name": "tokensLocked",
      "outputs": [
        {
          "internalType": "address",
          "name": "owner",
          "type": "address"
        },
        {
          "internalType": "address",
          "name": "token",
          "type": "address"
        },
        {
          "internalType": "uint256",
          "name": "amount",
          "type": "uint256"
        },
        {
          "internalType": "uint256",
          "name": "start_time",
          "type": "uint256"
        },
        {
          "internalType": "uint256",
          "name": "duration",
          "type": "uint256"
        },
        {
          "internalType": "uint256",
          "name": "amountUnlocked",
          "type": "uint256"
        }
      ],
      "stateMutability": "view",
      "type": "function"
    },
    {
      "inputs": [
        {
          "internalType": "address",
          "name": "newOwner",
          "type": "address"
        }
      ],
      "name": "transferOwnership",
      "outputs": [],
      "stateMutability": "nonpayable",
      "type": "function"
    },
    {
      "inputs": [
        {
          "internalType": "uint256",
          "name": "lockId",
          "type": "uint256"
        },
        {
          "internalType": "uint256",
          "name": "amount",
          "type": "uint256"
        }
      ],
      "name": "unlock",
      "outputs": [],
      "stateMutability": "nonpayable",
      "type": "function"
    },
    {
      "inputs": [
        {
          "internalType": "uint256",
          "name": "lockId",
          "type": "uint256"
        }
      ],
      "name": "unlockAvailable",
      "outputs": [],
      "stateMutability": "nonpayable",
      "type": "function"
    },
    {
      "inputs": [
        {
          "internalType": "uint256",
          "name": "lockId",
          "type": "uint256"
        }
      ],
      "name": "unlockedAmount",
      "outputs": [
        {
          "internalType": "uint256",
          "name": "",
          "type": "uint256"
        }
      ],
      "stateMutability": "view",
      "type": "function"
    },
    {
      "inputs": [
        {
          "internalType": "address",
          "name": "",
          "type": "address"
        },
        {
          "internalType": "uint256",
          "name": "",
          "type": "uint256"
        }
      ],
      "name": "userTokensLocked",
      "outputs": [
        {
          "internalType": "uint256",
          "name": "",
          "type": "uint256"
        }
      ],
      "stateMutability": "view",
      "type": "function"
    },
    {
      "inputs": [],
      "name": "wrapped_coin",
      "outputs": [
        {
          "internalType": "address",
          "name": "",
          "type": "address"
        }
      ],
      "stateMutability": "view",
      "type": "function"
    },
    {
      "inputs": [],
      "name": "wrapped_coin_fee",
      "outputs": [
        {
          "internalType": "uint256",
          "name": "",
          "type": "uint256"
        }
      ],
      "stateMutability": "view",
      "type": "function"
    }
  ],
  "bytecode": "0x608060405234801561001057600080fd5b506133c5806100206000396000f3fe6080604052600436106101405760003560e01c80637368c64f116100b6578063c97be1801161006f578063c97be18014610476578063cbc0fb59146104a6578063d637533e146104cf578063f2fde38b146104fa578063f357dc0814610523578063f8bd130b1461056057610140565b80637368c64f14610352578063775db3251461037d578063784796f7146103ba5780638da5cb5b146103e3578063ad66e81d1461040e578063c90376e41461043957610140565b8063202046df11610108578063202046df1461024657806323a35de91461028357806353118659146102c05780635bfadb24146102e9578063657a1c1914610312578063715018a61461033b57610140565b80630301eb20146101455780630af79f791461017557806315b358e0146101b25780631794bb3c146101db5780631ddb1d3414610204575b600080fd5b61015f600480360381019061015a91906122e1565b61058b565b60405161016c919061236b565b60405180910390f35b34801561018157600080fd5b5061019c60048036038101906101979190612386565b610a59565b6040516101a9919061236b565b60405180910390f35b3480156101be57600080fd5b506101d960048036038101906101d491906123b3565b610abb565b005b3480156101e757600080fd5b5061020260048036038101906101fd91906123e0565b610b07565b005b34801561021057600080fd5b5061022b60048036038101906102269190612386565b610cd1565b60405161023d96959493929190612442565b60405180910390f35b34801561025257600080fd5b5061026d600480360381019061026891906124a3565b610d5d565b60405161027a919061236b565b60405180910390f35b34801561028f57600080fd5b506102aa60048036038101906102a591906123b3565b610d8e565b6040516102b791906125a1565b60405180910390f35b3480156102cc57600080fd5b506102e760048036038101906102e29190612386565b610e25565b005b3480156102f557600080fd5b50610310600480360381019061030b91906125c3565b610e37565b005b34801561031e57600080fd5b5061033960048036038101906103349190612386565b610f92565b005b34801561034757600080fd5b506103506110ec565b005b34801561035e57600080fd5b50610367611100565b604051610374919061236b565b60405180910390f35b34801561038957600080fd5b506103a4600480360381019061039f91906124a3565b61110d565b6040516103b1919061236b565b60405180910390f35b3480156103c657600080fd5b506103e160048036038101906103dc9190612603565b61113e565b005b3480156103ef57600080fd5b506103f86115b0565b6040516104059190612643565b60405180910390f35b34801561041a57600080fd5b506104236115da565b6040516104309190612643565b60405180910390f35b34801561044557600080fd5b50610460600480360381019061045b9190612386565b611600565b60405161046d919061236b565b60405180910390f35b610490600480360381019061048b919061265e565b611776565b60405161049d919061236b565b60405180910390f35b3480156104b257600080fd5b506104cd60048036038101906104c891906123b3565b61178f565b005b3480156104db57600080fd5b506104e46117db565b6040516104f1919061236b565b60405180910390f35b34801561050657600080fd5b50610521600480360381019061051c91906123b3565b6117e1565b005b34801561052f57600080fd5b5061054a600480360381019061054591906123b3565b611865565b60405161055791906125a1565b60405180910390f35b34801561056c57600080fd5b506105756118fc565b6040516105829190612643565b60405180910390f35b60008085116105cf576040517f08c379a00000000000000000000000000000000000000000000000000000000081526004016105c690612748565b60405180910390fd5b606754341015610614576040517f08c379a000000000000000000000000000000000000000000000000000000000815260040161060b906127da565b60405180910390fd5b61061d34611922565b60008673ffffffffffffffffffffffffffffffffffffffff166370a08231306040518263ffffffff1660e01b81526004016106589190612643565b602060405180830381865afa158015610675573d6000803e3d6000fd5b505050506040513d601f19601f82011682018060405250810190610699919061280f565b90506106c83330888a73ffffffffffffffffffffffffffffffffffffffff16611ad2909392919063ffffffff16565b610754818873ffffffffffffffffffffffffffffffffffffffff166370a08231306040518263ffffffff1660e01b81526004016107059190612643565b602060405180830381865afa158015610722573d6000803e3d6000fd5b505050506040513d601f19601f82011682018060405250810190610746919061280f565b611b5b90919063ffffffff16565b955060008611610799576040517f08c379a0000000000000000000000000000000000000000000000000000000008152600401610790906128ae565b60405180910390fd5b60686040518060c001604052808573ffffffffffffffffffffffffffffffffffffffff1681526020018973ffffffffffffffffffffffffffffffffffffffff1681526020018881526020018781526020018681526020016000815250908060018154018082558091505060019003906000526020600020906006020160009091909190915060008201518160000160006101000a81548173ffffffffffffffffffffffffffffffffffffffff021916908373ffffffffffffffffffffffffffffffffffffffff16021790555060208201518160010160006101000a81548173ffffffffffffffffffffffffffffffffffffffff021916908373ffffffffffffffffffffffffffffffffffffffff16021790555060408201518160020155606082015181600301556080820151816004015560a082015181600501555050606960008473ffffffffffffffffffffffffffffffffffffffff1673ffffffffffffffffffffffffffffffffffffffff168152602001908152602001600020600160688054905061092791906128fd565b9080600181540180825580915050600190039060005260206000200160009091909190915055606a60008873ffffffffffffffffffffffffffffffffffffffff1673ffffffffffffffffffffffffffffffffffffffff168152602001908152602001600020600160688054905061099e91906128fd565b90806001815401808255809150506001900390600052602060002001600090919091909150558273ffffffffffffffffffffffffffffffffffffffff168773ffffffffffffffffffffffffffffffffffffffff166001606880549050610a0491906128fd565b7f9b94a54ff0905d7c83f655ba8a718feacf00e2048041fb5e7ca3cdc59fd6e79089604051610a33919061236b565b60405180910390a46001606880549050610a4d91906128fd565b91505095945050505050565b600080610a6583611600565b90506000811115610ab057610aa860688481548110610a8757610a86612931565b5b90600052602060002090600602016005015482611b5b90919063ffffffff16565b915050610ab6565b60009150505b919050565b610ac3611b71565b80606560006101000a81548173ffffffffffffffffffffffffffffffffffffffff021916908373ffffffffffffffffffffffffffffffffffffffff16021790555050565b60008060019054906101000a900460ff16159050808015610b385750600160008054906101000a900460ff1660ff16105b80610b655750610b4730611bef565b158015610b645750600160008054906101000a900460ff1660ff16145b5b610ba4576040517f08c379a0000000000000000000000000000000000000000000000000000000008152600401610b9b906129d2565b60405180910390fd5b60016000806101000a81548160ff021916908360ff1602179055508015610be1576001600060016101000a81548160ff0219169083151502179055505b610be9611c12565b83606560006101000a81548173ffffffffffffffffffffffffffffffffffffffff021916908373ffffffffffffffffffffffffffffffffffffffff16021790555082606660006101000a81548173ffffffffffffffffffffffffffffffffffffffff021916908373ffffffffffffffffffffffffffffffffffffffff160217905550816067819055508015610ccb5760008060016101000a81548160ff0219169083151502179055507f7f26b83ff96e1f2b6a682f133852f6798a09c465da95921460cefb38474024986001604051610cc29190612a44565b60405180910390a15b50505050565b60688181548110610ce157600080fd5b90600052602060002090600602016000915090508060000160009054906101000a900473ffffffffffffffffffffffffffffffffffffffff16908060010160009054906101000a900473ffffffffffffffffffffffffffffffffffffffff16908060020154908060030154908060040154908060050154905086565b606a6020528160005260406000208181548110610d7957600080fd5b90600052602060002001600091509150505481565b6060606960008373ffffffffffffffffffffffffffffffffffffffff1673ffffffffffffffffffffffffffffffffffffffff168152602001908152602001600020805480602002602001604051908101604052809291908181526020018280548015610e1957602002820191906000526020600020905b815481526020019060010190808311610e05575b50505050509050919050565b610e2d611b71565b8060678190555050565b818060688054905011610e7f576040517f08c379a0000000000000000000000000000000000000000000000000000000008152600401610e7690612ad1565b60405180910390fd5b3373ffffffffffffffffffffffffffffffffffffffff1660688281548110610eaa57610ea9612931565b5b906000526020600020906006020160000160009054906101000a900473ffffffffffffffffffffffffffffffffffffffff1673ffffffffffffffffffffffffffffffffffffffff1614610f32576040517f08c379a0000000000000000000000000000000000000000000000000000000008152600401610f2990612b63565b60405180910390fd5b6000610f3d84610a59565b905082811015610f82576040517f08c379a0000000000000000000000000000000000000000000000000000000008152600401610f7990612bf5565b60405180910390fd5b610f8c8484611c6b565b50505050565b808060688054905011610fda576040517f08c379a0000000000000000000000000000000000000000000000000000000008152600401610fd190612ad1565b60405180910390fd5b3373ffffffffffffffffffffffffffffffffffffffff166068828154811061100557611004612931565b5b906000526020600020906006020160000160009054906101000a900473ffffffffffffffffffffffffffffffffffffffff1673ffffffffffffffffffffffffffffffffffffffff161461108d576040517f08c379a000000000000000000000000000000000000000000000000000000000815260040161108490612b63565b60405180910390fd5b600061109883610a59565b9050600081116110dd576040517f08c379a00000000000000000000000000000000000000000000000000000000081526004016110d490612c87565b60405180910390fd5b6110e78382611c6b565b505050565b6110f4611b71565b6110fe6000611df4565b565b6000606880549050905090565b6069602052816000526040600020818154811061112957600080fd5b90600052602060002001600091509150505481565b818060688054905011611186576040517f08c379a000000000000000000000000000000000000000000000000000000000815260040161117d90612ad1565b60405180910390fd5b3373ffffffffffffffffffffffffffffffffffffffff16606882815481106111b1576111b0612931565b5b906000526020600020906006020160000160009054906101000a900473ffffffffffffffffffffffffffffffffffffffff1673ffffffffffffffffffffffffffffffffffffffff1614611239576040517f08c379a000000000000000000000000000000000000000000000000000000000815260040161123090612b63565b60405180910390fd5b816068848154811061124e5761124d612931565b5b906000526020600020906006020160000160006101000a81548173ffffffffffffffffffffffffffffffffffffffff021916908373ffffffffffffffffffffffffffffffffffffffff160217905550606960008373ffffffffffffffffffffffffffffffffffffffff1673ffffffffffffffffffffffffffffffffffffffff1681526020019081526020016000208390806001815401808255809150506001900390600052602060002001600090919091909150556000606960003373ffffffffffffffffffffffffffffffffffffffff1673ffffffffffffffffffffffffffffffffffffffff168152602001908152602001600020805490509050600060018261135991906128fd565b90505b6001156114e95784606960003373ffffffffffffffffffffffffffffffffffffffff1673ffffffffffffffffffffffffffffffffffffffff16815260200190815260200160002082815481106113b5576113b4612931565b5b9060005260206000200154141561149257606960003373ffffffffffffffffffffffffffffffffffffffff1673ffffffffffffffffffffffffffffffffffffffff16815260200190815260200160002060018361141291906128fd565b8154811061142357611422612931565b5b9060005260206000200154606960003373ffffffffffffffffffffffffffffffffffffffff1673ffffffffffffffffffffffffffffffffffffffff168152602001908152602001600020828154811061147f5761147e612931565b5b90600052602060002001819055506114e9565b60008114156114d6576040517f08c379a00000000000000000000000000000000000000000000000000000000081526004016114cd90612d19565b60405180910390fd5b80806114e190612d39565b91505061135c565b606960003373ffffffffffffffffffffffffffffffffffffffff1673ffffffffffffffffffffffffffffffffffffffff16815260200190815260200160002080548061153857611537612d63565b5b600190038181906000526020600020016000905590558373ffffffffffffffffffffffffffffffffffffffff163373ffffffffffffffffffffffffffffffffffffffff16867f079a159bc2c4ed6aaee92c293d83b6527a380c127aca07f41d3ab4c590957f5660405160405180910390a45050505050565b6000603360009054906101000a900473ffffffffffffffffffffffffffffffffffffffff16905090565b606660009054906101000a900473ffffffffffffffffffffffffffffffffffffffff1681565b6000806068838154811061161757611616612931565b5b906000526020600020906006020160020154148061165a57506068828154811061164457611643612931565b5b9060005260206000209060060201600301544211155b156116685760009050611771565b60006116a26068848154811061168157611680612931565b5b90600052602060002090600602016003015442611b5b90919063ffffffff16565b9050606883815481106116b8576116b7612931565b5b90600052602060002090600602016004015481106116fe57606883815481106116e4576116e3612931565b5b906000526020600020906006020160020154915050611771565b61176d6068848154811061171557611714612931565b5b90600052602060002090600602016004015461175f836068878154811061173f5761173e612931565b5b906000526020600020906006020160020154611eba90919063ffffffff16565b611ed090919063ffffffff16565b9150505b919050565b6000611785858585853361058b565b9050949350505050565b611797611b71565b80606660006101000a81548173ffffffffffffffffffffffffffffffffffffffff021916908373ffffffffffffffffffffffffffffffffffffffff16021790555050565b60675481565b6117e9611b71565b600073ffffffffffffffffffffffffffffffffffffffff168173ffffffffffffffffffffffffffffffffffffffff161415611859576040517f08c379a000000000000000000000000000000000000000000000000000000000815260040161185090612e04565b60405180910390fd5b61186281611df4565b50565b6060606a60008373ffffffffffffffffffffffffffffffffffffffff1673ffffffffffffffffffffffffffffffffffffffff1681526020019081526020016000208054806020026020016040519081016040528092919081815260200182805480156118f057602002820191906000526020600020905b8154815260200190600101908083116118dc575b50505050509050919050565b606560009054906101000a900473ffffffffffffffffffffffffffffffffffffffff1681565b6000811115611acf57606660009054906101000a900473ffffffffffffffffffffffffffffffffffffffff1673ffffffffffffffffffffffffffffffffffffffff1663d0e30db0826040518263ffffffff1660e01b81526004016000604051808303818588803b15801561199557600080fd5b505af11580156119a9573d6000803e3d6000fd5b5050505050611a1d606560009054906101000a900473ffffffffffffffffffffffffffffffffffffffff1682606660009054906101000a900473ffffffffffffffffffffffffffffffffffffffff1673ffffffffffffffffffffffffffffffffffffffff16611ee69092919063ffffffff16565b606560009054906101000a900473ffffffffffffffffffffffffffffffffffffffff1673ffffffffffffffffffffffffffffffffffffffff1663a361e6e1606660009054906101000a900473ffffffffffffffffffffffffffffffffffffffff16836040518363ffffffff1660e01b8152600401611a9c929190612e24565b600060405180830381600087803b158015611ab657600080fd5b505af1158015611aca573d6000803e3d6000fd5b505050505b50565b611b55846323b872dd60e01b858585604051602401611af393929190612e4d565b604051602081830303815290604052907bffffffffffffffffffffffffffffffffffffffffffffffffffffffff19166020820180517bffffffffffffffffffffffffffffffffffffffffffffffffffffffff8381831617835250505050611f6c565b50505050565b60008183611b6991906128fd565b905092915050565b611b79612034565b73ffffffffffffffffffffffffffffffffffffffff16611b976115b0565b73ffffffffffffffffffffffffffffffffffffffff1614611bed576040517f08c379a0000000000000000000000000000000000000000000000000000000008152600401611be490612ed0565b60405180910390fd5b565b6000808273ffffffffffffffffffffffffffffffffffffffff163b119050919050565b600060019054906101000a900460ff16611c61576040517f08c379a0000000000000000000000000000000000000000000000000000000008152600401611c5890612f62565b60405180910390fd5b611c6961203c565b565b8060688381548110611c8057611c7f612931565b5b90600052602060002090600602016005016000828254611ca09190612f82565b92505081905550611d5c60688381548110611cbe57611cbd612931565b5b906000526020600020906006020160000160009054906101000a900473ffffffffffffffffffffffffffffffffffffffff168260688581548110611d0557611d04612931565b5b906000526020600020906006020160010160009054906101000a900473ffffffffffffffffffffffffffffffffffffffff1673ffffffffffffffffffffffffffffffffffffffff16611ee69092919063ffffffff16565b60688281548110611d7057611d6f612931565b5b906000526020600020906006020160010160009054906101000a900473ffffffffffffffffffffffffffffffffffffffff1673ffffffffffffffffffffffffffffffffffffffff16827fee2a18ee2bc0fe152d62f395feacb9dacb1e9f3fdb444b21ec9d6aadd81c6de783604051611de8919061236b565b60405180910390a35050565b6000603360009054906101000a900473ffffffffffffffffffffffffffffffffffffffff16905081603360006101000a81548173ffffffffffffffffffffffffffffffffffffffff021916908373ffffffffffffffffffffffffffffffffffffffff1602179055508173ffffffffffffffffffffffffffffffffffffffff168173ffffffffffffffffffffffffffffffffffffffff167f8be0079c531659141344cd1fd0a4f28419497f9722a3daafe3b4186f6b6457e060405160405180910390a35050565b60008183611ec89190612fd8565b905092915050565b60008183611ede9190613061565b905092915050565b611f678363a9059cbb60e01b8484604051602401611f05929190612e24565b604051602081830303815290604052907bffffffffffffffffffffffffffffffffffffffffffffffffffffffff19166020820180517bffffffffffffffffffffffffffffffffffffffffffffffffffffffff8381831617835250505050611f6c565b505050565b6000611fce826040518060400160405280602081526020017f5361666545524332303a206c6f772d6c6576656c2063616c6c206661696c65648152508573ffffffffffffffffffffffffffffffffffffffff1661209d9092919063ffffffff16565b9050600081511480611ff0575080806020019051810190611fef91906130ca565b5b61202f576040517f08c379a000000000000000000000000000000000000000000000000000000000815260040161202690613169565b60405180910390fd5b505050565b600033905090565b600060019054906101000a900460ff1661208b576040517f08c379a000000000000000000000000000000000000000000000000000000000815260040161208290612f62565b60405180910390fd5b61209b612096612034565b611df4565b565b60606120ac84846000856120b5565b90509392505050565b6060824710156120fa576040517f08c379a00000000000000000000000000000000000000000000000000000000081526004016120f1906131fb565b60405180910390fd5b6000808673ffffffffffffffffffffffffffffffffffffffff1685876040516121239190613295565b60006040518083038185875af1925050503d8060008114612160576040519150601f19603f3d011682016040523d82523d6000602084013e612165565b606091505b509150915061217687838387612182565b92505050949350505050565b606083156121e5576000835114156121dd5761219d85611bef565b6121dc576040517f08c379a00000000000000000000000000000000000000000000000000000000081526004016121d3906132f8565b60405180910390fd5b5b8290506121f0565b6121ef83836121f8565b5b949350505050565b60008251111561220b5781518083602001fd5b806040517f08c379a000000000000000000000000000000000000000000000000000000000815260040161223f919061336d565b60405180910390fd5b600080fd5b600073ffffffffffffffffffffffffffffffffffffffff82169050919050565b60006122788261224d565b9050919050565b6122888161226d565b811461229357600080fd5b50565b6000813590506122a58161227f565b92915050565b6000819050919050565b6122be816122ab565b81146122c957600080fd5b50565b6000813590506122db816122b5565b92915050565b600080600080600060a086880312156122fd576122fc612248565b5b600061230b88828901612296565b955050602061231c888289016122cc565b945050604061232d888289016122cc565b935050606061233e888289016122cc565b925050608061234f88828901612296565b9150509295509295909350565b612365816122ab565b82525050565b6000602082019050612380600083018461235c565b92915050565b60006020828403121561239c5761239b612248565b5b60006123aa848285016122cc565b91505092915050565b6000602082840312156123c9576123c8612248565b5b60006123d784828501612296565b91505092915050565b6000806000606084860312156123f9576123f8612248565b5b600061240786828701612296565b935050602061241886828701612296565b9250506040612429868287016122cc565b9150509250925092565b61243c8161226d565b82525050565b600060c0820190506124576000830189612433565b6124646020830188612433565b612471604083018761235c565b61247e606083018661235c565b61248b608083018561235c565b61249860a083018461235c565b979650505050505050565b600080604083850312156124ba576124b9612248565b5b60006124c885828601612296565b92505060206124d9858286016122cc565b9150509250929050565b600081519050919050565b600082825260208201905092915050565b6000819050602082019050919050565b612518816122ab565b82525050565b600061252a838361250f565b60208301905092915050565b6000602082019050919050565b600061254e826124e3565b61255881856124ee565b9350612563836124ff565b8060005b8381101561259457815161257b888261251e565b975061258683612536565b925050600181019050612567565b5085935050505092915050565b600060208201905081810360008301526125bb8184612543565b905092915050565b600080604083850312156125da576125d9612248565b5b60006125e8858286016122cc565b92505060206125f9858286016122cc565b9150509250929050565b6000806040838503121561261a57612619612248565b5b6000612628858286016122cc565b925050602061263985828601612296565b9150509250929050565b60006020820190506126586000830184612433565b92915050565b6000806000806080858703121561267857612677612248565b5b600061268687828801612296565b9450506020612697878288016122cc565b93505060406126a8878288016122cc565b92505060606126b9878288016122cc565b91505092959194509250565b600082825260208201905092915050565b7f505349506164546f6b656e4c6f636b466163746f72793a20414d4f554e545f5a60008201527f45524f0000000000000000000000000000000000000000000000000000000000602082015250565b60006127326023836126c5565b915061273d826126d6565b604082019050919050565b6000602082019050818103600083015261276181612725565b9050919050565b7f505349506164546f6b656e4c6f636b466163746f72793a204645455f4e4f545f60008201527f5041594544000000000000000000000000000000000000000000000000000000602082015250565b60006127c46025836126c5565b91506127cf82612768565b604082019050919050565b600060208201905081810360008301526127f3816127b7565b9050919050565b600081519050612809816122b5565b92915050565b60006020828403121561282557612824612248565b5b6000612833848285016127fa565b91505092915050565b7f505349506164546f6b656e4c6f636b466163746f72793a20414d4f554e545f5a60008201527f45524f5f41465445525f5452414e534645520000000000000000000000000000602082015250565b60006128986032836126c5565b91506128a38261283c565b604082019050919050565b600060208201905081810360008301526128c78161288b565b9050919050565b7f4e487b7100000000000000000000000000000000000000000000000000000000600052601160045260246000fd5b6000612908826122ab565b9150612913836122ab565b925082821015612926576129256128ce565b5b828203905092915050565b7f4e487b7100000000000000000000000000000000000000000000000000000000600052603260045260246000fd5b7f496e697469616c697a61626c653a20636f6e747261637420697320616c72656160008201527f647920696e697469616c697a6564000000000000000000000000000000000000602082015250565b60006129bc602e836126c5565b91506129c782612960565b604082019050919050565b600060208201905081810360008301526129eb816129af565b9050919050565b6000819050919050565b600060ff82169050919050565b6000819050919050565b6000612a2e612a29612a24846129f2565b612a09565b6129fc565b9050919050565b612a3e81612a13565b82525050565b6000602082019050612a596000830184612a35565b92915050565b7f505349506164546f6b656e4c6f636b466163746f72793a204c4f434b5f444f4560008201527f535f4e4f545f4558495354000000000000000000000000000000000000000000602082015250565b6000612abb602b836126c5565b9150612ac682612a5f565b604082019050919050565b60006020820190508181036000830152612aea81612aae565b9050919050565b7f505349506164546f6b656e4c6f636b466163746f72793a20554e415554484f5260008201527f495a454400000000000000000000000000000000000000000000000000000000602082015250565b6000612b4d6024836126c5565b9150612b5882612af1565b604082019050919050565b60006020820190508181036000830152612b7c81612b40565b9050919050565b7f505349506164546f6b656e4c6f636b466163746f72793a20414d4f554e545f5460008201527f4f5f484947485f4f525f4c4f434b454400000000000000000000000000000000602082015250565b6000612bdf6030836126c5565b9150612bea82612b83565b604082019050919050565b60006020820190508181036000830152612c0e81612bd2565b9050919050565b7f505349506164546f6b656e4c6f636b466163746f72793a204e4f5f414d4f554e60008201527f545f415641494c41424c45000000000000000000000000000000000000000000602082015250565b6000612c71602b836126c5565b9150612c7c82612c15565b604082019050919050565b60006020820190508181036000830152612ca081612c64565b9050919050565b7f505349506164546f6b656e4c6f636b466163746f72793a204f4c445f4f574e4560008201527f525f4e4f545f464f554e44000000000000000000000000000000000000000000602082015250565b6000612d03602b836126c5565b9150612d0e82612ca7565b604082019050919050565b60006020820190508181036000830152612d3281612cf6565b9050919050565b6000612d44826122ab565b91506000821415612d5857612d576128ce565b5b600182039050919050565b7f4e487b7100000000000000000000000000000000000000000000000000000000600052603160045260246000fd5b7f4f776e61626c653a206e6577206f776e657220697320746865207a65726f206160008201527f6464726573730000000000000000000000000000000000000000000000000000602082015250565b6000612dee6026836126c5565b9150612df982612d92565b604082019050919050565b60006020820190508181036000830152612e1d81612de1565b9050919050565b6000604082019050612e396000830185612433565b612e46602083018461235c565b9392505050565b6000606082019050612e626000830186612433565b612e6f6020830185612433565b612e7c604083018461235c565b949350505050565b7f4f776e61626c653a2063616c6c6572206973206e6f7420746865206f776e6572600082015250565b6000612eba6020836126c5565b9150612ec582612e84565b602082019050919050565b60006020820190508181036000830152612ee981612ead565b9050919050565b7f496e697469616c697a61626c653a20636f6e7472616374206973206e6f74206960008201527f6e697469616c697a696e67000000000000000000000000000000000000000000602082015250565b6000612f4c602b836126c5565b9150612f5782612ef0565b604082019050919050565b60006020820190508181036000830152612f7b81612f3f565b9050919050565b6000612f8d826122ab565b9150612f98836122ab565b9250827fffffffffffffffffffffffffffffffffffffffffffffffffffffffffffffffff03821115612fcd57612fcc6128ce565b5b828201905092915050565b6000612fe3826122ab565b9150612fee836122ab565b9250817fffffffffffffffffffffffffffffffffffffffffffffffffffffffffffffffff0483118215151615613027576130266128ce565b5b828202905092915050565b7f4e487b7100000000000000000000000000000000000000000000000000000000600052601260045260246000fd5b600061306c826122ab565b9150613077836122ab565b92508261308757613086613032565b5b828204905092915050565b60008115159050919050565b6130a781613092565b81146130b257600080fd5b50565b6000815190506130c48161309e565b92915050565b6000602082840312156130e0576130df612248565b5b60006130ee848285016130b5565b91505092915050565b7f5361666545524332303a204552433230206f7065726174696f6e20646964206e60008201527f6f74207375636365656400000000000000000000000000000000000000000000602082015250565b6000613153602a836126c5565b915061315e826130f7565b604082019050919050565b6000602082019050818103600083015261318281613146565b9050919050565b7f416464726573733a20696e73756666696369656e742062616c616e636520666f60008201527f722063616c6c0000000000000000000000000000000000000000000000000000602082015250565b60006131e56026836126c5565b91506131f082613189565b604082019050919050565b60006020820190508181036000830152613214816131d8565b9050919050565b600081519050919050565b600081905092915050565b60005b8381101561324f578082015181840152602081019050613234565b8381111561325e576000848401525b50505050565b600061326f8261321b565b6132798185613226565b9350613289818560208601613231565b80840191505092915050565b60006132a18284613264565b915081905092915050565b7f416464726573733a2063616c6c20746f206e6f6e2d636f6e7472616374000000600082015250565b60006132e2601d836126c5565b91506132ed826132ac565b602082019050919050565b60006020820190508181036000830152613311816132d5565b9050919050565b600081519050919050565b6000601f19601f8301169050919050565b600061333f82613318565b61334981856126c5565b9350613359818560208601613231565b61336281613323565b840191505092915050565b600060208201905081810360008301526133878184613334565b90509291505056fea26469706673582212207c5b5330a099cb490fc7dadfc1bad591da5fe25ce26324e07fc0348d8684124a64736f6c634300080c0033",
  "linkReferences": {},
  "deployedLinkReferences": {}
}