{
  "contracts/TokenLockFactory.sol": {
    "TokenLockFactory": {
      "abi": [
        {
          "anonymous": false,
          "inputs": [
            {
              "indexed": false,
              "internalType": "uint8",
              "name": "version",
              "type": "uint8"
            }
          ],
          "name": "Initialized",
          "type": "event"
        },
        {
          "anonymous": false,
          "inputs": [
            {
              "indexed": true,
              "internalType": "uint256",
              "name": "lockId",
              "type": "uint256"
            },
            {
              "indexed": true,
              "internalType": "address",
              "name": "oldOwner",
              "type": "address"
            },
            {
              "indexed": true,
              "internalType": "address",
              "name": "newOwner",
              "type": "address"
            }
          ],
          "name": "OwnerChanged",
          "type": "event"
        },
        {
          "anonymous": false,
          "inputs": [
            {
              "indexed": true,
              "internalType": "address",
              "name": "previousOwner",
              "type": "address"
            },
            {
              "indexed": true,
              "internalType": "address",
              "name": "newOwner",
              "type": "address"
            }
          ],
          "name": "OwnershipTransferred",
          "type": "event"
        },
        {
          "anonymous": false,
          "inputs": [
            {
              "indexed": true,
              "internalType": "uint256",
              "name": "lockId",
              "type": "uint256"
            },
            {
              "indexed": true,
              "internalType": "address",
              "name": "token",
              "type": "address"
            },
            {
              "indexed": true,
              "internalType": "address",
              "name": "owner",
              "type": "address"
            },
            {
              "indexed": false,
              "internalType": "uint256",
              "name": "amount",
              "type": "uint256"
            }
          ],
          "name": "TokenLocked",
          "type": "event"
        },
        {
          "anonymous": false,
          "inputs": [
            {
              "indexed": true,
              "internalType": "uint256",
              "name": "lockId",
              "type": "uint256"
            },
            {
              "indexed": true,
              "internalType": "address",
              "name": "token",
              "type": "address"
            },
            {
              "indexed": false,
              "internalType": "uint256",
              "name": "amount",
              "type": "uint256"
            }
          ],
          "name": "TokenUnlocked",
          "type": "event"
        },
        {
          "inputs": [
            {
              "internalType": "uint256",
              "name": "lockId",
              "type": "uint256"
            }
          ],
          "name": "amountToUnlock",
          "outputs": [
            {
              "internalType": "uint256",
              "name": "",
              "type": "uint256"
            }
          ],
          "stateMutability": "view",
          "type": "function"
        },
        {
          "inputs": [
            {
              "internalType": "uint256",
              "name": "lockId",
              "type": "uint256"
            },
            {
              "internalType": "address",
              "name": "newOwner",
              "type": "address"
            }
          ],
          "name": "changeOwner",
          "outputs": [],
          "stateMutability": "nonpayable",
          "type": "function"
        },
        {
          "inputs": [],
          "name": "fee_aggregator",
          "outputs": [
            {
              "internalType": "address",
              "name": "",
              "type": "address"
            }
          ],
          "stateMutability": "view",
          "type": "function"
        },
        {
          "inputs": [
            {
              "internalType": "address",
              "name": "token",
              "type": "address"
            }
          ],
          "name": "getTokenLocks",
          "outputs": [
            {
              "internalType": "uint256[]",
              "name": "",
              "type": "uint256[]"
            }
          ],
          "stateMutability": "view",
          "type": "function"
        },
        {
          "inputs": [],
          "name": "getTokensLockedCount",
          "outputs": [
            {
              "internalType": "uint256",
              "name": "",
              "type": "uint256"
            }
          ],
          "stateMutability": "view",
          "type": "function"
        },
        {
          "inputs": [
            {
              "internalType": "address",
              "name": "user",
              "type": "address"
            }
          ],
          "name": "getUserLocks",
          "outputs": [
            {
              "internalType": "uint256[]",
              "name": "",
              "type": "uint256[]"
            }
          ],
          "stateMutability": "view",
          "type": "function"
        },
        {
          "inputs": [
            {
              "internalType": "address",
              "name": "_fee_aggregator",
              "type": "address"
            },
            {
              "internalType": "address",
              "name": "_wrapped_coin",
              "type": "address"
            },
            {
              "internalType": "uint256",
              "name": "_wrapped_coin_fee",
              "type": "uint256"
            }
          ],
          "name": "initialize",
          "outputs": [],
          "stateMutability": "nonpayable",
          "type": "function"
        },
        {
          "inputs": [
            {
              "internalType": "address",
              "name": "token",
              "type": "address"
            },
            {
              "internalType": "uint256",
              "name": "amount",
              "type": "uint256"
            },
            {
              "internalType": "uint256",
              "name": "start_time",
              "type": "uint256"
            },
            {
              "internalType": "uint256",
              "name": "duration",
              "type": "uint256"
            },
            {
              "internalType": "address",
              "name": "owner",
              "type": "address"
            }
          ],
          "name": "lock",
          "outputs": [
            {
              "internalType": "uint256",
              "name": "",
              "type": "uint256"
            }
          ],
          "stateMutability": "payable",
          "type": "function"
        },
        {
          "inputs": [
            {
              "internalType": "address",
              "name": "token",
              "type": "address"
            },
            {
              "internalType": "uint256",
              "name": "amount",
              "type": "uint256"
            },
            {
              "internalType": "uint256",
              "name": "start_time",
              "type": "uint256"
            },
            {
              "internalType": "uint256",
              "name": "duration",
              "type": "uint256"
            }
          ],
          "name": "lock",
          "outputs": [
            {
              "internalType": "uint256",
              "name": "",
              "type": "uint256"
            }
          ],
          "stateMutability": "payable",
          "type": "function"
        },
        {
          "inputs": [],
          "name": "owner",
          "outputs": [
            {
              "internalType": "address",
              "name": "",
              "type": "address"
            }
          ],
          "stateMutability": "view",
          "type": "function"
        },
        {
          "inputs": [],
          "name": "renounceOwnership",
          "outputs": [],
          "stateMutability": "nonpayable",
          "type": "function"
        },
        {
          "inputs": [
            {
              "internalType": "address",
              "name": "_fee_aggregator",
              "type": "address"
            }
          ],
          "name": "setFeeAggregator",
          "outputs": [],
          "stateMutability": "nonpayable",
          "type": "function"
        },
        {
          "inputs": [
            {
              "internalType": "address",
              "name": "_wrapped_coin",
              "type": "address"
            }
          ],
          "name": "setWrappedCoin",
          "outputs": [],
          "stateMutability": "nonpayable",
          "type": "function"
        },
        {
          "inputs": [
            {
              "internalType": "uint256",
              "name": "_wrapped_coin_fee",
              "type": "uint256"
            }
          ],
          "name": "setWrappedCoinFee",
          "outputs": [],
          "stateMutability": "nonpayable",
          "type": "function"
        },
        {
          "inputs": [
            {
              "internalType": "address",
              "name": "",
              "type": "address"
            },
            {
              "internalType": "uint256",
              "name": "",
              "type": "uint256"
            }
          ],
          "name": "tokenToLocks",
          "outputs": [
            {
              "internalType": "uint256",
              "name": "",
              "type": "uint256"
            }
          ],
          "stateMutability": "view",
          "type": "function"
        },
        {
          "inputs": [
            {
              "internalType": "uint256",
              "name": "",
              "type": "uint256"
            }
          ],
          "name": "tokensLocked",
          "outputs": [
            {
              "internalType": "address",
              "name": "owner",
              "type": "address"
            },
            {
              "internalType": "address",
              "name": "token",
              "type": "address"
            },
            {
              "internalType": "uint256",
              "name": "amount",
              "type": "uint256"
            },
            {
              "internalType": "uint256",
              "name": "start_time",
              "type": "uint256"
            },
            {
              "internalType": "uint256",
              "name": "duration",
              "type": "uint256"
            },
            {
              "internalType": "uint256",
              "name": "amountUnlocked",
              "type": "uint256"
            }
          ],
          "stateMutability": "view",
          "type": "function"
        },
        {
          "inputs": [
            {
              "internalType": "address",
              "name": "newOwner",
              "type": "address"
            }
          ],
          "name": "transferOwnership",
          "outputs": [],
          "stateMutability": "nonpayable",
          "type": "function"
        },
        {
          "inputs": [
            {
              "internalType": "uint256",
              "name": "lockId",
              "type": "uint256"
            },
            {
              "internalType": "uint256",
              "name": "amount",
              "type": "uint256"
            }
          ],
          "name": "unlock",
          "outputs": [],
          "stateMutability": "nonpayable",
          "type": "function"
        },
        {
          "inputs": [
            {
              "internalType": "uint256",
              "name": "lockId",
              "type": "uint256"
            }
          ],
          "name": "unlockAvailable",
          "outputs": [],
          "stateMutability": "nonpayable",
          "type": "function"
        },
        {
          "inputs": [
            {
              "internalType": "uint256",
              "name": "lockId",
              "type": "uint256"
            }
          ],
          "name": "unlockedAmount",
          "outputs": [
            {
              "internalType": "uint256",
              "name": "",
              "type": "uint256"
            }
          ],
          "stateMutability": "view",
          "type": "function"
        },
        {
          "inputs": [
            {
              "internalType": "address",
              "name": "",
              "type": "address"
            },
            {
              "internalType": "uint256",
              "name": "",
              "type": "uint256"
            }
          ],
          "name": "userTokensLocked",
          "outputs": [
            {
              "internalType": "uint256",
              "name": "",
              "type": "uint256"
            }
          ],
          "stateMutability": "view",
          "type": "function"
        },
        {
          "inputs": [],
          "name": "wrapped_coin",
          "outputs": [
            {
              "internalType": "address",
              "name": "",
              "type": "address"
            }
          ],
          "stateMutability": "view",
          "type": "function"
        },
        {
          "inputs": [],
          "name": "wrapped_coin_fee",
          "outputs": [
            {
              "internalType": "uint256",
              "name": "",
              "type": "uint256"
            }
          ],
          "stateMutability": "view",
          "type": "function"
        }
      ],
      "evm": {
        "bytecode": {
          "linkReferences": {},
          "object": "608060405234801561001057600080fd5b506133c5806100206000396000f3fe6080604052600436106101405760003560e01c80637368c64f116100b6578063c97be1801161006f578063c97be18014610476578063cbc0fb59146104a6578063d637533e146104cf578063f2fde38b146104fa578063f357dc0814610523578063f8bd130b1461056057610140565b80637368c64f14610352578063775db3251461037d578063784796f7146103ba5780638da5cb5b146103e3578063ad66e81d1461040e578063c90376e41461043957610140565b8063202046df11610108578063202046df1461024657806323a35de91461028357806353118659146102c05780635bfadb24146102e9578063657a1c1914610312578063715018a61461033b57610140565b80630301eb20146101455780630af79f791461017557806315b358e0146101b25780631794bb3c146101db5780631ddb1d3414610204575b600080fd5b61015f600480360381019061015a91906122e1565b61058b565b60405161016c919061236b565b60405180910390f35b34801561018157600080fd5b5061019c60048036038101906101979190612386565b610a59565b6040516101a9919061236b565b60405180910390f35b3480156101be57600080fd5b506101d960048036038101906101d491906123b3565b610abb565b005b3480156101e757600080fd5b5061020260048036038101906101fd91906123e0565b610b07565b005b34801561021057600080fd5b5061022b60048036038101906102269190612386565b610cd1565b60405161023d96959493929190612442565b60405180910390f35b34801561025257600080fd5b5061026d600480360381019061026891906124a3565b610d5d565b60405161027a919061236b565b60405180910390f35b34801561028f57600080fd5b506102aa60048036038101906102a591906123b3565b610d8e565b6040516102b791906125a1565b60405180910390f35b3480156102cc57600080fd5b506102e760048036038101906102e29190612386565b610e25565b005b3480156102f557600080fd5b50610310600480360381019061030b91906125c3565b610e37565b005b34801561031e57600080fd5b5061033960048036038101906103349190612386565b610f92565b005b34801561034757600080fd5b506103506110ec565b005b34801561035e57600080fd5b50610367611100565b604051610374919061236b565b60405180910390f35b34801561038957600080fd5b506103a4600480360381019061039f91906124a3565b61110d565b6040516103b1919061236b565b60405180910390f35b3480156103c657600080fd5b506103e160048036038101906103dc9190612603565b61113e565b005b3480156103ef57600080fd5b506103f86115b0565b6040516104059190612643565b60405180910390f35b34801561041a57600080fd5b506104236115da565b6040516104309190612643565b60405180910390f35b34801561044557600080fd5b50610460600480360381019061045b9190612386565b611600565b60405161046d919061236b565b60405180910390f35b610490600480360381019061048b919061265e565b611776565b60405161049d919061236b565b60405180910390f35b3480156104b257600080fd5b506104cd60048036038101906104c891906123b3565b61178f565b005b3480156104db57600080fd5b506104e46117db565b6040516104f1919061236b565b60405180910390f35b34801561050657600080fd5b50610521600480360381019061051c91906123b3565b6117e1565b005b34801561052f57600080fd5b5061054a600480360381019061054591906123b3565b611865565b60405161055791906125a1565b60405180910390f35b34801561056c57600080fd5b506105756118fc565b6040516105829190612643565b60405180910390f35b60008085116105cf576040517f08c379a00000000000000000000000000000000000000000000000000000000081526004016105c690612748565b60405180910390fd5b606754341015610614576040517f08c379a000000000000000000000000000000000000000000000000000000000815260040161060b906127da565b60405180910390fd5b61061d34611922565b60008673ffffffffffffffffffffffffffffffffffffffff166370a08231306040518263ffffffff1660e01b81526004016106589190612643565b602060405180830381865afa158015610675573d6000803e3d6000fd5b505050506040513d601f19601f82011682018060405250810190610699919061280f565b90506106c83330888a73ffffffffffffffffffffffffffffffffffffffff16611ad2909392919063ffffffff16565b610754818873ffffffffffffffffffffffffffffffffffffffff166370a08231306040518263ffffffff1660e01b81526004016107059190612643565b602060405180830381865afa158015610722573d6000803e3d6000fd5b505050506040513d601f19601f82011682018060405250810190610746919061280f565b611b5b90919063ffffffff16565b955060008611610799576040517f08c379a0000000000000000000000000000000000000000000000000000000008152600401610790906128ae565b60405180910390fd5b60686040518060c001604052808573ffffffffffffffffffffffffffffffffffffffff1681526020018973ffffffffffffffffffffffffffffffffffffffff1681526020018881526020018781526020018681526020016000815250908060018154018082558091505060019003906000526020600020906006020160009091909190915060008201518160000160006101000a81548173ffffffffffffffffffffffffffffffffffffffff021916908373ffffffffffffffffffffffffffffffffffffffff16021790555060208201518160010160006101000a81548173ffffffffffffffffffffffffffffffffffffffff021916908373ffffffffffffffffffffffffffffffffffffffff16021790555060408201518160020155606082015181600301556080820151816004015560a082015181600501555050606960008473ffffffffffffffffffffffffffffffffffffffff1673ffffffffffffffffffffffffffffffffffffffff168152602001908152602001600020600160688054905061092791906128fd565b9080600181540180825580915050600190039060005260206000200160009091909190915055606a60008873ffffffffffffffffffffffffffffffffffffffff1673ffffffffffffffffffffffffffffffffffffffff168152602001908152602001600020600160688054905061099e91906128fd565b90806001815401808255809150506001900390600052602060002001600090919091909150558273ffffffffffffffffffffffffffffffffffffffff168773ffffffffffffffffffffffffffffffffffffffff166001606880549050610a0491906128fd565b7f9b94a54ff0905d7c83f655ba8a718feacf00e2048041fb5e7ca3cdc59fd6e79089604051610a33919061236b565b60405180910390a46001606880549050610a4d91906128fd565b91505095945050505050565b600080610a6583611600565b90506000811115610ab057610aa860688481548110610a8757610a86612931565b5b90600052602060002090600602016005015482611b5b90919063ffffffff16565b915050610ab6565b60009150505b919050565b610ac3611b71565b80606560006101000a81548173ffffffffffffffffffffffffffffffffffffffff021916908373ffffffffffffffffffffffffffffffffffffffff16021790555050565b60008060019054906101000a900460ff16159050808015610b385750600160008054906101000a900460ff1660ff16105b80610b655750610b4730611bef565b158015610b645750600160008054906101000a900460ff1660ff16145b5b610ba4576040517f08c379a0000000000000000000000000000000000000000000000000000000008152600401610b9b906129d2565b60405180910390fd5b60016000806101000a81548160ff021916908360ff1602179055508015610be1576001600060016101000a81548160ff0219169083151502179055505b610be9611c12565b83606560006101000a81548173ffffffffffffffffffffffffffffffffffffffff021916908373ffffffffffffffffffffffffffffffffffffffff16021790555082606660006101000a81548173ffffffffffffffffffffffffffffffffffffffff021916908373ffffffffffffffffffffffffffffffffffffffff160217905550816067819055508015610ccb5760008060016101000a81548160ff0219169083151502179055507f7f26b83ff96e1f2b6a682f133852f6798a09c465da95921460cefb38474024986001604051610cc29190612a44565b60405180910390a15b50505050565b60688181548110610ce157600080fd5b90600052602060002090600602016000915090508060000160009054906101000a900473ffffffffffffffffffffffffffffffffffffffff16908060010160009054906101000a900473ffffffffffffffffffffffffffffffffffffffff16908060020154908060030154908060040154908060050154905086565b606a6020528160005260406000208181548110610d7957600080fd5b90600052602060002001600091509150505481565b6060606960008373ffffffffffffffffffffffffffffffffffffffff1673ffffffffffffffffffffffffffffffffffffffff168152602001908152602001600020805480602002602001604051908101604052809291908181526020018280548015610e1957602002820191906000526020600020905b815481526020019060010190808311610e05575b50505050509050919050565b610e2d611b71565b8060678190555050565b818060688054905011610e7f576040517f08c379a0000000000000000000000000000000000000000000000000000000008152600401610e7690612ad1565b60405180910390fd5b3373ffffffffffffffffffffffffffffffffffffffff1660688281548110610eaa57610ea9612931565b5b906000526020600020906006020160000160009054906101000a900473ffffffffffffffffffffffffffffffffffffffff1673ffffffffffffffffffffffffffffffffffffffff1614610f32576040517f08c379a0000000000000000000000000000000000000000000000000000000008152600401610f2990612b63565b60405180910390fd5b6000610f3d84610a59565b905082811015610f82576040517f08c379a0000000000000000000000000000000000000000000000000000000008152600401610f7990612bf5565b60405180910390fd5b610f8c8484611c6b565b50505050565b808060688054905011610fda576040517f08c379a0000000000000000000000000000000000000000000000000000000008152600401610fd190612ad1565b60405180910390fd5b3373ffffffffffffffffffffffffffffffffffffffff166068828154811061100557611004612931565b5b906000526020600020906006020160000160009054906101000a900473ffffffffffffffffffffffffffffffffffffffff1673ffffffffffffffffffffffffffffffffffffffff161461108d576040517f08c379a000000000000000000000000000000000000000000000000000000000815260040161108490612b63565b60405180910390fd5b600061109883610a59565b9050600081116110dd576040517f08c379a00000000000000000000000000000000000000000000000000000000081526004016110d490612c87565b60405180910390fd5b6110e78382611c6b565b505050565b6110f4611b71565b6110fe6000611df4565b565b6000606880549050905090565b6069602052816000526040600020818154811061112957600080fd5b90600052602060002001600091509150505481565b818060688054905011611186576040517f08c379a000000000000000000000000000000000000000000000000000000000815260040161117d90612ad1565b60405180910390fd5b3373ffffffffffffffffffffffffffffffffffffffff16606882815481106111b1576111b0612931565b5b906000526020600020906006020160000160009054906101000a900473ffffffffffffffffffffffffffffffffffffffff1673ffffffffffffffffffffffffffffffffffffffff1614611239576040517f08c379a000000000000000000000000000000000000000000000000000000000815260040161123090612b63565b60405180910390fd5b816068848154811061124e5761124d612931565b5b906000526020600020906006020160000160006101000a81548173ffffffffffffffffffffffffffffffffffffffff021916908373ffffffffffffffffffffffffffffffffffffffff160217905550606960008373ffffffffffffffffffffffffffffffffffffffff1673ffffffffffffffffffffffffffffffffffffffff1681526020019081526020016000208390806001815401808255809150506001900390600052602060002001600090919091909150556000606960003373ffffffffffffffffffffffffffffffffffffffff1673ffffffffffffffffffffffffffffffffffffffff168152602001908152602001600020805490509050600060018261135991906128fd565b90505b6001156114e95784606960003373ffffffffffffffffffffffffffffffffffffffff1673ffffffffffffffffffffffffffffffffffffffff16815260200190815260200160002082815481106113b5576113b4612931565b5b9060005260206000200154141561149257606960003373ffffffffffffffffffffffffffffffffffffffff1673ffffffffffffffffffffffffffffffffffffffff16815260200190815260200160002060018361141291906128fd565b8154811061142357611422612931565b5b9060005260206000200154606960003373ffffffffffffffffffffffffffffffffffffffff1673ffffffffffffffffffffffffffffffffffffffff168152602001908152602001600020828154811061147f5761147e612931565b5b90600052602060002001819055506114e9565b60008114156114d6576040517f08c379a00000000000000000000000000000000000000000000000000000000081526004016114cd90612d19565b60405180910390fd5b80806114e190612d39565b91505061135c565b606960003373ffffffffffffffffffffffffffffffffffffffff1673ffffffffffffffffffffffffffffffffffffffff16815260200190815260200160002080548061153857611537612d63565b5b600190038181906000526020600020016000905590558373ffffffffffffffffffffffffffffffffffffffff163373ffffffffffffffffffffffffffffffffffffffff16867f079a159bc2c4ed6aaee92c293d83b6527a380c127aca07f41d3ab4c590957f5660405160405180910390a45050505050565b6000603360009054906101000a900473ffffffffffffffffffffffffffffffffffffffff16905090565b606660009054906101000a900473ffffffffffffffffffffffffffffffffffffffff1681565b6000806068838154811061161757611616612931565b5b906000526020600020906006020160020154148061165a57506068828154811061164457611643612931565b5b9060005260206000209060060201600301544211155b156116685760009050611771565b60006116a26068848154811061168157611680612931565b5b90600052602060002090600602016003015442611b5b90919063ffffffff16565b9050606883815481106116b8576116b7612931565b5b90600052602060002090600602016004015481106116fe57606883815481106116e4576116e3612931565b5b906000526020600020906006020160020154915050611771565b61176d6068848154811061171557611714612931565b5b90600052602060002090600602016004015461175f836068878154811061173f5761173e612931565b5b906000526020600020906006020160020154611eba90919063ffffffff16565b611ed090919063ffffffff16565b9150505b919050565b6000611785858585853361058b565b9050949350505050565b611797611b71565b80606660006101000a81548173ffffffffffffffffffffffffffffffffffffffff021916908373ffffffffffffffffffffffffffffffffffffffff16021790555050565b60675481565b6117e9611b71565b600073ffffffffffffffffffffffffffffffffffffffff168173ffffffffffffffffffffffffffffffffffffffff161415611859576040517f08c379a000000000000000000000000000000000000000000000000000000000815260040161185090612e04565b60405180910390fd5b61186281611df4565b50565b6060606a60008373ffffffffffffffffffffffffffffffffffffffff1673ffffffffffffffffffffffffffffffffffffffff1681526020019081526020016000208054806020026020016040519081016040528092919081815260200182805480156118f057602002820191906000526020600020905b8154815260200190600101908083116118dc575b50505050509050919050565b606560009054906101000a900473ffffffffffffffffffffffffffffffffffffffff1681565b6000811115611acf57606660009054906101000a900473ffffffffffffffffffffffffffffffffffffffff1673ffffffffffffffffffffffffffffffffffffffff1663d0e30db0826040518263ffffffff1660e01b81526004016000604051808303818588803b15801561199557600080fd5b505af11580156119a9573d6000803e3d6000fd5b5050505050611a1d606560009054906101000a900473ffffffffffffffffffffffffffffffffffffffff1682606660009054906101000a900473ffffffffffffffffffffffffffffffffffffffff1673ffffffffffffffffffffffffffffffffffffffff16611ee69092919063ffffffff16565b606560009054906101000a900473ffffffffffffffffffffffffffffffffffffffff1673ffffffffffffffffffffffffffffffffffffffff1663a361e6e1606660009054906101000a900473ffffffffffffffffffffffffffffffffffffffff16836040518363ffffffff1660e01b8152600401611a9c929190612e24565b600060405180830381600087803b158015611ab657600080fd5b505af1158015611aca573d6000803e3d6000fd5b505050505b50565b611b55846323b872dd60e01b858585604051602401611af393929190612e4d565b604051602081830303815290604052907bffffffffffffffffffffffffffffffffffffffffffffffffffffffff19166020820180517bffffffffffffffffffffffffffffffffffffffffffffffffffffffff8381831617835250505050611f6c565b50505050565b60008183611b6991906128fd565b905092915050565b611b79612034565b73ffffffffffffffffffffffffffffffffffffffff16611b976115b0565b73ffffffffffffffffffffffffffffffffffffffff1614611bed576040517f08c379a0000000000000000000000000000000000000000000000000000000008152600401611be490612ed0565b60405180910390fd5b565b6000808273ffffffffffffffffffffffffffffffffffffffff163b119050919050565b600060019054906101000a900460ff16611c61576040517f08c379a0000000000000000000000000000000000000000000000000000000008152600401611c5890612f62565b60405180910390fd5b611c6961203c565b565b8060688381548110611c8057611c7f612931565b5b90600052602060002090600602016005016000828254611ca09190612f82565b92505081905550611d5c60688381548110611cbe57611cbd612931565b5b906000526020600020906006020160000160009054906101000a900473ffffffffffffffffffffffffffffffffffffffff168260688581548110611d0557611d04612931565b5b906000526020600020906006020160010160009054906101000a900473ffffffffffffffffffffffffffffffffffffffff1673ffffffffffffffffffffffffffffffffffffffff16611ee69092919063ffffffff16565b60688281548110611d7057611d6f612931565b5b906000526020600020906006020160010160009054906101000a900473ffffffffffffffffffffffffffffffffffffffff1673ffffffffffffffffffffffffffffffffffffffff16827fee2a18ee2bc0fe152d62f395feacb9dacb1e9f3fdb444b21ec9d6aadd81c6de783604051611de8919061236b565b60405180910390a35050565b6000603360009054906101000a900473ffffffffffffffffffffffffffffffffffffffff16905081603360006101000a81548173ffffffffffffffffffffffffffffffffffffffff021916908373ffffffffffffffffffffffffffffffffffffffff1602179055508173ffffffffffffffffffffffffffffffffffffffff168173ffffffffffffffffffffffffffffffffffffffff167f8be0079c531659141344cd1fd0a4f28419497f9722a3daafe3b4186f6b6457e060405160405180910390a35050565b60008183611ec89190612fd8565b905092915050565b60008183611ede9190613061565b905092915050565b611f678363a9059cbb60e01b8484604051602401611f05929190612e24565b604051602081830303815290604052907bffffffffffffffffffffffffffffffffffffffffffffffffffffffff19166020820180517bffffffffffffffffffffffffffffffffffffffffffffffffffffffff8381831617835250505050611f6c565b505050565b6000611fce826040518060400160405280602081526020017f5361666545524332303a206c6f772d6c6576656c2063616c6c206661696c65648152508573ffffffffffffffffffffffffffffffffffffffff1661209d9092919063ffffffff16565b9050600081511480611ff0575080806020019051810190611fef91906130ca565b5b61202f576040517f08c379a000000000000000000000000000000000000000000000000000000000815260040161202690613169565b60405180910390fd5b505050565b600033905090565b600060019054906101000a900460ff1661208b576040517f08c379a000000000000000000000000000000000000000000000000000000000815260040161208290612f62565b60405180910390fd5b61209b612096612034565b611df4565b565b60606120ac84846000856120b5565b90509392505050565b6060824710156120fa576040517f08c379a00000000000000000000000000000000000000000000000000000000081526004016120f1906131fb565b60405180910390fd5b6000808673ffffffffffffffffffffffffffffffffffffffff1685876040516121239190613295565b60006040518083038185875af1925050503d8060008114612160576040519150601f19603f3d011682016040523d82523d6000602084013e612165565b606091505b509150915061217687838387612182565b92505050949350505050565b606083156121e5576000835114156121dd5761219d85611bef565b6121dc576040517f08c379a00000000000000000000000000000000000000000000000000000000081526004016121d3906132f8565b60405180910390fd5b5b8290506121f0565b6121ef83836121f8565b5b949350505050565b60008251111561220b5781518083602001fd5b806040517f08c379a000000000000000000000000000000000000000000000000000000000815260040161223f919061336d565b60405180910390fd5b600080fd5b600073ffffffffffffffffffffffffffffffffffffffff82169050919050565b60006122788261224d565b9050919050565b6122888161226d565b811461229357600080fd5b50565b6000813590506122a58161227f565b92915050565b6000819050919050565b6122be816122ab565b81146122c957600080fd5b50565b6000813590506122db816122b5565b92915050565b600080600080600060a086880312156122fd576122fc612248565b5b600061230b88828901612296565b955050602061231c888289016122cc565b945050604061232d888289016122cc565b935050606061233e888289016122cc565b925050608061234f88828901612296565b9150509295509295909350565b612365816122ab565b82525050565b6000602082019050612380600083018461235c565b92915050565b60006020828403121561239c5761239b612248565b5b60006123aa848285016122cc565b91505092915050565b6000602082840312156123c9576123c8612248565b5b60006123d784828501612296565b91505092915050565b6000806000606084860312156123f9576123f8612248565b5b600061240786828701612296565b935050602061241886828701612296565b9250506040612429868287016122cc565b9150509250925092565b61243c8161226d565b82525050565b600060c0820190506124576000830189612433565b6124646020830188612433565b612471604083018761235c565b61247e606083018661235c565b61248b608083018561235c565b61249860a083018461235c565b979650505050505050565b600080604083850312156124ba576124b9612248565b5b60006124c885828601612296565b92505060206124d9858286016122cc565b9150509250929050565b600081519050919050565b600082825260208201905092915050565b6000819050602082019050919050565b612518816122ab565b82525050565b600061252a838361250f565b60208301905092915050565b6000602082019050919050565b600061254e826124e3565b61255881856124ee565b9350612563836124ff565b8060005b8381101561259457815161257b888261251e565b975061258683612536565b925050600181019050612567565b5085935050505092915050565b600060208201905081810360008301526125bb8184612543565b905092915050565b600080604083850312156125da576125d9612248565b5b60006125e8858286016122cc565b92505060206125f9858286016122cc565b9150509250929050565b6000806040838503121561261a57612619612248565b5b6000612628858286016122cc565b925050602061263985828601612296565b9150509250929050565b60006020820190506126586000830184612433565b92915050565b6000806000806080858703121561267857612677612248565b5b600061268687828801612296565b9450506020612697878288016122cc565b93505060406126a8878288016122cc565b92505060606126b9878288016122cc565b91505092959194509250565b600082825260208201905092915050565b7f505349506164546f6b656e4c6f636b466163746f72793a20414d4f554e545f5a60008201527f45524f0000000000000000000000000000000000000000000000000000000000602082015250565b60006127326023836126c5565b915061273d826126d6565b604082019050919050565b6000602082019050818103600083015261276181612725565b9050919050565b7f505349506164546f6b656e4c6f636b466163746f72793a204645455f4e4f545f60008201527f5041594544000000000000000000000000000000000000000000000000000000602082015250565b60006127c46025836126c5565b91506127cf82612768565b604082019050919050565b600060208201905081810360008301526127f3816127b7565b9050919050565b600081519050612809816122b5565b92915050565b60006020828403121561282557612824612248565b5b6000612833848285016127fa565b91505092915050565b7f505349506164546f6b656e4c6f636b466163746f72793a20414d4f554e545f5a60008201527f45524f5f41465445525f5452414e534645520000000000000000000000000000602082015250565b60006128986032836126c5565b91506128a38261283c565b604082019050919050565b600060208201905081810360008301526128c78161288b565b9050919050565b7f4e487b7100000000000000000000000000000000000000000000000000000000600052601160045260246000fd5b6000612908826122ab565b9150612913836122ab565b925082821015612926576129256128ce565b5b828203905092915050565b7f4e487b7100000000000000000000000000000000000000000000000000000000600052603260045260246000fd5b7f496e697469616c697a61626c653a20636f6e747261637420697320616c72656160008201527f647920696e697469616c697a6564000000000000000000000000000000000000602082015250565b60006129bc602e836126c5565b91506129c782612960565b604082019050919050565b600060208201905081810360008301526129eb816129af565b9050919050565b6000819050919050565b600060ff82169050919050565b6000819050919050565b6000612a2e612a29612a24846129f2565b612a09565b6129fc565b9050919050565b612a3e81612a13565b82525050565b6000602082019050612a596000830184612a35565b92915050565b7f505349506164546f6b656e4c6f636b466163746f72793a204c4f434b5f444f4560008201527f535f4e4f545f4558495354000000000000000000000000000000000000000000602082015250565b6000612abb602b836126c5565b9150612ac682612a5f565b604082019050919050565b60006020820190508181036000830152612aea81612aae565b9050919050565b7f505349506164546f6b656e4c6f636b466163746f72793a20554e415554484f5260008201527f495a454400000000000000000000000000000000000000000000000000000000602082015250565b6000612b4d6024836126c5565b9150612b5882612af1565b604082019050919050565b60006020820190508181036000830152612b7c81612b40565b9050919050565b7f505349506164546f6b656e4c6f636b466163746f72793a20414d4f554e545f5460008201527f4f5f484947485f4f525f4c4f434b454400000000000000000000000000000000602082015250565b6000612bdf6030836126c5565b9150612bea82612b83565b604082019050919050565b60006020820190508181036000830152612c0e81612bd2565b9050919050565b7f505349506164546f6b656e4c6f636b466163746f72793a204e4f5f414d4f554e60008201527f545f415641494c41424c45000000000000000000000000000000000000000000602082015250565b6000612c71602b836126c5565b9150612c7c82612c15565b604082019050919050565b60006020820190508181036000830152612ca081612c64565b9050919050565b7f505349506164546f6b656e4c6f636b466163746f72793a204f4c445f4f574e4560008201527f525f4e4f545f464f554e44000000000000000000000000000000000000000000602082015250565b6000612d03602b836126c5565b9150612d0e82612ca7565b604082019050919050565b60006020820190508181036000830152612d3281612cf6565b9050919050565b6000612d44826122ab565b91506000821415612d5857612d576128ce565b5b600182039050919050565b7f4e487b7100000000000000000000000000000000000000000000000000000000600052603160045260246000fd5b7f4f776e61626c653a206e6577206f776e657220697320746865207a65726f206160008201527f6464726573730000000000000000000000000000000000000000000000000000602082015250565b6000612dee6026836126c5565b9150612df982612d92565b604082019050919050565b60006020820190508181036000830152612e1d81612de1565b9050919050565b6000604082019050612e396000830185612433565b612e46602083018461235c565b9392505050565b6000606082019050612e626000830186612433565b612e6f6020830185612433565b612e7c604083018461235c565b949350505050565b7f4f776e61626c653a2063616c6c6572206973206e6f7420746865206f776e6572600082015250565b6000612eba6020836126c5565b9150612ec582612e84565b602082019050919050565b60006020820190508181036000830152612ee981612ead565b9050919050565b7f496e697469616c697a61626c653a20636f6e7472616374206973206e6f74206960008201527f6e697469616c697a696e67000000000000000000000000000000000000000000602082015250565b6000612f4c602b836126c5565b9150612f5782612ef0565b604082019050919050565b60006020820190508181036000830152612f7b81612f3f565b9050919050565b6000612f8d826122ab565b9150612f98836122ab565b9250827fffffffffffffffffffffffffffffffffffffffffffffffffffffffffffffffff03821115612fcd57612fcc6128ce565b5b828201905092915050565b6000612fe3826122ab565b9150612fee836122ab565b9250817fffffffffffffffffffffffffffffffffffffffffffffffffffffffffffffffff0483118215151615613027576130266128ce565b5b828202905092915050565b7f4e487b7100000000000000000000000000000000000000000000000000000000600052601260045260246000fd5b600061306c826122ab565b9150613077836122ab565b92508261308757613086613032565b5b828204905092915050565b60008115159050919050565b6130a781613092565b81146130b257600080fd5b50565b6000815190506130c48161309e565b92915050565b6000602082840312156130e0576130df612248565b5b60006130ee848285016130b5565b91505092915050565b7f5361666545524332303a204552433230206f7065726174696f6e20646964206e60008201527f6f74207375636365656400000000000000000000000000000000000000000000602082015250565b6000613153602a836126c5565b915061315e826130f7565b604082019050919050565b6000602082019050818103600083015261318281613146565b9050919050565b7f416464726573733a20696e73756666696369656e742062616c616e636520666f60008201527f722063616c6c0000000000000000000000000000000000000000000000000000602082015250565b60006131e56026836126c5565b91506131f082613189565b604082019050919050565b60006020820190508181036000830152613214816131d8565b9050919050565b600081519050919050565b600081905092915050565b60005b8381101561324f578082015181840152602081019050613234565b8381111561325e576000848401525b50505050565b600061326f8261321b565b6132798185613226565b9350613289818560208601613231565b80840191505092915050565b60006132a18284613264565b915081905092915050565b7f416464726573733a2063616c6c20746f206e6f6e2d636f6e7472616374000000600082015250565b60006132e2601d836126c5565b91506132ed826132ac565b602082019050919050565b60006020820190508181036000830152613311816132d5565b9050919050565b600081519050919050565b6000601f19601f8301169050919050565b600061333f82613318565b61334981856126c5565b9350613359818560208601613231565b61336281613323565b840191505092915050565b600060208201905081810360008301526133878184613334565b90509291505056fea26469706673582212207c5b5330a099cb490fc7dadfc1bad591da5fe25ce26324e07fc0348d8684124a64736f6c634300080c0033",
          "opcodes": "PUSH1 0x80 PUSH1 0x40 MSTORE CALLVALUE DUP1 ISZERO PUSH2 0x10 JUMPI PUSH1 0x0 DUP1 REVERT JUMPDEST POP PUSH2 0x33C5 DUP1 PUSH2 0x20 PUSH1 0x0 CODECOPY PUSH1 0x0 RETURN INVALID PUSH1 0x80 PUSH1 0x40 MSTORE PUSH1 0x4 CALLDATASIZE LT PUSH2 0x140 JUMPI PUSH1 0x0 CALLDATALOAD PUSH1 0xE0 SHR DUP1 PUSH4 0x7368C64F GT PUSH2 0xB6 JUMPI DUP1 PUSH4 0xC97BE180 GT PUSH2 0x6F JUMPI DUP1 PUSH4 0xC97BE180 EQ PUSH2 0x476 JUMPI DUP1 PUSH4 0xCBC0FB59 EQ PUSH2 0x4A6 JUMPI DUP1 PUSH4 0xD637533E EQ PUSH2 0x4CF JUMPI DUP1 PUSH4 0xF2FDE38B EQ PUSH2 0x4FA JUMPI DUP1 PUSH4 0xF357DC08 EQ PUSH2 0x523 JUMPI DUP1 PUSH4 0xF8BD130B EQ PUSH2 0x560 JUMPI PUSH2 0x140 JUMP JUMPDEST DUP1 PUSH4 0x7368C64F EQ PUSH2 0x352 JUMPI DUP1 PUSH4 0x775DB325 EQ PUSH2 0x37D JUMPI DUP1 PUSH4 0x784796F7 EQ PUSH2 0x3BA JUMPI DUP1 PUSH4 0x8DA5CB5B EQ PUSH2 0x3E3 JUMPI DUP1 PUSH4 0xAD66E81D EQ PUSH2 0x40E JUMPI DUP1 PUSH4 0xC90376E4 EQ PUSH2 0x439 JUMPI PUSH2 0x140 JUMP JUMPDEST DUP1 PUSH4 0x202046DF GT PUSH2 0x108 JUMPI DUP1 PUSH4 0x202046DF EQ PUSH2 0x246 JUMPI DUP1 PUSH4 0x23A35DE9 EQ PUSH2 0x283 JUMPI DUP1 PUSH4 0x53118659 EQ PUSH2 0x2C0 JUMPI DUP1 PUSH4 0x5BFADB24 EQ PUSH2 0x2E9 JUMPI DUP1 PUSH4 0x657A1C19 EQ PUSH2 0x312 JUMPI DUP1 PUSH4 0x715018A6 EQ PUSH2 0x33B JUMPI PUSH2 0x140 JUMP JUMPDEST DUP1 PUSH4 0x301EB20 EQ PUSH2 0x145 JUMPI DUP1 PUSH4 0xAF79F79 EQ PUSH2 0x175 JUMPI DUP1 PUSH4 0x15B358E0 EQ PUSH2 0x1B2 JUMPI DUP1 PUSH4 0x1794BB3C EQ PUSH2 0x1DB JUMPI DUP1 PUSH4 0x1DDB1D34 EQ PUSH2 0x204 JUMPI JUMPDEST PUSH1 0x0 DUP1 REVERT JUMPDEST PUSH2 0x15F PUSH1 0x4 DUP1 CALLDATASIZE SUB DUP2 ADD SWAP1 PUSH2 0x15A SWAP2 SWAP1 PUSH2 0x22E1 JUMP JUMPDEST PUSH2 0x58B JUMP JUMPDEST PUSH1 0x40 MLOAD PUSH2 0x16C SWAP2 SWAP1 PUSH2 0x236B JUMP JUMPDEST PUSH1 0x40 MLOAD DUP1 SWAP2 SUB SWAP1 RETURN JUMPDEST CALLVALUE DUP1 ISZERO PUSH2 0x181 JUMPI PUSH1 0x0 DUP1 REVERT JUMPDEST POP PUSH2 0x19C PUSH1 0x4 DUP1 CALLDATASIZE SUB DUP2 ADD SWAP1 PUSH2 0x197 SWAP2 SWAP1 PUSH2 0x2386 JUMP JUMPDEST PUSH2 0xA59 JUMP JUMPDEST PUSH1 0x40 MLOAD PUSH2 0x1A9 SWAP2 SWAP1 PUSH2 0x236B JUMP JUMPDEST PUSH1 0x40 MLOAD DUP1 SWAP2 SUB SWAP1 RETURN JUMPDEST CALLVALUE DUP1 ISZERO PUSH2 0x1BE JUMPI PUSH1 0x0 DUP1 REVERT JUMPDEST POP PUSH2 0x1D9 PUSH1 0x4 DUP1 CALLDATASIZE SUB DUP2 ADD SWAP1 PUSH2 0x1D4 SWAP2 SWAP1 PUSH2 0x23B3 JUMP JUMPDEST PUSH2 0xABB JUMP JUMPDEST STOP JUMPDEST CALLVALUE DUP1 ISZERO PUSH2 0x1E7 JUMPI PUSH1 0x0 DUP1 REVERT JUMPDEST POP PUSH2 0x202 PUSH1 0x4 DUP1 CALLDATASIZE SUB DUP2 ADD SWAP1 PUSH2 0x1FD SWAP2 SWAP1 PUSH2 0x23E0 JUMP JUMPDEST PUSH2 0xB07 JUMP JUMPDEST STOP JUMPDEST CALLVALUE DUP1 ISZERO PUSH2 0x210 JUMPI PUSH1 0x0 DUP1 REVERT JUMPDEST POP PUSH2 0x22B PUSH1 0x4 DUP1 CALLDATASIZE SUB DUP2 ADD SWAP1 PUSH2 0x226 SWAP2 SWAP1 PUSH2 0x2386 JUMP JUMPDEST PUSH2 0xCD1 JUMP JUMPDEST PUSH1 0x40 MLOAD PUSH2 0x23D SWAP7 SWAP6 SWAP5 SWAP4 SWAP3 SWAP2 SWAP1 PUSH2 0x2442 JUMP JUMPDEST PUSH1 0x40 MLOAD DUP1 SWAP2 SUB SWAP1 RETURN JUMPDEST CALLVALUE DUP1 ISZERO PUSH2 0x252 JUMPI PUSH1 0x0 DUP1 REVERT JUMPDEST POP PUSH2 0x26D PUSH1 0x4 DUP1 CALLDATASIZE SUB DUP2 ADD SWAP1 PUSH2 0x268 SWAP2 SWAP1 PUSH2 0x24A3 JUMP JUMPDEST PUSH2 0xD5D JUMP JUMPDEST PUSH1 0x40 MLOAD PUSH2 0x27A SWAP2 SWAP1 PUSH2 0x236B JUMP JUMPDEST PUSH1 0x40 MLOAD DUP1 SWAP2 SUB SWAP1 RETURN JUMPDEST CALLVALUE DUP1 ISZERO PUSH2 0x28F JUMPI PUSH1 0x0 DUP1 REVERT JUMPDEST POP PUSH2 0x2AA PUSH1 0x4 DUP1 CALLDATASIZE SUB DUP2 ADD SWAP1 PUSH2 0x2A5 SWAP2 SWAP1 PUSH2 0x23B3 JUMP JUMPDEST PUSH2 0xD8E JUMP JUMPDEST PUSH1 0x40 MLOAD PUSH2 0x2B7 SWAP2 SWAP1 PUSH2 0x25A1 JUMP JUMPDEST PUSH1 0x40 MLOAD DUP1 SWAP2 SUB SWAP1 RETURN JUMPDEST CALLVALUE DUP1 ISZERO PUSH2 0x2CC JUMPI PUSH1 0x0 DUP1 REVERT JUMPDEST POP PUSH2 0x2E7 PUSH1 0x4 DUP1 CALLDATASIZE SUB DUP2 ADD SWAP1 PUSH2 0x2E2 SWAP2 SWAP1 PUSH2 0x2386 JUMP JUMPDEST PUSH2 0xE25 JUMP JUMPDEST STOP JUMPDEST CALLVALUE DUP1 ISZERO PUSH2 0x2F5 JUMPI PUSH1 0x0 DUP1 REVERT JUMPDEST POP PUSH2 0x310 PUSH1 0x4 DUP1 CALLDATASIZE SUB DUP2 ADD SWAP1 PUSH2 0x30B SWAP2 SWAP1 PUSH2 0x25C3 JUMP JUMPDEST PUSH2 0xE37 JUMP JUMPDEST STOP JUMPDEST CALLVALUE DUP1 ISZERO PUSH2 0x31E JUMPI PUSH1 0x0 DUP1 REVERT JUMPDEST POP PUSH2 0x339 PUSH1 0x4 DUP1 CALLDATASIZE SUB DUP2 ADD SWAP1 PUSH2 0x334 SWAP2 SWAP1 PUSH2 0x2386 JUMP JUMPDEST PUSH2 0xF92 JUMP JUMPDEST STOP JUMPDEST CALLVALUE DUP1 ISZERO PUSH2 0x347 JUMPI PUSH1 0x0 DUP1 REVERT JUMPDEST POP PUSH2 0x350 PUSH2 0x10EC JUMP JUMPDEST STOP JUMPDEST CALLVALUE DUP1 ISZERO PUSH2 0x35E JUMPI PUSH1 0x0 DUP1 REVERT JUMPDEST POP PUSH2 0x367 PUSH2 0x1100 JUMP JUMPDEST PUSH1 0x40 MLOAD PUSH2 0x374 SWAP2 SWAP1 PUSH2 0x236B JUMP JUMPDEST PUSH1 0x40 MLOAD DUP1 SWAP2 SUB SWAP1 RETURN JUMPDEST CALLVALUE DUP1 ISZERO PUSH2 0x389 JUMPI PUSH1 0x0 DUP1 REVERT JUMPDEST POP PUSH2 0x3A4 PUSH1 0x4 DUP1 CALLDATASIZE SUB DUP2 ADD SWAP1 PUSH2 0x39F SWAP2 SWAP1 PUSH2 0x24A3 JUMP JUMPDEST PUSH2 0x110D JUMP JUMPDEST PUSH1 0x40 MLOAD PUSH2 0x3B1 SWAP2 SWAP1 PUSH2 0x236B JUMP JUMPDEST PUSH1 0x40 MLOAD DUP1 SWAP2 SUB SWAP1 RETURN JUMPDEST CALLVALUE DUP1 ISZERO PUSH2 0x3C6 JUMPI PUSH1 0x0 DUP1 REVERT JUMPDEST POP PUSH2 0x3E1 PUSH1 0x4 DUP1 CALLDATASIZE SUB DUP2 ADD SWAP1 PUSH2 0x3DC SWAP2 SWAP1 PUSH2 0x2603 JUMP JUMPDEST PUSH2 0x113E JUMP JUMPDEST STOP JUMPDEST CALLVALUE DUP1 ISZERO PUSH2 0x3EF JUMPI PUSH1 0x0 DUP1 REVERT JUMPDEST POP PUSH2 0x3F8 PUSH2 0x15B0 JUMP JUMPDEST PUSH1 0x40 MLOAD PUSH2 0x405 SWAP2 SWAP1 PUSH2 0x2643 JUMP JUMPDEST PUSH1 0x40 MLOAD DUP1 SWAP2 SUB SWAP1 RETURN JUMPDEST CALLVALUE DUP1 ISZERO PUSH2 0x41A JUMPI PUSH1 0x0 DUP1 REVERT JUMPDEST POP PUSH2 0x423 PUSH2 0x15DA JUMP JUMPDEST PUSH1 0x40 MLOAD PUSH2 0x430 SWAP2 SWAP1 PUSH2 0x2643 JUMP JUMPDEST PUSH1 0x40 MLOAD DUP1 SWAP2 SUB SWAP1 RETURN JUMPDEST CALLVALUE DUP1 ISZERO PUSH2 0x445 JUMPI PUSH1 0x0 DUP1 REVERT JUMPDEST POP PUSH2 0x460 PUSH1 0x4 DUP1 CALLDATASIZE SUB DUP2 ADD SWAP1 PUSH2 0x45B SWAP2 SWAP1 PUSH2 0x2386 JUMP JUMPDEST PUSH2 0x1600 JUMP JUMPDEST PUSH1 0x40 MLOAD PUSH2 0x46D SWAP2 SWAP1 PUSH2 0x236B JUMP JUMPDEST PUSH1 0x40 MLOAD DUP1 SWAP2 SUB SWAP1 RETURN JUMPDEST PUSH2 0x490 PUSH1 0x4 DUP1 CALLDATASIZE SUB DUP2 ADD SWAP1 PUSH2 0x48B SWAP2 SWAP1 PUSH2 0x265E JUMP JUMPDEST PUSH2 0x1776 JUMP JUMPDEST PUSH1 0x40 MLOAD PUSH2 0x49D SWAP2 SWAP1 PUSH2 0x236B JUMP JUMPDEST PUSH1 0x40 MLOAD DUP1 SWAP2 SUB SWAP1 RETURN JUMPDEST CALLVALUE DUP1 ISZERO PUSH2 0x4B2 JUMPI PUSH1 0x0 DUP1 REVERT JUMPDEST POP PUSH2 0x4CD PUSH1 0x4 DUP1 CALLDATASIZE SUB DUP2 ADD SWAP1 PUSH2 0x4C8 SWAP2 SWAP1 PUSH2 0x23B3 JUMP JUMPDEST PUSH2 0x178F JUMP JUMPDEST STOP JUMPDEST CALLVALUE DUP1 ISZERO PUSH2 0x4DB JUMPI PUSH1 0x0 DUP1 REVERT JUMPDEST POP PUSH2 0x4E4 PUSH2 0x17DB JUMP JUMPDEST PUSH1 0x40 MLOAD PUSH2 0x4F1 SWAP2 SWAP1 PUSH2 0x236B JUMP JUMPDEST PUSH1 0x40 MLOAD DUP1 SWAP2 SUB SWAP1 RETURN JUMPDEST CALLVALUE DUP1 ISZERO PUSH2 0x506 JUMPI PUSH1 0x0 DUP1 REVERT JUMPDEST POP PUSH2 0x521 PUSH1 0x4 DUP1 CALLDATASIZE SUB DUP2 ADD SWAP1 PUSH2 0x51C SWAP2 SWAP1 PUSH2 0x23B3 JUMP JUMPDEST PUSH2 0x17E1 JUMP JUMPDEST STOP JUMPDEST CALLVALUE DUP1 ISZERO PUSH2 0x52F JUMPI PUSH1 0x0 DUP1 REVERT JUMPDEST POP PUSH2 0x54A PUSH1 0x4 DUP1 CALLDATASIZE SUB DUP2 ADD SWAP1 PUSH2 0x545 SWAP2 SWAP1 PUSH2 0x23B3 JUMP JUMPDEST PUSH2 0x1865 JUMP JUMPDEST PUSH1 0x40 MLOAD PUSH2 0x557 SWAP2 SWAP1 PUSH2 0x25A1 JUMP JUMPDEST PUSH1 0x40 MLOAD DUP1 SWAP2 SUB SWAP1 RETURN JUMPDEST CALLVALUE DUP1 ISZERO PUSH2 0x56C JUMPI PUSH1 0x0 DUP1 REVERT JUMPDEST POP PUSH2 0x575 PUSH2 0x18FC JUMP JUMPDEST PUSH1 0x40 MLOAD PUSH2 0x582 SWAP2 SWAP1 PUSH2 0x2643 JUMP JUMPDEST PUSH1 0x40 MLOAD DUP1 SWAP2 SUB SWAP1 RETURN JUMPDEST PUSH1 0x0 DUP1 DUP6 GT PUSH2 0x5CF JUMPI PUSH1 0x40 MLOAD PUSH32 0x8C379A000000000000000000000000000000000000000000000000000000000 DUP2 MSTORE PUSH1 0x4 ADD PUSH2 0x5C6 SWAP1 PUSH2 0x2748 JUMP JUMPDEST PUSH1 0x40 MLOAD DUP1 SWAP2 SUB SWAP1 REVERT JUMPDEST PUSH1 0x67 SLOAD CALLVALUE LT ISZERO PUSH2 0x614 JUMPI PUSH1 0x40 MLOAD PUSH32 0x8C379A000000000000000000000000000000000000000000000000000000000 DUP2 MSTORE PUSH1 0x4 ADD PUSH2 0x60B SWAP1 PUSH2 0x27DA JUMP JUMPDEST PUSH1 0x40 MLOAD DUP1 SWAP2 SUB SWAP1 REVERT JUMPDEST PUSH2 0x61D CALLVALUE PUSH2 0x1922 JUMP JUMPDEST PUSH1 0x0 DUP7 PUSH20 0xFFFFFFFFFFFFFFFFFFFFFFFFFFFFFFFFFFFFFFFF AND PUSH4 0x70A08231 ADDRESS PUSH1 0x40 MLOAD DUP3 PUSH4 0xFFFFFFFF AND PUSH1 0xE0 SHL DUP2 MSTORE PUSH1 0x4 ADD PUSH2 0x658 SWAP2 SWAP1 PUSH2 0x2643 JUMP JUMPDEST PUSH1 0x20 PUSH1 0x40 MLOAD DUP1 DUP4 SUB DUP2 DUP7 GAS STATICCALL ISZERO DUP1 ISZERO PUSH2 0x675 JUMPI RETURNDATASIZE PUSH1 0x0 DUP1 RETURNDATACOPY RETURNDATASIZE PUSH1 0x0 REVERT JUMPDEST POP POP POP POP PUSH1 0x40 MLOAD RETURNDATASIZE PUSH1 0x1F NOT PUSH1 0x1F DUP3 ADD AND DUP3 ADD DUP1 PUSH1 0x40 MSTORE POP DUP2 ADD SWAP1 PUSH2 0x699 SWAP2 SWAP1 PUSH2 0x280F JUMP JUMPDEST SWAP1 POP PUSH2 0x6C8 CALLER ADDRESS DUP9 DUP11 PUSH20 0xFFFFFFFFFFFFFFFFFFFFFFFFFFFFFFFFFFFFFFFF AND PUSH2 0x1AD2 SWAP1 SWAP4 SWAP3 SWAP2 SWAP1 PUSH4 0xFFFFFFFF AND JUMP JUMPDEST PUSH2 0x754 DUP2 DUP9 PUSH20 0xFFFFFFFFFFFFFFFFFFFFFFFFFFFFFFFFFFFFFFFF AND PUSH4 0x70A08231 ADDRESS PUSH1 0x40 MLOAD DUP3 PUSH4 0xFFFFFFFF AND PUSH1 0xE0 SHL DUP2 MSTORE PUSH1 0x4 ADD PUSH2 0x705 SWAP2 SWAP1 PUSH2 0x2643 JUMP JUMPDEST PUSH1 0x20 PUSH1 0x40 MLOAD DUP1 DUP4 SUB DUP2 DUP7 GAS STATICCALL ISZERO DUP1 ISZERO PUSH2 0x722 JUMPI RETURNDATASIZE PUSH1 0x0 DUP1 RETURNDATACOPY RETURNDATASIZE PUSH1 0x0 REVERT JUMPDEST POP POP POP POP PUSH1 0x40 MLOAD RETURNDATASIZE PUSH1 0x1F NOT PUSH1 0x1F DUP3 ADD AND DUP3 ADD DUP1 PUSH1 0x40 MSTORE POP DUP2 ADD SWAP1 PUSH2 0x746 SWAP2 SWAP1 PUSH2 0x280F JUMP JUMPDEST PUSH2 0x1B5B SWAP1 SWAP2 SWAP1 PUSH4 0xFFFFFFFF AND JUMP JUMPDEST SWAP6 POP PUSH1 0x0 DUP7 GT PUSH2 0x799 JUMPI PUSH1 0x40 MLOAD PUSH32 0x8C379A000000000000000000000000000000000000000000000000000000000 DUP2 MSTORE PUSH1 0x4 ADD PUSH2 0x790 SWAP1 PUSH2 0x28AE JUMP JUMPDEST PUSH1 0x40 MLOAD DUP1 SWAP2 SUB SWAP1 REVERT JUMPDEST PUSH1 0x68 PUSH1 0x40 MLOAD DUP1 PUSH1 0xC0 ADD PUSH1 0x40 MSTORE DUP1 DUP6 PUSH20 0xFFFFFFFFFFFFFFFFFFFFFFFFFFFFFFFFFFFFFFFF AND DUP2 MSTORE PUSH1 0x20 ADD DUP10 PUSH20 0xFFFFFFFFFFFFFFFFFFFFFFFFFFFFFFFFFFFFFFFF AND DUP2 MSTORE PUSH1 0x20 ADD DUP9 DUP2 MSTORE PUSH1 0x20 ADD DUP8 DUP2 MSTORE PUSH1 0x20 ADD DUP7 DUP2 MSTORE PUSH1 0x20 ADD PUSH1 0x0 DUP2 MSTORE POP SWAP1 DUP1 PUSH1 0x1 DUP2 SLOAD ADD DUP1 DUP3 SSTORE DUP1 SWAP2 POP POP PUSH1 0x1 SWAP1 SUB SWAP1 PUSH1 0x0 MSTORE PUSH1 0x20 PUSH1 0x0 KECCAK256 SWAP1 PUSH1 0x6 MUL ADD PUSH1 0x0 SWAP1 SWAP2 SWAP1 SWAP2 SWAP1 SWAP2 POP PUSH1 0x0 DUP3 ADD MLOAD DUP2 PUSH1 0x0 ADD PUSH1 0x0 PUSH2 0x100 EXP DUP2 SLOAD DUP2 PUSH20 0xFFFFFFFFFFFFFFFFFFFFFFFFFFFFFFFFFFFFFFFF MUL NOT AND SWAP1 DUP4 PUSH20 0xFFFFFFFFFFFFFFFFFFFFFFFFFFFFFFFFFFFFFFFF AND MUL OR SWAP1 SSTORE POP PUSH1 0x20 DUP3 ADD MLOAD DUP2 PUSH1 0x1 ADD PUSH1 0x0 PUSH2 0x100 EXP DUP2 SLOAD DUP2 PUSH20 0xFFFFFFFFFFFFFFFFFFFFFFFFFFFFFFFFFFFFFFFF MUL NOT AND SWAP1 DUP4 PUSH20 0xFFFFFFFFFFFFFFFFFFFFFFFFFFFFFFFFFFFFFFFF AND MUL OR SWAP1 SSTORE POP PUSH1 0x40 DUP3 ADD MLOAD DUP2 PUSH1 0x2 ADD SSTORE PUSH1 0x60 DUP3 ADD MLOAD DUP2 PUSH1 0x3 ADD SSTORE PUSH1 0x80 DUP3 ADD MLOAD DUP2 PUSH1 0x4 ADD SSTORE PUSH1 0xA0 DUP3 ADD MLOAD DUP2 PUSH1 0x5 ADD SSTORE POP POP PUSH1 0x69 PUSH1 0x0 DUP5 PUSH20 0xFFFFFFFFFFFFFFFFFFFFFFFFFFFFFFFFFFFFFFFF AND PUSH20 0xFFFFFFFFFFFFFFFFFFFFFFFFFFFFFFFFFFFFFFFF AND DUP2 MSTORE PUSH1 0x20 ADD SWAP1 DUP2 MSTORE PUSH1 0x20 ADD PUSH1 0x0 KECCAK256 PUSH1 0x1 PUSH1 0x68 DUP1 SLOAD SWAP1 POP PUSH2 0x927 SWAP2 SWAP1 PUSH2 0x28FD JUMP JUMPDEST SWAP1 DUP1 PUSH1 0x1 DUP2 SLOAD ADD DUP1 DUP3 SSTORE DUP1 SWAP2 POP POP PUSH1 0x1 SWAP1 SUB SWAP1 PUSH1 0x0 MSTORE PUSH1 0x20 PUSH1 0x0 KECCAK256 ADD PUSH1 0x0 SWAP1 SWAP2 SWAP1 SWAP2 SWAP1 SWAP2 POP SSTORE PUSH1 0x6A PUSH1 0x0 DUP9 PUSH20 0xFFFFFFFFFFFFFFFFFFFFFFFFFFFFFFFFFFFFFFFF AND PUSH20 0xFFFFFFFFFFFFFFFFFFFFFFFFFFFFFFFFFFFFFFFF AND DUP2 MSTORE PUSH1 0x20 ADD SWAP1 DUP2 MSTORE PUSH1 0x20 ADD PUSH1 0x0 KECCAK256 PUSH1 0x1 PUSH1 0x68 DUP1 SLOAD SWAP1 POP PUSH2 0x99E SWAP2 SWAP1 PUSH2 0x28FD JUMP JUMPDEST SWAP1 DUP1 PUSH1 0x1 DUP2 SLOAD ADD DUP1 DUP3 SSTORE DUP1 SWAP2 POP POP PUSH1 0x1 SWAP1 SUB SWAP1 PUSH1 0x0 MSTORE PUSH1 0x20 PUSH1 0x0 KECCAK256 ADD PUSH1 0x0 SWAP1 SWAP2 SWAP1 SWAP2 SWAP1 SWAP2 POP SSTORE DUP3 PUSH20 0xFFFFFFFFFFFFFFFFFFFFFFFFFFFFFFFFFFFFFFFF AND DUP8 PUSH20 0xFFFFFFFFFFFFFFFFFFFFFFFFFFFFFFFFFFFFFFFF AND PUSH1 0x1 PUSH1 0x68 DUP1 SLOAD SWAP1 POP PUSH2 0xA04 SWAP2 SWAP1 PUSH2 0x28FD JUMP JUMPDEST PUSH32 0x9B94A54FF0905D7C83F655BA8A718FEACF00E2048041FB5E7CA3CDC59FD6E790 DUP10 PUSH1 0x40 MLOAD PUSH2 0xA33 SWAP2 SWAP1 PUSH2 0x236B JUMP JUMPDEST PUSH1 0x40 MLOAD DUP1 SWAP2 SUB SWAP1 LOG4 PUSH1 0x1 PUSH1 0x68 DUP1 SLOAD SWAP1 POP PUSH2 0xA4D SWAP2 SWAP1 PUSH2 0x28FD JUMP JUMPDEST SWAP2 POP POP SWAP6 SWAP5 POP POP POP POP POP JUMP JUMPDEST PUSH1 0x0 DUP1 PUSH2 0xA65 DUP4 PUSH2 0x1600 JUMP JUMPDEST SWAP1 POP PUSH1 0x0 DUP2 GT ISZERO PUSH2 0xAB0 JUMPI PUSH2 0xAA8 PUSH1 0x68 DUP5 DUP2 SLOAD DUP2 LT PUSH2 0xA87 JUMPI PUSH2 0xA86 PUSH2 0x2931 JUMP JUMPDEST JUMPDEST SWAP1 PUSH1 0x0 MSTORE PUSH1 0x20 PUSH1 0x0 KECCAK256 SWAP1 PUSH1 0x6 MUL ADD PUSH1 0x5 ADD SLOAD DUP3 PUSH2 0x1B5B SWAP1 SWAP2 SWAP1 PUSH4 0xFFFFFFFF AND JUMP JUMPDEST SWAP2 POP POP PUSH2 0xAB6 JUMP JUMPDEST PUSH1 0x0 SWAP2 POP POP JUMPDEST SWAP2 SWAP1 POP JUMP JUMPDEST PUSH2 0xAC3 PUSH2 0x1B71 JUMP JUMPDEST DUP1 PUSH1 0x65 PUSH1 0x0 PUSH2 0x100 EXP DUP2 SLOAD DUP2 PUSH20 0xFFFFFFFFFFFFFFFFFFFFFFFFFFFFFFFFFFFFFFFF MUL NOT AND SWAP1 DUP4 PUSH20 0xFFFFFFFFFFFFFFFFFFFFFFFFFFFFFFFFFFFFFFFF AND MUL OR SWAP1 SSTORE POP POP JUMP JUMPDEST PUSH1 0x0 DUP1 PUSH1 0x1 SWAP1 SLOAD SWAP1 PUSH2 0x100 EXP SWAP1 DIV PUSH1 0xFF AND ISZERO SWAP1 POP DUP1 DUP1 ISZERO PUSH2 0xB38 JUMPI POP PUSH1 0x1 PUSH1 0x0 DUP1 SLOAD SWAP1 PUSH2 0x100 EXP SWAP1 DIV PUSH1 0xFF AND PUSH1 0xFF AND LT JUMPDEST DUP1 PUSH2 0xB65 JUMPI POP PUSH2 0xB47 ADDRESS PUSH2 0x1BEF JUMP JUMPDEST ISZERO DUP1 ISZERO PUSH2 0xB64 JUMPI POP PUSH1 0x1 PUSH1 0x0 DUP1 SLOAD SWAP1 PUSH2 0x100 EXP SWAP1 DIV PUSH1 0xFF AND PUSH1 0xFF AND EQ JUMPDEST JUMPDEST PUSH2 0xBA4 JUMPI PUSH1 0x40 MLOAD PUSH32 0x8C379A000000000000000000000000000000000000000000000000000000000 DUP2 MSTORE PUSH1 0x4 ADD PUSH2 0xB9B SWAP1 PUSH2 0x29D2 JUMP JUMPDEST PUSH1 0x40 MLOAD DUP1 SWAP2 SUB SWAP1 REVERT JUMPDEST PUSH1 0x1 PUSH1 0x0 DUP1 PUSH2 0x100 EXP DUP2 SLOAD DUP2 PUSH1 0xFF MUL NOT AND SWAP1 DUP4 PUSH1 0xFF AND MUL OR SWAP1 SSTORE POP DUP1 ISZERO PUSH2 0xBE1 JUMPI PUSH1 0x1 PUSH1 0x0 PUSH1 0x1 PUSH2 0x100 EXP DUP2 SLOAD DUP2 PUSH1 0xFF MUL NOT AND SWAP1 DUP4 ISZERO ISZERO MUL OR SWAP1 SSTORE POP JUMPDEST PUSH2 0xBE9 PUSH2 0x1C12 JUMP JUMPDEST DUP4 PUSH1 0x65 PUSH1 0x0 PUSH2 0x100 EXP DUP2 SLOAD DUP2 PUSH20 0xFFFFFFFFFFFFFFFFFFFFFFFFFFFFFFFFFFFFFFFF MUL NOT AND SWAP1 DUP4 PUSH20 0xFFFFFFFFFFFFFFFFFFFFFFFFFFFFFFFFFFFFFFFF AND MUL OR SWAP1 SSTORE POP DUP3 PUSH1 0x66 PUSH1 0x0 PUSH2 0x100 EXP DUP2 SLOAD DUP2 PUSH20 0xFFFFFFFFFFFFFFFFFFFFFFFFFFFFFFFFFFFFFFFF MUL NOT AND SWAP1 DUP4 PUSH20 0xFFFFFFFFFFFFFFFFFFFFFFFFFFFFFFFFFFFFFFFF AND MUL OR SWAP1 SSTORE POP DUP2 PUSH1 0x67 DUP2 SWAP1 SSTORE POP DUP1 ISZERO PUSH2 0xCCB JUMPI PUSH1 0x0 DUP1 PUSH1 0x1 PUSH2 0x100 EXP DUP2 SLOAD DUP2 PUSH1 0xFF MUL NOT AND SWAP1 DUP4 ISZERO ISZERO MUL OR SWAP1 SSTORE POP PUSH32 0x7F26B83FF96E1F2B6A682F133852F6798A09C465DA95921460CEFB3847402498 PUSH1 0x1 PUSH1 0x40 MLOAD PUSH2 0xCC2 SWAP2 SWAP1 PUSH2 0x2A44 JUMP JUMPDEST PUSH1 0x40 MLOAD DUP1 SWAP2 SUB SWAP1 LOG1 JUMPDEST POP POP POP POP JUMP JUMPDEST PUSH1 0x68 DUP2 DUP2 SLOAD DUP2 LT PUSH2 0xCE1 JUMPI PUSH1 0x0 DUP1 REVERT JUMPDEST SWAP1 PUSH1 0x0 MSTORE PUSH1 0x20 PUSH1 0x0 KECCAK256 SWAP1 PUSH1 0x6 MUL ADD PUSH1 0x0 SWAP2 POP SWAP1 POP DUP1 PUSH1 0x0 ADD PUSH1 0x0 SWAP1 SLOAD SWAP1 PUSH2 0x100 EXP SWAP1 DIV PUSH20 0xFFFFFFFFFFFFFFFFFFFFFFFFFFFFFFFFFFFFFFFF AND SWAP1 DUP1 PUSH1 0x1 ADD PUSH1 0x0 SWAP1 SLOAD SWAP1 PUSH2 0x100 EXP SWAP1 DIV PUSH20 0xFFFFFFFFFFFFFFFFFFFFFFFFFFFFFFFFFFFFFFFF AND SWAP1 DUP1 PUSH1 0x2 ADD SLOAD SWAP1 DUP1 PUSH1 0x3 ADD SLOAD SWAP1 DUP1 PUSH1 0x4 ADD SLOAD SWAP1 DUP1 PUSH1 0x5 ADD SLOAD SWAP1 POP DUP7 JUMP JUMPDEST PUSH1 0x6A PUSH1 0x20 MSTORE DUP2 PUSH1 0x0 MSTORE PUSH1 0x40 PUSH1 0x0 KECCAK256 DUP2 DUP2 SLOAD DUP2 LT PUSH2 0xD79 JUMPI PUSH1 0x0 DUP1 REVERT JUMPDEST SWAP1 PUSH1 0x0 MSTORE PUSH1 0x20 PUSH1 0x0 KECCAK256 ADD PUSH1 0x0 SWAP2 POP SWAP2 POP POP SLOAD DUP2 JUMP JUMPDEST PUSH1 0x60 PUSH1 0x69 PUSH1 0x0 DUP4 PUSH20 0xFFFFFFFFFFFFFFFFFFFFFFFFFFFFFFFFFFFFFFFF AND PUSH20 0xFFFFFFFFFFFFFFFFFFFFFFFFFFFFFFFFFFFFFFFF AND DUP2 MSTORE PUSH1 0x20 ADD SWAP1 DUP2 MSTORE PUSH1 0x20 ADD PUSH1 0x0 KECCAK256 DUP1 SLOAD DUP1 PUSH1 0x20 MUL PUSH1 0x20 ADD PUSH1 0x40 MLOAD SWAP1 DUP2 ADD PUSH1 0x40 MSTORE DUP1 SWAP3 SWAP2 SWAP1 DUP2 DUP2 MSTORE PUSH1 0x20 ADD DUP3 DUP1 SLOAD DUP1 ISZERO PUSH2 0xE19 JUMPI PUSH1 0x20 MUL DUP3 ADD SWAP2 SWAP1 PUSH1 0x0 MSTORE PUSH1 0x20 PUSH1 0x0 KECCAK256 SWAP1 JUMPDEST DUP2 SLOAD DUP2 MSTORE PUSH1 0x20 ADD SWAP1 PUSH1 0x1 ADD SWAP1 DUP1 DUP4 GT PUSH2 0xE05 JUMPI JUMPDEST POP POP POP POP POP SWAP1 POP SWAP2 SWAP1 POP JUMP JUMPDEST PUSH2 0xE2D PUSH2 0x1B71 JUMP JUMPDEST DUP1 PUSH1 0x67 DUP2 SWAP1 SSTORE POP POP JUMP JUMPDEST DUP2 DUP1 PUSH1 0x68 DUP1 SLOAD SWAP1 POP GT PUSH2 0xE7F JUMPI PUSH1 0x40 MLOAD PUSH32 0x8C379A000000000000000000000000000000000000000000000000000000000 DUP2 MSTORE PUSH1 0x4 ADD PUSH2 0xE76 SWAP1 PUSH2 0x2AD1 JUMP JUMPDEST PUSH1 0x40 MLOAD DUP1 SWAP2 SUB SWAP1 REVERT JUMPDEST CALLER PUSH20 0xFFFFFFFFFFFFFFFFFFFFFFFFFFFFFFFFFFFFFFFF AND PUSH1 0x68 DUP3 DUP2 SLOAD DUP2 LT PUSH2 0xEAA JUMPI PUSH2 0xEA9 PUSH2 0x2931 JUMP JUMPDEST JUMPDEST SWAP1 PUSH1 0x0 MSTORE PUSH1 0x20 PUSH1 0x0 KECCAK256 SWAP1 PUSH1 0x6 MUL ADD PUSH1 0x0 ADD PUSH1 0x0 SWAP1 SLOAD SWAP1 PUSH2 0x100 EXP SWAP1 DIV PUSH20 0xFFFFFFFFFFFFFFFFFFFFFFFFFFFFFFFFFFFFFFFF AND PUSH20 0xFFFFFFFFFFFFFFFFFFFFFFFFFFFFFFFFFFFFFFFF AND EQ PUSH2 0xF32 JUMPI PUSH1 0x40 MLOAD PUSH32 0x8C379A000000000000000000000000000000000000000000000000000000000 DUP2 MSTORE PUSH1 0x4 ADD PUSH2 0xF29 SWAP1 PUSH2 0x2B63 JUMP JUMPDEST PUSH1 0x40 MLOAD DUP1 SWAP2 SUB SWAP1 REVERT JUMPDEST PUSH1 0x0 PUSH2 0xF3D DUP5 PUSH2 0xA59 JUMP JUMPDEST SWAP1 POP DUP3 DUP2 LT ISZERO PUSH2 0xF82 JUMPI PUSH1 0x40 MLOAD PUSH32 0x8C379A000000000000000000000000000000000000000000000000000000000 DUP2 MSTORE PUSH1 0x4 ADD PUSH2 0xF79 SWAP1 PUSH2 0x2BF5 JUMP JUMPDEST PUSH1 0x40 MLOAD DUP1 SWAP2 SUB SWAP1 REVERT JUMPDEST PUSH2 0xF8C DUP5 DUP5 PUSH2 0x1C6B JUMP JUMPDEST POP POP POP POP JUMP JUMPDEST DUP1 DUP1 PUSH1 0x68 DUP1 SLOAD SWAP1 POP GT PUSH2 0xFDA JUMPI PUSH1 0x40 MLOAD PUSH32 0x8C379A000000000000000000000000000000000000000000000000000000000 DUP2 MSTORE PUSH1 0x4 ADD PUSH2 0xFD1 SWAP1 PUSH2 0x2AD1 JUMP JUMPDEST PUSH1 0x40 MLOAD DUP1 SWAP2 SUB SWAP1 REVERT JUMPDEST CALLER PUSH20 0xFFFFFFFFFFFFFFFFFFFFFFFFFFFFFFFFFFFFFFFF AND PUSH1 0x68 DUP3 DUP2 SLOAD DUP2 LT PUSH2 0x1005 JUMPI PUSH2 0x1004 PUSH2 0x2931 JUMP JUMPDEST JUMPDEST SWAP1 PUSH1 0x0 MSTORE PUSH1 0x20 PUSH1 0x0 KECCAK256 SWAP1 PUSH1 0x6 MUL ADD PUSH1 0x0 ADD PUSH1 0x0 SWAP1 SLOAD SWAP1 PUSH2 0x100 EXP SWAP1 DIV PUSH20 0xFFFFFFFFFFFFFFFFFFFFFFFFFFFFFFFFFFFFFFFF AND PUSH20 0xFFFFFFFFFFFFFFFFFFFFFFFFFFFFFFFFFFFFFFFF AND EQ PUSH2 0x108D JUMPI PUSH1 0x40 MLOAD PUSH32 0x8C379A000000000000000000000000000000000000000000000000000000000 DUP2 MSTORE PUSH1 0x4 ADD PUSH2 0x1084 SWAP1 PUSH2 0x2B63 JUMP JUMPDEST PUSH1 0x40 MLOAD DUP1 SWAP2 SUB SWAP1 REVERT JUMPDEST PUSH1 0x0 PUSH2 0x1098 DUP4 PUSH2 0xA59 JUMP JUMPDEST SWAP1 POP PUSH1 0x0 DUP2 GT PUSH2 0x10DD JUMPI PUSH1 0x40 MLOAD PUSH32 0x8C379A000000000000000000000000000000000000000000000000000000000 DUP2 MSTORE PUSH1 0x4 ADD PUSH2 0x10D4 SWAP1 PUSH2 0x2C87 JUMP JUMPDEST PUSH1 0x40 MLOAD DUP1 SWAP2 SUB SWAP1 REVERT JUMPDEST PUSH2 0x10E7 DUP4 DUP3 PUSH2 0x1C6B JUMP JUMPDEST POP POP POP JUMP JUMPDEST PUSH2 0x10F4 PUSH2 0x1B71 JUMP JUMPDEST PUSH2 0x10FE PUSH1 0x0 PUSH2 0x1DF4 JUMP JUMPDEST JUMP JUMPDEST PUSH1 0x0 PUSH1 0x68 DUP1 SLOAD SWAP1 POP SWAP1 POP SWAP1 JUMP JUMPDEST PUSH1 0x69 PUSH1 0x20 MSTORE DUP2 PUSH1 0x0 MSTORE PUSH1 0x40 PUSH1 0x0 KECCAK256 DUP2 DUP2 SLOAD DUP2 LT PUSH2 0x1129 JUMPI PUSH1 0x0 DUP1 REVERT JUMPDEST SWAP1 PUSH1 0x0 MSTORE PUSH1 0x20 PUSH1 0x0 KECCAK256 ADD PUSH1 0x0 SWAP2 POP SWAP2 POP POP SLOAD DUP2 JUMP JUMPDEST DUP2 DUP1 PUSH1 0x68 DUP1 SLOAD SWAP1 POP GT PUSH2 0x1186 JUMPI PUSH1 0x40 MLOAD PUSH32 0x8C379A000000000000000000000000000000000000000000000000000000000 DUP2 MSTORE PUSH1 0x4 ADD PUSH2 0x117D SWAP1 PUSH2 0x2AD1 JUMP JUMPDEST PUSH1 0x40 MLOAD DUP1 SWAP2 SUB SWAP1 REVERT JUMPDEST CALLER PUSH20 0xFFFFFFFFFFFFFFFFFFFFFFFFFFFFFFFFFFFFFFFF AND PUSH1 0x68 DUP3 DUP2 SLOAD DUP2 LT PUSH2 0x11B1 JUMPI PUSH2 0x11B0 PUSH2 0x2931 JUMP JUMPDEST JUMPDEST SWAP1 PUSH1 0x0 MSTORE PUSH1 0x20 PUSH1 0x0 KECCAK256 SWAP1 PUSH1 0x6 MUL ADD PUSH1 0x0 ADD PUSH1 0x0 SWAP1 SLOAD SWAP1 PUSH2 0x100 EXP SWAP1 DIV PUSH20 0xFFFFFFFFFFFFFFFFFFFFFFFFFFFFFFFFFFFFFFFF AND PUSH20 0xFFFFFFFFFFFFFFFFFFFFFFFFFFFFFFFFFFFFFFFF AND EQ PUSH2 0x1239 JUMPI PUSH1 0x40 MLOAD PUSH32 0x8C379A000000000000000000000000000000000000000000000000000000000 DUP2 MSTORE PUSH1 0x4 ADD PUSH2 0x1230 SWAP1 PUSH2 0x2B63 JUMP JUMPDEST PUSH1 0x40 MLOAD DUP1 SWAP2 SUB SWAP1 REVERT JUMPDEST DUP2 PUSH1 0x68 DUP5 DUP2 SLOAD DUP2 LT PUSH2 0x124E JUMPI PUSH2 0x124D PUSH2 0x2931 JUMP JUMPDEST JUMPDEST SWAP1 PUSH1 0x0 MSTORE PUSH1 0x20 PUSH1 0x0 KECCAK256 SWAP1 PUSH1 0x6 MUL ADD PUSH1 0x0 ADD PUSH1 0x0 PUSH2 0x100 EXP DUP2 SLOAD DUP2 PUSH20 0xFFFFFFFFFFFFFFFFFFFFFFFFFFFFFFFFFFFFFFFF MUL NOT AND SWAP1 DUP4 PUSH20 0xFFFFFFFFFFFFFFFFFFFFFFFFFFFFFFFFFFFFFFFF AND MUL OR SWAP1 SSTORE POP PUSH1 0x69 PUSH1 0x0 DUP4 PUSH20 0xFFFFFFFFFFFFFFFFFFFFFFFFFFFFFFFFFFFFFFFF AND PUSH20 0xFFFFFFFFFFFFFFFFFFFFFFFFFFFFFFFFFFFFFFFF AND DUP2 MSTORE PUSH1 0x20 ADD SWAP1 DUP2 MSTORE PUSH1 0x20 ADD PUSH1 0x0 KECCAK256 DUP4 SWAP1 DUP1 PUSH1 0x1 DUP2 SLOAD ADD DUP1 DUP3 SSTORE DUP1 SWAP2 POP POP PUSH1 0x1 SWAP1 SUB SWAP1 PUSH1 0x0 MSTORE PUSH1 0x20 PUSH1 0x0 KECCAK256 ADD PUSH1 0x0 SWAP1 SWAP2 SWAP1 SWAP2 SWAP1 SWAP2 POP SSTORE PUSH1 0x0 PUSH1 0x69 PUSH1 0x0 CALLER PUSH20 0xFFFFFFFFFFFFFFFFFFFFFFFFFFFFFFFFFFFFFFFF AND PUSH20 0xFFFFFFFFFFFFFFFFFFFFFFFFFFFFFFFFFFFFFFFF AND DUP2 MSTORE PUSH1 0x20 ADD SWAP1 DUP2 MSTORE PUSH1 0x20 ADD PUSH1 0x0 KECCAK256 DUP1 SLOAD SWAP1 POP SWAP1 POP PUSH1 0x0 PUSH1 0x1 DUP3 PUSH2 0x1359 SWAP2 SWAP1 PUSH2 0x28FD JUMP JUMPDEST SWAP1 POP JUMPDEST PUSH1 0x1 ISZERO PUSH2 0x14E9 JUMPI DUP5 PUSH1 0x69 PUSH1 0x0 CALLER PUSH20 0xFFFFFFFFFFFFFFFFFFFFFFFFFFFFFFFFFFFFFFFF AND PUSH20 0xFFFFFFFFFFFFFFFFFFFFFFFFFFFFFFFFFFFFFFFF AND DUP2 MSTORE PUSH1 0x20 ADD SWAP1 DUP2 MSTORE PUSH1 0x20 ADD PUSH1 0x0 KECCAK256 DUP3 DUP2 SLOAD DUP2 LT PUSH2 0x13B5 JUMPI PUSH2 0x13B4 PUSH2 0x2931 JUMP JUMPDEST JUMPDEST SWAP1 PUSH1 0x0 MSTORE PUSH1 0x20 PUSH1 0x0 KECCAK256 ADD SLOAD EQ ISZERO PUSH2 0x1492 JUMPI PUSH1 0x69 PUSH1 0x0 CALLER PUSH20 0xFFFFFFFFFFFFFFFFFFFFFFFFFFFFFFFFFFFFFFFF AND PUSH20 0xFFFFFFFFFFFFFFFFFFFFFFFFFFFFFFFFFFFFFFFF AND DUP2 MSTORE PUSH1 0x20 ADD SWAP1 DUP2 MSTORE PUSH1 0x20 ADD PUSH1 0x0 KECCAK256 PUSH1 0x1 DUP4 PUSH2 0x1412 SWAP2 SWAP1 PUSH2 0x28FD JUMP JUMPDEST DUP2 SLOAD DUP2 LT PUSH2 0x1423 JUMPI PUSH2 0x1422 PUSH2 0x2931 JUMP JUMPDEST JUMPDEST SWAP1 PUSH1 0x0 MSTORE PUSH1 0x20 PUSH1 0x0 KECCAK256 ADD SLOAD PUSH1 0x69 PUSH1 0x0 CALLER PUSH20 0xFFFFFFFFFFFFFFFFFFFFFFFFFFFFFFFFFFFFFFFF AND PUSH20 0xFFFFFFFFFFFFFFFFFFFFFFFFFFFFFFFFFFFFFFFF AND DUP2 MSTORE PUSH1 0x20 ADD SWAP1 DUP2 MSTORE PUSH1 0x20 ADD PUSH1 0x0 KECCAK256 DUP3 DUP2 SLOAD DUP2 LT PUSH2 0x147F JUMPI PUSH2 0x147E PUSH2 0x2931 JUMP JUMPDEST JUMPDEST SWAP1 PUSH1 0x0 MSTORE PUSH1 0x20 PUSH1 0x0 KECCAK256 ADD DUP2 SWAP1 SSTORE POP PUSH2 0x14E9 JUMP JUMPDEST PUSH1 0x0 DUP2 EQ ISZERO PUSH2 0x14D6 JUMPI PUSH1 0x40 MLOAD PUSH32 0x8C379A000000000000000000000000000000000000000000000000000000000 DUP2 MSTORE PUSH1 0x4 ADD PUSH2 0x14CD SWAP1 PUSH2 0x2D19 JUMP JUMPDEST PUSH1 0x40 MLOAD DUP1 SWAP2 SUB SWAP1 REVERT JUMPDEST DUP1 DUP1 PUSH2 0x14E1 SWAP1 PUSH2 0x2D39 JUMP JUMPDEST SWAP2 POP POP PUSH2 0x135C JUMP JUMPDEST PUSH1 0x69 PUSH1 0x0 CALLER PUSH20 0xFFFFFFFFFFFFFFFFFFFFFFFFFFFFFFFFFFFFFFFF AND PUSH20 0xFFFFFFFFFFFFFFFFFFFFFFFFFFFFFFFFFFFFFFFF AND DUP2 MSTORE PUSH1 0x20 ADD SWAP1 DUP2 MSTORE PUSH1 0x20 ADD PUSH1 0x0 KECCAK256 DUP1 SLOAD DUP1 PUSH2 0x1538 JUMPI PUSH2 0x1537 PUSH2 0x2D63 JUMP JUMPDEST JUMPDEST PUSH1 0x1 SWAP1 SUB DUP2 DUP2 SWAP1 PUSH1 0x0 MSTORE PUSH1 0x20 PUSH1 0x0 KECCAK256 ADD PUSH1 0x0 SWAP1 SSTORE SWAP1 SSTORE DUP4 PUSH20 0xFFFFFFFFFFFFFFFFFFFFFFFFFFFFFFFFFFFFFFFF AND CALLER PUSH20 0xFFFFFFFFFFFFFFFFFFFFFFFFFFFFFFFFFFFFFFFF AND DUP7 PUSH32 0x79A159BC2C4ED6AAEE92C293D83B6527A380C127ACA07F41D3AB4C590957F56 PUSH1 0x40 MLOAD PUSH1 0x40 MLOAD DUP1 SWAP2 SUB SWAP1 LOG4 POP POP POP POP POP JUMP JUMPDEST PUSH1 0x0 PUSH1 0x33 PUSH1 0x0 SWAP1 SLOAD SWAP1 PUSH2 0x100 EXP SWAP1 DIV PUSH20 0xFFFFFFFFFFFFFFFFFFFFFFFFFFFFFFFFFFFFFFFF AND SWAP1 POP SWAP1 JUMP JUMPDEST PUSH1 0x66 PUSH1 0x0 SWAP1 SLOAD SWAP1 PUSH2 0x100 EXP SWAP1 DIV PUSH20 0xFFFFFFFFFFFFFFFFFFFFFFFFFFFFFFFFFFFFFFFF AND DUP2 JUMP JUMPDEST PUSH1 0x0 DUP1 PUSH1 0x68 DUP4 DUP2 SLOAD DUP2 LT PUSH2 0x1617 JUMPI PUSH2 0x1616 PUSH2 0x2931 JUMP JUMPDEST JUMPDEST SWAP1 PUSH1 0x0 MSTORE PUSH1 0x20 PUSH1 0x0 KECCAK256 SWAP1 PUSH1 0x6 MUL ADD PUSH1 0x2 ADD SLOAD EQ DUP1 PUSH2 0x165A JUMPI POP PUSH1 0x68 DUP3 DUP2 SLOAD DUP2 LT PUSH2 0x1644 JUMPI PUSH2 0x1643 PUSH2 0x2931 JUMP JUMPDEST JUMPDEST SWAP1 PUSH1 0x0 MSTORE PUSH1 0x20 PUSH1 0x0 KECCAK256 SWAP1 PUSH1 0x6 MUL ADD PUSH1 0x3 ADD SLOAD TIMESTAMP GT ISZERO JUMPDEST ISZERO PUSH2 0x1668 JUMPI PUSH1 0x0 SWAP1 POP PUSH2 0x1771 JUMP JUMPDEST PUSH1 0x0 PUSH2 0x16A2 PUSH1 0x68 DUP5 DUP2 SLOAD DUP2 LT PUSH2 0x1681 JUMPI PUSH2 0x1680 PUSH2 0x2931 JUMP JUMPDEST JUMPDEST SWAP1 PUSH1 0x0 MSTORE PUSH1 0x20 PUSH1 0x0 KECCAK256 SWAP1 PUSH1 0x6 MUL ADD PUSH1 0x3 ADD SLOAD TIMESTAMP PUSH2 0x1B5B SWAP1 SWAP2 SWAP1 PUSH4 0xFFFFFFFF AND JUMP JUMPDEST SWAP1 POP PUSH1 0x68 DUP4 DUP2 SLOAD DUP2 LT PUSH2 0x16B8 JUMPI PUSH2 0x16B7 PUSH2 0x2931 JUMP JUMPDEST JUMPDEST SWAP1 PUSH1 0x0 MSTORE PUSH1 0x20 PUSH1 0x0 KECCAK256 SWAP1 PUSH1 0x6 MUL ADD PUSH1 0x4 ADD SLOAD DUP2 LT PUSH2 0x16FE JUMPI PUSH1 0x68 DUP4 DUP2 SLOAD DUP2 LT PUSH2 0x16E4 JUMPI PUSH2 0x16E3 PUSH2 0x2931 JUMP JUMPDEST JUMPDEST SWAP1 PUSH1 0x0 MSTORE PUSH1 0x20 PUSH1 0x0 KECCAK256 SWAP1 PUSH1 0x6 MUL ADD PUSH1 0x2 ADD SLOAD SWAP2 POP POP PUSH2 0x1771 JUMP JUMPDEST PUSH2 0x176D PUSH1 0x68 DUP5 DUP2 SLOAD DUP2 LT PUSH2 0x1715 JUMPI PUSH2 0x1714 PUSH2 0x2931 JUMP JUMPDEST JUMPDEST SWAP1 PUSH1 0x0 MSTORE PUSH1 0x20 PUSH1 0x0 KECCAK256 SWAP1 PUSH1 0x6 MUL ADD PUSH1 0x4 ADD SLOAD PUSH2 0x175F DUP4 PUSH1 0x68 DUP8 DUP2 SLOAD DUP2 LT PUSH2 0x173F JUMPI PUSH2 0x173E PUSH2 0x2931 JUMP JUMPDEST JUMPDEST SWAP1 PUSH1 0x0 MSTORE PUSH1 0x20 PUSH1 0x0 KECCAK256 SWAP1 PUSH1 0x6 MUL ADD PUSH1 0x2 ADD SLOAD PUSH2 0x1EBA SWAP1 SWAP2 SWAP1 PUSH4 0xFFFFFFFF AND JUMP JUMPDEST PUSH2 0x1ED0 SWAP1 SWAP2 SWAP1 PUSH4 0xFFFFFFFF AND JUMP JUMPDEST SWAP2 POP POP JUMPDEST SWAP2 SWAP1 POP JUMP JUMPDEST PUSH1 0x0 PUSH2 0x1785 DUP6 DUP6 DUP6 DUP6 CALLER PUSH2 0x58B JUMP JUMPDEST SWAP1 POP SWAP5 SWAP4 POP POP POP POP JUMP JUMPDEST PUSH2 0x1797 PUSH2 0x1B71 JUMP JUMPDEST DUP1 PUSH1 0x66 PUSH1 0x0 PUSH2 0x100 EXP DUP2 SLOAD DUP2 PUSH20 0xFFFFFFFFFFFFFFFFFFFFFFFFFFFFFFFFFFFFFFFF MUL NOT AND SWAP1 DUP4 PUSH20 0xFFFFFFFFFFFFFFFFFFFFFFFFFFFFFFFFFFFFFFFF AND MUL OR SWAP1 SSTORE POP POP JUMP JUMPDEST PUSH1 0x67 SLOAD DUP2 JUMP JUMPDEST PUSH2 0x17E9 PUSH2 0x1B71 JUMP JUMPDEST PUSH1 0x0 PUSH20 0xFFFFFFFFFFFFFFFFFFFFFFFFFFFFFFFFFFFFFFFF AND DUP2 PUSH20 0xFFFFFFFFFFFFFFFFFFFFFFFFFFFFFFFFFFFFFFFF AND EQ ISZERO PUSH2 0x1859 JUMPI PUSH1 0x40 MLOAD PUSH32 0x8C379A000000000000000000000000000000000000000000000000000000000 DUP2 MSTORE PUSH1 0x4 ADD PUSH2 0x1850 SWAP1 PUSH2 0x2E04 JUMP JUMPDEST PUSH1 0x40 MLOAD DUP1 SWAP2 SUB SWAP1 REVERT JUMPDEST PUSH2 0x1862 DUP2 PUSH2 0x1DF4 JUMP JUMPDEST POP JUMP JUMPDEST PUSH1 0x60 PUSH1 0x6A PUSH1 0x0 DUP4 PUSH20 0xFFFFFFFFFFFFFFFFFFFFFFFFFFFFFFFFFFFFFFFF AND PUSH20 0xFFFFFFFFFFFFFFFFFFFFFFFFFFFFFFFFFFFFFFFF AND DUP2 MSTORE PUSH1 0x20 ADD SWAP1 DUP2 MSTORE PUSH1 0x20 ADD PUSH1 0x0 KECCAK256 DUP1 SLOAD DUP1 PUSH1 0x20 MUL PUSH1 0x20 ADD PUSH1 0x40 MLOAD SWAP1 DUP2 ADD PUSH1 0x40 MSTORE DUP1 SWAP3 SWAP2 SWAP1 DUP2 DUP2 MSTORE PUSH1 0x20 ADD DUP3 DUP1 SLOAD DUP1 ISZERO PUSH2 0x18F0 JUMPI PUSH1 0x20 MUL DUP3 ADD SWAP2 SWAP1 PUSH1 0x0 MSTORE PUSH1 0x20 PUSH1 0x0 KECCAK256 SWAP1 JUMPDEST DUP2 SLOAD DUP2 MSTORE PUSH1 0x20 ADD SWAP1 PUSH1 0x1 ADD SWAP1 DUP1 DUP4 GT PUSH2 0x18DC JUMPI JUMPDEST POP POP POP POP POP SWAP1 POP SWAP2 SWAP1 POP JUMP JUMPDEST PUSH1 0x65 PUSH1 0x0 SWAP1 SLOAD SWAP1 PUSH2 0x100 EXP SWAP1 DIV PUSH20 0xFFFFFFFFFFFFFFFFFFFFFFFFFFFFFFFFFFFFFFFF AND DUP2 JUMP JUMPDEST PUSH1 0x0 DUP2 GT ISZERO PUSH2 0x1ACF JUMPI PUSH1 0x66 PUSH1 0x0 SWAP1 SLOAD SWAP1 PUSH2 0x100 EXP SWAP1 DIV PUSH20 0xFFFFFFFFFFFFFFFFFFFFFFFFFFFFFFFFFFFFFFFF AND PUSH20 0xFFFFFFFFFFFFFFFFFFFFFFFFFFFFFFFFFFFFFFFF AND PUSH4 0xD0E30DB0 DUP3 PUSH1 0x40 MLOAD DUP3 PUSH4 0xFFFFFFFF AND PUSH1 0xE0 SHL DUP2 MSTORE PUSH1 0x4 ADD PUSH1 0x0 PUSH1 0x40 MLOAD DUP1 DUP4 SUB DUP2 DUP6 DUP9 DUP1 EXTCODESIZE ISZERO DUP1 ISZERO PUSH2 0x1995 JUMPI PUSH1 0x0 DUP1 REVERT JUMPDEST POP GAS CALL ISZERO DUP1 ISZERO PUSH2 0x19A9 JUMPI RETURNDATASIZE PUSH1 0x0 DUP1 RETURNDATACOPY RETURNDATASIZE PUSH1 0x0 REVERT JUMPDEST POP POP POP POP POP PUSH2 0x1A1D PUSH1 0x65 PUSH1 0x0 SWAP1 SLOAD SWAP1 PUSH2 0x100 EXP SWAP1 DIV PUSH20 0xFFFFFFFFFFFFFFFFFFFFFFFFFFFFFFFFFFFFFFFF AND DUP3 PUSH1 0x66 PUSH1 0x0 SWAP1 SLOAD SWAP1 PUSH2 0x100 EXP SWAP1 DIV PUSH20 0xFFFFFFFFFFFFFFFFFFFFFFFFFFFFFFFFFFFFFFFF AND PUSH20 0xFFFFFFFFFFFFFFFFFFFFFFFFFFFFFFFFFFFFFFFF AND PUSH2 0x1EE6 SWAP1 SWAP3 SWAP2 SWAP1 PUSH4 0xFFFFFFFF AND JUMP JUMPDEST PUSH1 0x65 PUSH1 0x0 SWAP1 SLOAD SWAP1 PUSH2 0x100 EXP SWAP1 DIV PUSH20 0xFFFFFFFFFFFFFFFFFFFFFFFFFFFFFFFFFFFFFFFF AND PUSH20 0xFFFFFFFFFFFFFFFFFFFFFFFFFFFFFFFFFFFFFFFF AND PUSH4 0xA361E6E1 PUSH1 0x66 PUSH1 0x0 SWAP1 SLOAD SWAP1 PUSH2 0x100 EXP SWAP1 DIV PUSH20 0xFFFFFFFFFFFFFFFFFFFFFFFFFFFFFFFFFFFFFFFF AND DUP4 PUSH1 0x40 MLOAD DUP4 PUSH4 0xFFFFFFFF AND PUSH1 0xE0 SHL DUP2 MSTORE PUSH1 0x4 ADD PUSH2 0x1A9C SWAP3 SWAP2 SWAP1 PUSH2 0x2E24 JUMP JUMPDEST PUSH1 0x0 PUSH1 0x40 MLOAD DUP1 DUP4 SUB DUP2 PUSH1 0x0 DUP8 DUP1 EXTCODESIZE ISZERO DUP1 ISZERO PUSH2 0x1AB6 JUMPI PUSH1 0x0 DUP1 REVERT JUMPDEST POP GAS CALL ISZERO DUP1 ISZERO PUSH2 0x1ACA JUMPI RETURNDATASIZE PUSH1 0x0 DUP1 RETURNDATACOPY RETURNDATASIZE PUSH1 0x0 REVERT JUMPDEST POP POP POP POP JUMPDEST POP JUMP JUMPDEST PUSH2 0x1B55 DUP5 PUSH4 0x23B872DD PUSH1 0xE0 SHL DUP6 DUP6 DUP6 PUSH1 0x40 MLOAD PUSH1 0x24 ADD PUSH2 0x1AF3 SWAP4 SWAP3 SWAP2 SWAP1 PUSH2 0x2E4D JUMP JUMPDEST PUSH1 0x40 MLOAD PUSH1 0x20 DUP2 DUP4 SUB SUB DUP2 MSTORE SWAP1 PUSH1 0x40 MSTORE SWAP1 PUSH28 0xFFFFFFFFFFFFFFFFFFFFFFFFFFFFFFFFFFFFFFFFFFFFFFFFFFFFFFFF NOT AND PUSH1 0x20 DUP3 ADD DUP1 MLOAD PUSH28 0xFFFFFFFFFFFFFFFFFFFFFFFFFFFFFFFFFFFFFFFFFFFFFFFFFFFFFFFF DUP4 DUP2 DUP4 AND OR DUP4 MSTORE POP POP POP POP PUSH2 0x1F6C JUMP JUMPDEST POP POP POP POP JUMP JUMPDEST PUSH1 0x0 DUP2 DUP4 PUSH2 0x1B69 SWAP2 SWAP1 PUSH2 0x28FD JUMP JUMPDEST SWAP1 POP SWAP3 SWAP2 POP POP JUMP JUMPDEST PUSH2 0x1B79 PUSH2 0x2034 JUMP JUMPDEST PUSH20 0xFFFFFFFFFFFFFFFFFFFFFFFFFFFFFFFFFFFFFFFF AND PUSH2 0x1B97 PUSH2 0x15B0 JUMP JUMPDEST PUSH20 0xFFFFFFFFFFFFFFFFFFFFFFFFFFFFFFFFFFFFFFFF AND EQ PUSH2 0x1BED JUMPI PUSH1 0x40 MLOAD PUSH32 0x8C379A000000000000000000000000000000000000000000000000000000000 DUP2 MSTORE PUSH1 0x4 ADD PUSH2 0x1BE4 SWAP1 PUSH2 0x2ED0 JUMP JUMPDEST PUSH1 0x40 MLOAD DUP1 SWAP2 SUB SWAP1 REVERT JUMPDEST JUMP JUMPDEST PUSH1 0x0 DUP1 DUP3 PUSH20 0xFFFFFFFFFFFFFFFFFFFFFFFFFFFFFFFFFFFFFFFF AND EXTCODESIZE GT SWAP1 POP SWAP2 SWAP1 POP JUMP JUMPDEST PUSH1 0x0 PUSH1 0x1 SWAP1 SLOAD SWAP1 PUSH2 0x100 EXP SWAP1 DIV PUSH1 0xFF AND PUSH2 0x1C61 JUMPI PUSH1 0x40 MLOAD PUSH32 0x8C379A000000000000000000000000000000000000000000000000000000000 DUP2 MSTORE PUSH1 0x4 ADD PUSH2 0x1C58 SWAP1 PUSH2 0x2F62 JUMP JUMPDEST PUSH1 0x40 MLOAD DUP1 SWAP2 SUB SWAP1 REVERT JUMPDEST PUSH2 0x1C69 PUSH2 0x203C JUMP JUMPDEST JUMP JUMPDEST DUP1 PUSH1 0x68 DUP4 DUP2 SLOAD DUP2 LT PUSH2 0x1C80 JUMPI PUSH2 0x1C7F PUSH2 0x2931 JUMP JUMPDEST JUMPDEST SWAP1 PUSH1 0x0 MSTORE PUSH1 0x20 PUSH1 0x0 KECCAK256 SWAP1 PUSH1 0x6 MUL ADD PUSH1 0x5 ADD PUSH1 0x0 DUP3 DUP3 SLOAD PUSH2 0x1CA0 SWAP2 SWAP1 PUSH2 0x2F82 JUMP JUMPDEST SWAP3 POP POP DUP2 SWAP1 SSTORE POP PUSH2 0x1D5C PUSH1 0x68 DUP4 DUP2 SLOAD DUP2 LT PUSH2 0x1CBE JUMPI PUSH2 0x1CBD PUSH2 0x2931 JUMP JUMPDEST JUMPDEST SWAP1 PUSH1 0x0 MSTORE PUSH1 0x20 PUSH1 0x0 KECCAK256 SWAP1 PUSH1 0x6 MUL ADD PUSH1 0x0 ADD PUSH1 0x0 SWAP1 SLOAD SWAP1 PUSH2 0x100 EXP SWAP1 DIV PUSH20 0xFFFFFFFFFFFFFFFFFFFFFFFFFFFFFFFFFFFFFFFF AND DUP3 PUSH1 0x68 DUP6 DUP2 SLOAD DUP2 LT PUSH2 0x1D05 JUMPI PUSH2 0x1D04 PUSH2 0x2931 JUMP JUMPDEST JUMPDEST SWAP1 PUSH1 0x0 MSTORE PUSH1 0x20 PUSH1 0x0 KECCAK256 SWAP1 PUSH1 0x6 MUL ADD PUSH1 0x1 ADD PUSH1 0x0 SWAP1 SLOAD SWAP1 PUSH2 0x100 EXP SWAP1 DIV PUSH20 0xFFFFFFFFFFFFFFFFFFFFFFFFFFFFFFFFFFFFFFFF AND PUSH20 0xFFFFFFFFFFFFFFFFFFFFFFFFFFFFFFFFFFFFFFFF AND PUSH2 0x1EE6 SWAP1 SWAP3 SWAP2 SWAP1 PUSH4 0xFFFFFFFF AND JUMP JUMPDEST PUSH1 0x68 DUP3 DUP2 SLOAD DUP2 LT PUSH2 0x1D70 JUMPI PUSH2 0x1D6F PUSH2 0x2931 JUMP JUMPDEST JUMPDEST SWAP1 PUSH1 0x0 MSTORE PUSH1 0x20 PUSH1 0x0 KECCAK256 SWAP1 PUSH1 0x6 MUL ADD PUSH1 0x1 ADD PUSH1 0x0 SWAP1 SLOAD SWAP1 PUSH2 0x100 EXP SWAP1 DIV PUSH20 0xFFFFFFFFFFFFFFFFFFFFFFFFFFFFFFFFFFFFFFFF AND PUSH20 0xFFFFFFFFFFFFFFFFFFFFFFFFFFFFFFFFFFFFFFFF AND DUP3 PUSH32 0xEE2A18EE2BC0FE152D62F395FEACB9DACB1E9F3FDB444B21EC9D6AADD81C6DE7 DUP4 PUSH1 0x40 MLOAD PUSH2 0x1DE8 SWAP2 SWAP1 PUSH2 0x236B JUMP JUMPDEST PUSH1 0x40 MLOAD DUP1 SWAP2 SUB SWAP1 LOG3 POP POP JUMP JUMPDEST PUSH1 0x0 PUSH1 0x33 PUSH1 0x0 SWAP1 SLOAD SWAP1 PUSH2 0x100 EXP SWAP1 DIV PUSH20 0xFFFFFFFFFFFFFFFFFFFFFFFFFFFFFFFFFFFFFFFF AND SWAP1 POP DUP2 PUSH1 0x33 PUSH1 0x0 PUSH2 0x100 EXP DUP2 SLOAD DUP2 PUSH20 0xFFFFFFFFFFFFFFFFFFFFFFFFFFFFFFFFFFFFFFFF MUL NOT AND SWAP1 DUP4 PUSH20 0xFFFFFFFFFFFFFFFFFFFFFFFFFFFFFFFFFFFFFFFF AND MUL OR SWAP1 SSTORE POP DUP2 PUSH20 0xFFFFFFFFFFFFFFFFFFFFFFFFFFFFFFFFFFFFFFFF AND DUP2 PUSH20 0xFFFFFFFFFFFFFFFFFFFFFFFFFFFFFFFFFFFFFFFF AND PUSH32 0x8BE0079C531659141344CD1FD0A4F28419497F9722A3DAAFE3B4186F6B6457E0 PUSH1 0x40 MLOAD PUSH1 0x40 MLOAD DUP1 SWAP2 SUB SWAP1 LOG3 POP POP JUMP JUMPDEST PUSH1 0x0 DUP2 DUP4 PUSH2 0x1EC8 SWAP2 SWAP1 PUSH2 0x2FD8 JUMP JUMPDEST SWAP1 POP SWAP3 SWAP2 POP POP JUMP JUMPDEST PUSH1 0x0 DUP2 DUP4 PUSH2 0x1EDE SWAP2 SWAP1 PUSH2 0x3061 JUMP JUMPDEST SWAP1 POP SWAP3 SWAP2 POP POP JUMP JUMPDEST PUSH2 0x1F67 DUP4 PUSH4 0xA9059CBB PUSH1 0xE0 SHL DUP5 DUP5 PUSH1 0x40 MLOAD PUSH1 0x24 ADD PUSH2 0x1F05 SWAP3 SWAP2 SWAP1 PUSH2 0x2E24 JUMP JUMPDEST PUSH1 0x40 MLOAD PUSH1 0x20 DUP2 DUP4 SUB SUB DUP2 MSTORE SWAP1 PUSH1 0x40 MSTORE SWAP1 PUSH28 0xFFFFFFFFFFFFFFFFFFFFFFFFFFFFFFFFFFFFFFFFFFFFFFFFFFFFFFFF NOT AND PUSH1 0x20 DUP3 ADD DUP1 MLOAD PUSH28 0xFFFFFFFFFFFFFFFFFFFFFFFFFFFFFFFFFFFFFFFFFFFFFFFFFFFFFFFF DUP4 DUP2 DUP4 AND OR DUP4 MSTORE POP POP POP POP PUSH2 0x1F6C JUMP JUMPDEST POP POP POP JUMP JUMPDEST PUSH1 0x0 PUSH2 0x1FCE DUP3 PUSH1 0x40 MLOAD DUP1 PUSH1 0x40 ADD PUSH1 0x40 MSTORE DUP1 PUSH1 0x20 DUP2 MSTORE PUSH1 0x20 ADD PUSH32 0x5361666545524332303A206C6F772D6C6576656C2063616C6C206661696C6564 DUP2 MSTORE POP DUP6 PUSH20 0xFFFFFFFFFFFFFFFFFFFFFFFFFFFFFFFFFFFFFFFF AND PUSH2 0x209D SWAP1 SWAP3 SWAP2 SWAP1 PUSH4 0xFFFFFFFF AND JUMP JUMPDEST SWAP1 POP PUSH1 0x0 DUP2 MLOAD EQ DUP1 PUSH2 0x1FF0 JUMPI POP DUP1 DUP1 PUSH1 0x20 ADD SWAP1 MLOAD DUP2 ADD SWAP1 PUSH2 0x1FEF SWAP2 SWAP1 PUSH2 0x30CA JUMP JUMPDEST JUMPDEST PUSH2 0x202F JUMPI PUSH1 0x40 MLOAD PUSH32 0x8C379A000000000000000000000000000000000000000000000000000000000 DUP2 MSTORE PUSH1 0x4 ADD PUSH2 0x2026 SWAP1 PUSH2 0x3169 JUMP JUMPDEST PUSH1 0x40 MLOAD DUP1 SWAP2 SUB SWAP1 REVERT JUMPDEST POP POP POP JUMP JUMPDEST PUSH1 0x0 CALLER SWAP1 POP SWAP1 JUMP JUMPDEST PUSH1 0x0 PUSH1 0x1 SWAP1 SLOAD SWAP1 PUSH2 0x100 EXP SWAP1 DIV PUSH1 0xFF AND PUSH2 0x208B JUMPI PUSH1 0x40 MLOAD PUSH32 0x8C379A000000000000000000000000000000000000000000000000000000000 DUP2 MSTORE PUSH1 0x4 ADD PUSH2 0x2082 SWAP1 PUSH2 0x2F62 JUMP JUMPDEST PUSH1 0x40 MLOAD DUP1 SWAP2 SUB SWAP1 REVERT JUMPDEST PUSH2 0x209B PUSH2 0x2096 PUSH2 0x2034 JUMP JUMPDEST PUSH2 0x1DF4 JUMP JUMPDEST JUMP JUMPDEST PUSH1 0x60 PUSH2 0x20AC DUP5 DUP5 PUSH1 0x0 DUP6 PUSH2 0x20B5 JUMP JUMPDEST SWAP1 POP SWAP4 SWAP3 POP POP POP JUMP JUMPDEST PUSH1 0x60 DUP3 SELFBALANCE LT ISZERO PUSH2 0x20FA JUMPI PUSH1 0x40 MLOAD PUSH32 0x8C379A000000000000000000000000000000000000000000000000000000000 DUP2 MSTORE PUSH1 0x4 ADD PUSH2 0x20F1 SWAP1 PUSH2 0x31FB JUMP JUMPDEST PUSH1 0x40 MLOAD DUP1 SWAP2 SUB SWAP1 REVERT JUMPDEST PUSH1 0x0 DUP1 DUP7 PUSH20 0xFFFFFFFFFFFFFFFFFFFFFFFFFFFFFFFFFFFFFFFF AND DUP6 DUP8 PUSH1 0x40 MLOAD PUSH2 0x2123 SWAP2 SWAP1 PUSH2 0x3295 JUMP JUMPDEST PUSH1 0x0 PUSH1 0x40 MLOAD DUP1 DUP4 SUB DUP2 DUP6 DUP8 GAS CALL SWAP3 POP POP POP RETURNDATASIZE DUP1 PUSH1 0x0 DUP2 EQ PUSH2 0x2160 JUMPI PUSH1 0x40 MLOAD SWAP2 POP PUSH1 0x1F NOT PUSH1 0x3F RETURNDATASIZE ADD AND DUP3 ADD PUSH1 0x40 MSTORE RETURNDATASIZE DUP3 MSTORE RETURNDATASIZE PUSH1 0x0 PUSH1 0x20 DUP5 ADD RETURNDATACOPY PUSH2 0x2165 JUMP JUMPDEST PUSH1 0x60 SWAP2 POP JUMPDEST POP SWAP2 POP SWAP2 POP PUSH2 0x2176 DUP8 DUP4 DUP4 DUP8 PUSH2 0x2182 JUMP JUMPDEST SWAP3 POP POP POP SWAP5 SWAP4 POP POP POP POP JUMP JUMPDEST PUSH1 0x60 DUP4 ISZERO PUSH2 0x21E5 JUMPI PUSH1 0x0 DUP4 MLOAD EQ ISZERO PUSH2 0x21DD JUMPI PUSH2 0x219D DUP6 PUSH2 0x1BEF JUMP JUMPDEST PUSH2 0x21DC JUMPI PUSH1 0x40 MLOAD PUSH32 0x8C379A000000000000000000000000000000000000000000000000000000000 DUP2 MSTORE PUSH1 0x4 ADD PUSH2 0x21D3 SWAP1 PUSH2 0x32F8 JUMP JUMPDEST PUSH1 0x40 MLOAD DUP1 SWAP2 SUB SWAP1 REVERT JUMPDEST JUMPDEST DUP3 SWAP1 POP PUSH2 0x21F0 JUMP JUMPDEST PUSH2 0x21EF DUP4 DUP4 PUSH2 0x21F8 JUMP JUMPDEST JUMPDEST SWAP5 SWAP4 POP POP POP POP JUMP JUMPDEST PUSH1 0x0 DUP3 MLOAD GT ISZERO PUSH2 0x220B JUMPI DUP2 MLOAD DUP1 DUP4 PUSH1 0x20 ADD REVERT JUMPDEST DUP1 PUSH1 0x40 MLOAD PUSH32 0x8C379A000000000000000000000000000000000000000000000000000000000 DUP2 MSTORE PUSH1 0x4 ADD PUSH2 0x223F SWAP2 SWAP1 PUSH2 0x336D JUMP JUMPDEST PUSH1 0x40 MLOAD DUP1 SWAP2 SUB SWAP1 REVERT JUMPDEST PUSH1 0x0 DUP1 REVERT JUMPDEST PUSH1 0x0 PUSH20 0xFFFFFFFFFFFFFFFFFFFFFFFFFFFFFFFFFFFFFFFF DUP3 AND SWAP1 POP SWAP2 SWAP1 POP JUMP JUMPDEST PUSH1 0x0 PUSH2 0x2278 DUP3 PUSH2 0x224D JUMP JUMPDEST SWAP1 POP SWAP2 SWAP1 POP JUMP JUMPDEST PUSH2 0x2288 DUP2 PUSH2 0x226D JUMP JUMPDEST DUP2 EQ PUSH2 0x2293 JUMPI PUSH1 0x0 DUP1 REVERT JUMPDEST POP JUMP JUMPDEST PUSH1 0x0 DUP2 CALLDATALOAD SWAP1 POP PUSH2 0x22A5 DUP2 PUSH2 0x227F JUMP JUMPDEST SWAP3 SWAP2 POP POP JUMP JUMPDEST PUSH1 0x0 DUP2 SWAP1 POP SWAP2 SWAP1 POP JUMP JUMPDEST PUSH2 0x22BE DUP2 PUSH2 0x22AB JUMP JUMPDEST DUP2 EQ PUSH2 0x22C9 JUMPI PUSH1 0x0 DUP1 REVERT JUMPDEST POP JUMP JUMPDEST PUSH1 0x0 DUP2 CALLDATALOAD SWAP1 POP PUSH2 0x22DB DUP2 PUSH2 0x22B5 JUMP JUMPDEST SWAP3 SWAP2 POP POP JUMP JUMPDEST PUSH1 0x0 DUP1 PUSH1 0x0 DUP1 PUSH1 0x0 PUSH1 0xA0 DUP7 DUP9 SUB SLT ISZERO PUSH2 0x22FD JUMPI PUSH2 0x22FC PUSH2 0x2248 JUMP JUMPDEST JUMPDEST PUSH1 0x0 PUSH2 0x230B DUP9 DUP3 DUP10 ADD PUSH2 0x2296 JUMP JUMPDEST SWAP6 POP POP PUSH1 0x20 PUSH2 0x231C DUP9 DUP3 DUP10 ADD PUSH2 0x22CC JUMP JUMPDEST SWAP5 POP POP PUSH1 0x40 PUSH2 0x232D DUP9 DUP3 DUP10 ADD PUSH2 0x22CC JUMP JUMPDEST SWAP4 POP POP PUSH1 0x60 PUSH2 0x233E DUP9 DUP3 DUP10 ADD PUSH2 0x22CC JUMP JUMPDEST SWAP3 POP POP PUSH1 0x80 PUSH2 0x234F DUP9 DUP3 DUP10 ADD PUSH2 0x2296 JUMP JUMPDEST SWAP2 POP POP SWAP3 SWAP6 POP SWAP3 SWAP6 SWAP1 SWAP4 POP JUMP JUMPDEST PUSH2 0x2365 DUP2 PUSH2 0x22AB JUMP JUMPDEST DUP3 MSTORE POP POP JUMP JUMPDEST PUSH1 0x0 PUSH1 0x20 DUP3 ADD SWAP1 POP PUSH2 0x2380 PUSH1 0x0 DUP4 ADD DUP5 PUSH2 0x235C JUMP JUMPDEST SWAP3 SWAP2 POP POP JUMP JUMPDEST PUSH1 0x0 PUSH1 0x20 DUP3 DUP5 SUB SLT ISZERO PUSH2 0x239C JUMPI PUSH2 0x239B PUSH2 0x2248 JUMP JUMPDEST JUMPDEST PUSH1 0x0 PUSH2 0x23AA DUP5 DUP3 DUP6 ADD PUSH2 0x22CC JUMP JUMPDEST SWAP2 POP POP SWAP3 SWAP2 POP POP JUMP JUMPDEST PUSH1 0x0 PUSH1 0x20 DUP3 DUP5 SUB SLT ISZERO PUSH2 0x23C9 JUMPI PUSH2 0x23C8 PUSH2 0x2248 JUMP JUMPDEST JUMPDEST PUSH1 0x0 PUSH2 0x23D7 DUP5 DUP3 DUP6 ADD PUSH2 0x2296 JUMP JUMPDEST SWAP2 POP POP SWAP3 SWAP2 POP POP JUMP JUMPDEST PUSH1 0x0 DUP1 PUSH1 0x0 PUSH1 0x60 DUP5 DUP7 SUB SLT ISZERO PUSH2 0x23F9 JUMPI PUSH2 0x23F8 PUSH2 0x2248 JUMP JUMPDEST JUMPDEST PUSH1 0x0 PUSH2 0x2407 DUP7 DUP3 DUP8 ADD PUSH2 0x2296 JUMP JUMPDEST SWAP4 POP POP PUSH1 0x20 PUSH2 0x2418 DUP7 DUP3 DUP8 ADD PUSH2 0x2296 JUMP JUMPDEST SWAP3 POP POP PUSH1 0x40 PUSH2 0x2429 DUP7 DUP3 DUP8 ADD PUSH2 0x22CC JUMP JUMPDEST SWAP2 POP POP SWAP3 POP SWAP3 POP SWAP3 JUMP JUMPDEST PUSH2 0x243C DUP2 PUSH2 0x226D JUMP JUMPDEST DUP3 MSTORE POP POP JUMP JUMPDEST PUSH1 0x0 PUSH1 0xC0 DUP3 ADD SWAP1 POP PUSH2 0x2457 PUSH1 0x0 DUP4 ADD DUP10 PUSH2 0x2433 JUMP JUMPDEST PUSH2 0x2464 PUSH1 0x20 DUP4 ADD DUP9 PUSH2 0x2433 JUMP JUMPDEST PUSH2 0x2471 PUSH1 0x40 DUP4 ADD DUP8 PUSH2 0x235C JUMP JUMPDEST PUSH2 0x247E PUSH1 0x60 DUP4 ADD DUP7 PUSH2 0x235C JUMP JUMPDEST PUSH2 0x248B PUSH1 0x80 DUP4 ADD DUP6 PUSH2 0x235C JUMP JUMPDEST PUSH2 0x2498 PUSH1 0xA0 DUP4 ADD DUP5 PUSH2 0x235C JUMP JUMPDEST SWAP8 SWAP7 POP POP POP POP POP POP POP JUMP JUMPDEST PUSH1 0x0 DUP1 PUSH1 0x40 DUP4 DUP6 SUB SLT ISZERO PUSH2 0x24BA JUMPI PUSH2 0x24B9 PUSH2 0x2248 JUMP JUMPDEST JUMPDEST PUSH1 0x0 PUSH2 0x24C8 DUP6 DUP3 DUP7 ADD PUSH2 0x2296 JUMP JUMPDEST SWAP3 POP POP PUSH1 0x20 PUSH2 0x24D9 DUP6 DUP3 DUP7 ADD PUSH2 0x22CC JUMP JUMPDEST SWAP2 POP POP SWAP3 POP SWAP3 SWAP1 POP JUMP JUMPDEST PUSH1 0x0 DUP2 MLOAD SWAP1 POP SWAP2 SWAP1 POP JUMP JUMPDEST PUSH1 0x0 DUP3 DUP3 MSTORE PUSH1 0x20 DUP3 ADD SWAP1 POP SWAP3 SWAP2 POP POP JUMP JUMPDEST PUSH1 0x0 DUP2 SWAP1 POP PUSH1 0x20 DUP3 ADD SWAP1 POP SWAP2 SWAP1 POP JUMP JUMPDEST PUSH2 0x2518 DUP2 PUSH2 0x22AB JUMP JUMPDEST DUP3 MSTORE POP POP JUMP JUMPDEST PUSH1 0x0 PUSH2 0x252A DUP4 DUP4 PUSH2 0x250F JUMP JUMPDEST PUSH1 0x20 DUP4 ADD SWAP1 POP SWAP3 SWAP2 POP POP JUMP JUMPDEST PUSH1 0x0 PUSH1 0x20 DUP3 ADD SWAP1 POP SWAP2 SWAP1 POP JUMP JUMPDEST PUSH1 0x0 PUSH2 0x254E DUP3 PUSH2 0x24E3 JUMP JUMPDEST PUSH2 0x2558 DUP2 DUP6 PUSH2 0x24EE JUMP JUMPDEST SWAP4 POP PUSH2 0x2563 DUP4 PUSH2 0x24FF JUMP JUMPDEST DUP1 PUSH1 0x0 JUMPDEST DUP4 DUP2 LT ISZERO PUSH2 0x2594 JUMPI DUP2 MLOAD PUSH2 0x257B DUP9 DUP3 PUSH2 0x251E JUMP JUMPDEST SWAP8 POP PUSH2 0x2586 DUP4 PUSH2 0x2536 JUMP JUMPDEST SWAP3 POP POP PUSH1 0x1 DUP2 ADD SWAP1 POP PUSH2 0x2567 JUMP JUMPDEST POP DUP6 SWAP4 POP POP POP POP SWAP3 SWAP2 POP POP JUMP JUMPDEST PUSH1 0x0 PUSH1 0x20 DUP3 ADD SWAP1 POP DUP2 DUP2 SUB PUSH1 0x0 DUP4 ADD MSTORE PUSH2 0x25BB DUP2 DUP5 PUSH2 0x2543 JUMP JUMPDEST SWAP1 POP SWAP3 SWAP2 POP POP JUMP JUMPDEST PUSH1 0x0 DUP1 PUSH1 0x40 DUP4 DUP6 SUB SLT ISZERO PUSH2 0x25DA JUMPI PUSH2 0x25D9 PUSH2 0x2248 JUMP JUMPDEST JUMPDEST PUSH1 0x0 PUSH2 0x25E8 DUP6 DUP3 DUP7 ADD PUSH2 0x22CC JUMP JUMPDEST SWAP3 POP POP PUSH1 0x20 PUSH2 0x25F9 DUP6 DUP3 DUP7 ADD PUSH2 0x22CC JUMP JUMPDEST SWAP2 POP POP SWAP3 POP SWAP3 SWAP1 POP JUMP JUMPDEST PUSH1 0x0 DUP1 PUSH1 0x40 DUP4 DUP6 SUB SLT ISZERO PUSH2 0x261A JUMPI PUSH2 0x2619 PUSH2 0x2248 JUMP JUMPDEST JUMPDEST PUSH1 0x0 PUSH2 0x2628 DUP6 DUP3 DUP7 ADD PUSH2 0x22CC JUMP JUMPDEST SWAP3 POP POP PUSH1 0x20 PUSH2 0x2639 DUP6 DUP3 DUP7 ADD PUSH2 0x2296 JUMP JUMPDEST SWAP2 POP POP SWAP3 POP SWAP3 SWAP1 POP JUMP JUMPDEST PUSH1 0x0 PUSH1 0x20 DUP3 ADD SWAP1 POP PUSH2 0x2658 PUSH1 0x0 DUP4 ADD DUP5 PUSH2 0x2433 JUMP JUMPDEST SWAP3 SWAP2 POP POP JUMP JUMPDEST PUSH1 0x0 DUP1 PUSH1 0x0 DUP1 PUSH1 0x80 DUP6 DUP8 SUB SLT ISZERO PUSH2 0x2678 JUMPI PUSH2 0x2677 PUSH2 0x2248 JUMP JUMPDEST JUMPDEST PUSH1 0x0 PUSH2 0x2686 DUP8 DUP3 DUP9 ADD PUSH2 0x2296 JUMP JUMPDEST SWAP5 POP POP PUSH1 0x20 PUSH2 0x2697 DUP8 DUP3 DUP9 ADD PUSH2 0x22CC JUMP JUMPDEST SWAP4 POP POP PUSH1 0x40 PUSH2 0x26A8 DUP8 DUP3 DUP9 ADD PUSH2 0x22CC JUMP JUMPDEST SWAP3 POP POP PUSH1 0x60 PUSH2 0x26B9 DUP8 DUP3 DUP9 ADD PUSH2 0x22CC JUMP JUMPDEST SWAP2 POP POP SWAP3 SWAP6 SWAP2 SWAP5 POP SWAP3 POP JUMP JUMPDEST PUSH1 0x0 DUP3 DUP3 MSTORE PUSH1 0x20 DUP3 ADD SWAP1 POP SWAP3 SWAP2 POP POP JUMP JUMPDEST PUSH32 0x505349506164546F6B656E4C6F636B466163746F72793A20414D4F554E545F5A PUSH1 0x0 DUP3 ADD MSTORE PUSH32 0x45524F0000000000000000000000000000000000000000000000000000000000 PUSH1 0x20 DUP3 ADD MSTORE POP JUMP JUMPDEST PUSH1 0x0 PUSH2 0x2732 PUSH1 0x23 DUP4 PUSH2 0x26C5 JUMP JUMPDEST SWAP2 POP PUSH2 0x273D DUP3 PUSH2 0x26D6 JUMP JUMPDEST PUSH1 0x40 DUP3 ADD SWAP1 POP SWAP2 SWAP1 POP JUMP JUMPDEST PUSH1 0x0 PUSH1 0x20 DUP3 ADD SWAP1 POP DUP2 DUP2 SUB PUSH1 0x0 DUP4 ADD MSTORE PUSH2 0x2761 DUP2 PUSH2 0x2725 JUMP JUMPDEST SWAP1 POP SWAP2 SWAP1 POP JUMP JUMPDEST PUSH32 0x505349506164546F6B656E4C6F636B466163746F72793A204645455F4E4F545F PUSH1 0x0 DUP3 ADD MSTORE PUSH32 0x5041594544000000000000000000000000000000000000000000000000000000 PUSH1 0x20 DUP3 ADD MSTORE POP JUMP JUMPDEST PUSH1 0x0 PUSH2 0x27C4 PUSH1 0x25 DUP4 PUSH2 0x26C5 JUMP JUMPDEST SWAP2 POP PUSH2 0x27CF DUP3 PUSH2 0x2768 JUMP JUMPDEST PUSH1 0x40 DUP3 ADD SWAP1 POP SWAP2 SWAP1 POP JUMP JUMPDEST PUSH1 0x0 PUSH1 0x20 DUP3 ADD SWAP1 POP DUP2 DUP2 SUB PUSH1 0x0 DUP4 ADD MSTORE PUSH2 0x27F3 DUP2 PUSH2 0x27B7 JUMP JUMPDEST SWAP1 POP SWAP2 SWAP1 POP JUMP JUMPDEST PUSH1 0x0 DUP2 MLOAD SWAP1 POP PUSH2 0x2809 DUP2 PUSH2 0x22B5 JUMP JUMPDEST SWAP3 SWAP2 POP POP JUMP JUMPDEST PUSH1 0x0 PUSH1 0x20 DUP3 DUP5 SUB SLT ISZERO PUSH2 0x2825 JUMPI PUSH2 0x2824 PUSH2 0x2248 JUMP JUMPDEST JUMPDEST PUSH1 0x0 PUSH2 0x2833 DUP5 DUP3 DUP6 ADD PUSH2 0x27FA JUMP JUMPDEST SWAP2 POP POP SWAP3 SWAP2 POP POP JUMP JUMPDEST PUSH32 0x505349506164546F6B656E4C6F636B466163746F72793A20414D4F554E545F5A PUSH1 0x0 DUP3 ADD MSTORE PUSH32 0x45524F5F41465445525F5452414E534645520000000000000000000000000000 PUSH1 0x20 DUP3 ADD MSTORE POP JUMP JUMPDEST PUSH1 0x0 PUSH2 0x2898 PUSH1 0x32 DUP4 PUSH2 0x26C5 JUMP JUMPDEST SWAP2 POP PUSH2 0x28A3 DUP3 PUSH2 0x283C JUMP JUMPDEST PUSH1 0x40 DUP3 ADD SWAP1 POP SWAP2 SWAP1 POP JUMP JUMPDEST PUSH1 0x0 PUSH1 0x20 DUP3 ADD SWAP1 POP DUP2 DUP2 SUB PUSH1 0x0 DUP4 ADD MSTORE PUSH2 0x28C7 DUP2 PUSH2 0x288B JUMP JUMPDEST SWAP1 POP SWAP2 SWAP1 POP JUMP JUMPDEST PUSH32 0x4E487B7100000000000000000000000000000000000000000000000000000000 PUSH1 0x0 MSTORE PUSH1 0x11 PUSH1 0x4 MSTORE PUSH1 0x24 PUSH1 0x0 REVERT JUMPDEST PUSH1 0x0 PUSH2 0x2908 DUP3 PUSH2 0x22AB JUMP JUMPDEST SWAP2 POP PUSH2 0x2913 DUP4 PUSH2 0x22AB JUMP JUMPDEST SWAP3 POP DUP3 DUP3 LT ISZERO PUSH2 0x2926 JUMPI PUSH2 0x2925 PUSH2 0x28CE JUMP JUMPDEST JUMPDEST DUP3 DUP3 SUB SWAP1 POP SWAP3 SWAP2 POP POP JUMP JUMPDEST PUSH32 0x4E487B7100000000000000000000000000000000000000000000000000000000 PUSH1 0x0 MSTORE PUSH1 0x32 PUSH1 0x4 MSTORE PUSH1 0x24 PUSH1 0x0 REVERT JUMPDEST PUSH32 0x496E697469616C697A61626C653A20636F6E747261637420697320616C726561 PUSH1 0x0 DUP3 ADD MSTORE PUSH32 0x647920696E697469616C697A6564000000000000000000000000000000000000 PUSH1 0x20 DUP3 ADD MSTORE POP JUMP JUMPDEST PUSH1 0x0 PUSH2 0x29BC PUSH1 0x2E DUP4 PUSH2 0x26C5 JUMP JUMPDEST SWAP2 POP PUSH2 0x29C7 DUP3 PUSH2 0x2960 JUMP JUMPDEST PUSH1 0x40 DUP3 ADD SWAP1 POP SWAP2 SWAP1 POP JUMP JUMPDEST PUSH1 0x0 PUSH1 0x20 DUP3 ADD SWAP1 POP DUP2 DUP2 SUB PUSH1 0x0 DUP4 ADD MSTORE PUSH2 0x29EB DUP2 PUSH2 0x29AF JUMP JUMPDEST SWAP1 POP SWAP2 SWAP1 POP JUMP JUMPDEST PUSH1 0x0 DUP2 SWAP1 POP SWAP2 SWAP1 POP JUMP JUMPDEST PUSH1 0x0 PUSH1 0xFF DUP3 AND SWAP1 POP SWAP2 SWAP1 POP JUMP JUMPDEST PUSH1 0x0 DUP2 SWAP1 POP SWAP2 SWAP1 POP JUMP JUMPDEST PUSH1 0x0 PUSH2 0x2A2E PUSH2 0x2A29 PUSH2 0x2A24 DUP5 PUSH2 0x29F2 JUMP JUMPDEST PUSH2 0x2A09 JUMP JUMPDEST PUSH2 0x29FC JUMP JUMPDEST SWAP1 POP SWAP2 SWAP1 POP JUMP JUMPDEST PUSH2 0x2A3E DUP2 PUSH2 0x2A13 JUMP JUMPDEST DUP3 MSTORE POP POP JUMP JUMPDEST PUSH1 0x0 PUSH1 0x20 DUP3 ADD SWAP1 POP PUSH2 0x2A59 PUSH1 0x0 DUP4 ADD DUP5 PUSH2 0x2A35 JUMP JUMPDEST SWAP3 SWAP2 POP POP JUMP JUMPDEST PUSH32 0x505349506164546F6B656E4C6F636B466163746F72793A204C4F434B5F444F45 PUSH1 0x0 DUP3 ADD MSTORE PUSH32 0x535F4E4F545F4558495354000000000000000000000000000000000000000000 PUSH1 0x20 DUP3 ADD MSTORE POP JUMP JUMPDEST PUSH1 0x0 PUSH2 0x2ABB PUSH1 0x2B DUP4 PUSH2 0x26C5 JUMP JUMPDEST SWAP2 POP PUSH2 0x2AC6 DUP3 PUSH2 0x2A5F JUMP JUMPDEST PUSH1 0x40 DUP3 ADD SWAP1 POP SWAP2 SWAP1 POP JUMP JUMPDEST PUSH1 0x0 PUSH1 0x20 DUP3 ADD SWAP1 POP DUP2 DUP2 SUB PUSH1 0x0 DUP4 ADD MSTORE PUSH2 0x2AEA DUP2 PUSH2 0x2AAE JUMP JUMPDEST SWAP1 POP SWAP2 SWAP1 POP JUMP JUMPDEST PUSH32 0x505349506164546F6B656E4C6F636B466163746F72793A20554E415554484F52 PUSH1 0x0 DUP3 ADD MSTORE PUSH32 0x495A454400000000000000000000000000000000000000000000000000000000 PUSH1 0x20 DUP3 ADD MSTORE POP JUMP JUMPDEST PUSH1 0x0 PUSH2 0x2B4D PUSH1 0x24 DUP4 PUSH2 0x26C5 JUMP JUMPDEST SWAP2 POP PUSH2 0x2B58 DUP3 PUSH2 0x2AF1 JUMP JUMPDEST PUSH1 0x40 DUP3 ADD SWAP1 POP SWAP2 SWAP1 POP JUMP JUMPDEST PUSH1 0x0 PUSH1 0x20 DUP3 ADD SWAP1 POP DUP2 DUP2 SUB PUSH1 0x0 DUP4 ADD MSTORE PUSH2 0x2B7C DUP2 PUSH2 0x2B40 JUMP JUMPDEST SWAP1 POP SWAP2 SWAP1 POP JUMP JUMPDEST PUSH32 0x505349506164546F6B656E4C6F636B466163746F72793A20414D4F554E545F54 PUSH1 0x0 DUP3 ADD MSTORE PUSH32 0x4F5F484947485F4F525F4C4F434B454400000000000000000000000000000000 PUSH1 0x20 DUP3 ADD MSTORE POP JUMP JUMPDEST PUSH1 0x0 PUSH2 0x2BDF PUSH1 0x30 DUP4 PUSH2 0x26C5 JUMP JUMPDEST SWAP2 POP PUSH2 0x2BEA DUP3 PUSH2 0x2B83 JUMP JUMPDEST PUSH1 0x40 DUP3 ADD SWAP1 POP SWAP2 SWAP1 POP JUMP JUMPDEST PUSH1 0x0 PUSH1 0x20 DUP3 ADD SWAP1 POP DUP2 DUP2 SUB PUSH1 0x0 DUP4 ADD MSTORE PUSH2 0x2C0E DUP2 PUSH2 0x2BD2 JUMP JUMPDEST SWAP1 POP SWAP2 SWAP1 POP JUMP JUMPDEST PUSH32 0x505349506164546F6B656E4C6F636B466163746F72793A204E4F5F414D4F554E PUSH1 0x0 DUP3 ADD MSTORE PUSH32 0x545F415641494C41424C45000000000000000000000000000000000000000000 PUSH1 0x20 DUP3 ADD MSTORE POP JUMP JUMPDEST PUSH1 0x0 PUSH2 0x2C71 PUSH1 0x2B DUP4 PUSH2 0x26C5 JUMP JUMPDEST SWAP2 POP PUSH2 0x2C7C DUP3 PUSH2 0x2C15 JUMP JUMPDEST PUSH1 0x40 DUP3 ADD SWAP1 POP SWAP2 SWAP1 POP JUMP JUMPDEST PUSH1 0x0 PUSH1 0x20 DUP3 ADD SWAP1 POP DUP2 DUP2 SUB PUSH1 0x0 DUP4 ADD MSTORE PUSH2 0x2CA0 DUP2 PUSH2 0x2C64 JUMP JUMPDEST SWAP1 POP SWAP2 SWAP1 POP JUMP JUMPDEST PUSH32 0x505349506164546F6B656E4C6F636B466163746F72793A204F4C445F4F574E45 PUSH1 0x0 DUP3 ADD MSTORE PUSH32 0x525F4E4F545F464F554E44000000000000000000000000000000000000000000 PUSH1 0x20 DUP3 ADD MSTORE POP JUMP JUMPDEST PUSH1 0x0 PUSH2 0x2D03 PUSH1 0x2B DUP4 PUSH2 0x26C5 JUMP JUMPDEST SWAP2 POP PUSH2 0x2D0E DUP3 PUSH2 0x2CA7 JUMP JUMPDEST PUSH1 0x40 DUP3 ADD SWAP1 POP SWAP2 SWAP1 POP JUMP JUMPDEST PUSH1 0x0 PUSH1 0x20 DUP3 ADD SWAP1 POP DUP2 DUP2 SUB PUSH1 0x0 DUP4 ADD MSTORE PUSH2 0x2D32 DUP2 PUSH2 0x2CF6 JUMP JUMPDEST SWAP1 POP SWAP2 SWAP1 POP JUMP JUMPDEST PUSH1 0x0 PUSH2 0x2D44 DUP3 PUSH2 0x22AB JUMP JUMPDEST SWAP2 POP PUSH1 0x0 DUP3 EQ ISZERO PUSH2 0x2D58 JUMPI PUSH2 0x2D57 PUSH2 0x28CE JUMP JUMPDEST JUMPDEST PUSH1 0x1 DUP3 SUB SWAP1 POP SWAP2 SWAP1 POP JUMP JUMPDEST PUSH32 0x4E487B7100000000000000000000000000000000000000000000000000000000 PUSH1 0x0 MSTORE PUSH1 0x31 PUSH1 0x4 MSTORE PUSH1 0x24 PUSH1 0x0 REVERT JUMPDEST PUSH32 0x4F776E61626C653A206E6577206F776E657220697320746865207A65726F2061 PUSH1 0x0 DUP3 ADD MSTORE PUSH32 0x6464726573730000000000000000000000000000000000000000000000000000 PUSH1 0x20 DUP3 ADD MSTORE POP JUMP JUMPDEST PUSH1 0x0 PUSH2 0x2DEE PUSH1 0x26 DUP4 PUSH2 0x26C5 JUMP JUMPDEST SWAP2 POP PUSH2 0x2DF9 DUP3 PUSH2 0x2D92 JUMP JUMPDEST PUSH1 0x40 DUP3 ADD SWAP1 POP SWAP2 SWAP1 POP JUMP JUMPDEST PUSH1 0x0 PUSH1 0x20 DUP3 ADD SWAP1 POP DUP2 DUP2 SUB PUSH1 0x0 DUP4 ADD MSTORE PUSH2 0x2E1D DUP2 PUSH2 0x2DE1 JUMP JUMPDEST SWAP1 POP SWAP2 SWAP1 POP JUMP JUMPDEST PUSH1 0x0 PUSH1 0x40 DUP3 ADD SWAP1 POP PUSH2 0x2E39 PUSH1 0x0 DUP4 ADD DUP6 PUSH2 0x2433 JUMP JUMPDEST PUSH2 0x2E46 PUSH1 0x20 DUP4 ADD DUP5 PUSH2 0x235C JUMP JUMPDEST SWAP4 SWAP3 POP POP POP JUMP JUMPDEST PUSH1 0x0 PUSH1 0x60 DUP3 ADD SWAP1 POP PUSH2 0x2E62 PUSH1 0x0 DUP4 ADD DUP7 PUSH2 0x2433 JUMP JUMPDEST PUSH2 0x2E6F PUSH1 0x20 DUP4 ADD DUP6 PUSH2 0x2433 JUMP JUMPDEST PUSH2 0x2E7C PUSH1 0x40 DUP4 ADD DUP5 PUSH2 0x235C JUMP JUMPDEST SWAP5 SWAP4 POP POP POP POP JUMP JUMPDEST PUSH32 0x4F776E61626C653A2063616C6C6572206973206E6F7420746865206F776E6572 PUSH1 0x0 DUP3 ADD MSTORE POP JUMP JUMPDEST PUSH1 0x0 PUSH2 0x2EBA PUSH1 0x20 DUP4 PUSH2 0x26C5 JUMP JUMPDEST SWAP2 POP PUSH2 0x2EC5 DUP3 PUSH2 0x2E84 JUMP JUMPDEST PUSH1 0x20 DUP3 ADD SWAP1 POP SWAP2 SWAP1 POP JUMP JUMPDEST PUSH1 0x0 PUSH1 0x20 DUP3 ADD SWAP1 POP DUP2 DUP2 SUB PUSH1 0x0 DUP4 ADD MSTORE PUSH2 0x2EE9 DUP2 PUSH2 0x2EAD JUMP JUMPDEST SWAP1 POP SWAP2 SWAP1 POP JUMP JUMPDEST PUSH32 0x496E697469616C697A61626C653A20636F6E7472616374206973206E6F742069 PUSH1 0x0 DUP3 ADD MSTORE PUSH32 0x6E697469616C697A696E67000000000000000000000000000000000000000000 PUSH1 0x20 DUP3 ADD MSTORE POP JUMP JUMPDEST PUSH1 0x0 PUSH2 0x2F4C PUSH1 0x2B DUP4 PUSH2 0x26C5 JUMP JUMPDEST SWAP2 POP PUSH2 0x2F57 DUP3 PUSH2 0x2EF0 JUMP JUMPDEST PUSH1 0x40 DUP3 ADD SWAP1 POP SWAP2 SWAP1 POP JUMP JUMPDEST PUSH1 0x0 PUSH1 0x20 DUP3 ADD SWAP1 POP DUP2 DUP2 SUB PUSH1 0x0 DUP4 ADD MSTORE PUSH2 0x2F7B DUP2 PUSH2 0x2F3F JUMP JUMPDEST SWAP1 POP SWAP2 SWAP1 POP JUMP JUMPDEST PUSH1 0x0 PUSH2 0x2F8D DUP3 PUSH2 0x22AB JUMP JUMPDEST SWAP2 POP PUSH2 0x2F98 DUP4 PUSH2 0x22AB JUMP JUMPDEST SWAP3 POP DUP3 PUSH32 0xFFFFFFFFFFFFFFFFFFFFFFFFFFFFFFFFFFFFFFFFFFFFFFFFFFFFFFFFFFFFFFFF SUB DUP3 GT ISZERO PUSH2 0x2FCD JUMPI PUSH2 0x2FCC PUSH2 0x28CE JUMP JUMPDEST JUMPDEST DUP3 DUP3 ADD SWAP1 POP SWAP3 SWAP2 POP POP JUMP JUMPDEST PUSH1 0x0 PUSH2 0x2FE3 DUP3 PUSH2 0x22AB JUMP JUMPDEST SWAP2 POP PUSH2 0x2FEE DUP4 PUSH2 0x22AB JUMP JUMPDEST SWAP3 POP DUP2 PUSH32 0xFFFFFFFFFFFFFFFFFFFFFFFFFFFFFFFFFFFFFFFFFFFFFFFFFFFFFFFFFFFFFFFF DIV DUP4 GT DUP3 ISZERO ISZERO AND ISZERO PUSH2 0x3027 JUMPI PUSH2 0x3026 PUSH2 0x28CE JUMP JUMPDEST JUMPDEST DUP3 DUP3 MUL SWAP1 POP SWAP3 SWAP2 POP POP JUMP JUMPDEST PUSH32 0x4E487B7100000000000000000000000000000000000000000000000000000000 PUSH1 0x0 MSTORE PUSH1 0x12 PUSH1 0x4 MSTORE PUSH1 0x24 PUSH1 0x0 REVERT JUMPDEST PUSH1 0x0 PUSH2 0x306C DUP3 PUSH2 0x22AB JUMP JUMPDEST SWAP2 POP PUSH2 0x3077 DUP4 PUSH2 0x22AB JUMP JUMPDEST SWAP3 POP DUP3 PUSH2 0x3087 JUMPI PUSH2 0x3086 PUSH2 0x3032 JUMP JUMPDEST JUMPDEST DUP3 DUP3 DIV SWAP1 POP SWAP3 SWAP2 POP POP JUMP JUMPDEST PUSH1 0x0 DUP2 ISZERO ISZERO SWAP1 POP SWAP2 SWAP1 POP JUMP JUMPDEST PUSH2 0x30A7 DUP2 PUSH2 0x3092 JUMP JUMPDEST DUP2 EQ PUSH2 0x30B2 JUMPI PUSH1 0x0 DUP1 REVERT JUMPDEST POP JUMP JUMPDEST PUSH1 0x0 DUP2 MLOAD SWAP1 POP PUSH2 0x30C4 DUP2 PUSH2 0x309E JUMP JUMPDEST SWAP3 SWAP2 POP POP JUMP JUMPDEST PUSH1 0x0 PUSH1 0x20 DUP3 DUP5 SUB SLT ISZERO PUSH2 0x30E0 JUMPI PUSH2 0x30DF PUSH2 0x2248 JUMP JUMPDEST JUMPDEST PUSH1 0x0 PUSH2 0x30EE DUP5 DUP3 DUP6 ADD PUSH2 0x30B5 JUMP JUMPDEST SWAP2 POP POP SWAP3 SWAP2 POP POP JUMP JUMPDEST PUSH32 0x5361666545524332303A204552433230206F7065726174696F6E20646964206E PUSH1 0x0 DUP3 ADD MSTORE PUSH32 0x6F74207375636365656400000000000000000000000000000000000000000000 PUSH1 0x20 DUP3 ADD MSTORE POP JUMP JUMPDEST PUSH1 0x0 PUSH2 0x3153 PUSH1 0x2A DUP4 PUSH2 0x26C5 JUMP JUMPDEST SWAP2 POP PUSH2 0x315E DUP3 PUSH2 0x30F7 JUMP JUMPDEST PUSH1 0x40 DUP3 ADD SWAP1 POP SWAP2 SWAP1 POP JUMP JUMPDEST PUSH1 0x0 PUSH1 0x20 DUP3 ADD SWAP1 POP DUP2 DUP2 SUB PUSH1 0x0 DUP4 ADD MSTORE PUSH2 0x3182 DUP2 PUSH2 0x3146 JUMP JUMPDEST SWAP1 POP SWAP2 SWAP1 POP JUMP JUMPDEST PUSH32 0x416464726573733A20696E73756666696369656E742062616C616E636520666F PUSH1 0x0 DUP3 ADD MSTORE PUSH32 0x722063616C6C0000000000000000000000000000000000000000000000000000 PUSH1 0x20 DUP3 ADD MSTORE POP JUMP JUMPDEST PUSH1 0x0 PUSH2 0x31E5 PUSH1 0x26 DUP4 PUSH2 0x26C5 JUMP JUMPDEST SWAP2 POP PUSH2 0x31F0 DUP3 PUSH2 0x3189 JUMP JUMPDEST PUSH1 0x40 DUP3 ADD SWAP1 POP SWAP2 SWAP1 POP JUMP JUMPDEST PUSH1 0x0 PUSH1 0x20 DUP3 ADD SWAP1 POP DUP2 DUP2 SUB PUSH1 0x0 DUP4 ADD MSTORE PUSH2 0x3214 DUP2 PUSH2 0x31D8 JUMP JUMPDEST SWAP1 POP SWAP2 SWAP1 POP JUMP JUMPDEST PUSH1 0x0 DUP2 MLOAD SWAP1 POP SWAP2 SWAP1 POP JUMP JUMPDEST PUSH1 0x0 DUP2 SWAP1 POP SWAP3 SWAP2 POP POP JUMP JUMPDEST PUSH1 0x0 JUMPDEST DUP4 DUP2 LT ISZERO PUSH2 0x324F JUMPI DUP1 DUP3 ADD MLOAD DUP2 DUP5 ADD MSTORE PUSH1 0x20 DUP2 ADD SWAP1 POP PUSH2 0x3234 JUMP JUMPDEST DUP4 DUP2 GT ISZERO PUSH2 0x325E JUMPI PUSH1 0x0 DUP5 DUP5 ADD MSTORE JUMPDEST POP POP POP POP JUMP JUMPDEST PUSH1 0x0 PUSH2 0x326F DUP3 PUSH2 0x321B JUMP JUMPDEST PUSH2 0x3279 DUP2 DUP6 PUSH2 0x3226 JUMP JUMPDEST SWAP4 POP PUSH2 0x3289 DUP2 DUP6 PUSH1 0x20 DUP7 ADD PUSH2 0x3231 JUMP JUMPDEST DUP1 DUP5 ADD SWAP2 POP POP SWAP3 SWAP2 POP POP JUMP JUMPDEST PUSH1 0x0 PUSH2 0x32A1 DUP3 DUP5 PUSH2 0x3264 JUMP JUMPDEST SWAP2 POP DUP2 SWAP1 POP SWAP3 SWAP2 POP POP JUMP JUMPDEST PUSH32 0x416464726573733A2063616C6C20746F206E6F6E2D636F6E7472616374000000 PUSH1 0x0 DUP3 ADD MSTORE POP JUMP JUMPDEST PUSH1 0x0 PUSH2 0x32E2 PUSH1 0x1D DUP4 PUSH2 0x26C5 JUMP JUMPDEST SWAP2 POP PUSH2 0x32ED DUP3 PUSH2 0x32AC JUMP JUMPDEST PUSH1 0x20 DUP3 ADD SWAP1 POP SWAP2 SWAP1 POP JUMP JUMPDEST PUSH1 0x0 PUSH1 0x20 DUP3 ADD SWAP1 POP DUP2 DUP2 SUB PUSH1 0x0 DUP4 ADD MSTORE PUSH2 0x3311 DUP2 PUSH2 0x32D5 JUMP JUMPDEST SWAP1 POP SWAP2 SWAP1 POP JUMP JUMPDEST PUSH1 0x0 DUP2 MLOAD SWAP1 POP SWAP2 SWAP1 POP JUMP JUMPDEST PUSH1 0x0 PUSH1 0x1F NOT PUSH1 0x1F DUP4 ADD AND SWAP1 POP SWAP2 SWAP1 POP JUMP JUMPDEST PUSH1 0x0 PUSH2 0x333F DUP3 PUSH2 0x3318 JUMP JUMPDEST PUSH2 0x3349 DUP2 DUP6 PUSH2 0x26C5 JUMP JUMPDEST SWAP4 POP PUSH2 0x3359 DUP2 DUP6 PUSH1 0x20 DUP7 ADD PUSH2 0x3231 JUMP JUMPDEST PUSH2 0x3362 DUP2 PUSH2 0x3323 JUMP JUMPDEST DUP5 ADD SWAP2 POP POP SWAP3 SWAP2 POP POP JUMP JUMPDEST PUSH1 0x0 PUSH1 0x20 DUP3 ADD SWAP1 POP DUP2 DUP2 SUB PUSH1 0x0 DUP4 ADD MSTORE PUSH2 0x3387 DUP2 DUP5 PUSH2 0x3334 JUMP JUMPDEST SWAP1 POP SWAP3 SWAP2 POP POP JUMP INVALID LOG2 PUSH5 0x6970667358 0x22 SLT KECCAK256 PUSH29 0x5B5330A099CB490FC7DADFC1BAD591DA5FE25CE26324E07FC0348D8684 SLT 0x4A PUSH5 0x736F6C6343 STOP ADDMOD 0xC STOP CALLER "
        },
        "methodIdentifiers": {
          "amountToUnlock(uint256)": "0af79f79",
          "changeOwner(uint256,address)": "784796f7",
          "fee_aggregator()": "f8bd130b",
          "getTokenLocks(address)": "f357dc08",
          "getTokensLockedCount()": "7368c64f",
          "getUserLocks(address)": "23a35de9",
          "initialize(address,address,uint256)": "1794bb3c",
          "lock(address,uint256,uint256,uint256)": "c97be180",
          "lock(address,uint256,uint256,uint256,address)": "0301eb20",
          "owner()": "8da5cb5b",
          "renounceOwnership()": "715018a6",
          "setFeeAggregator(address)": "15b358e0",
          "setWrappedCoin(address)": "cbc0fb59",
          "setWrappedCoinFee(uint256)": "53118659",
          "tokenToLocks(address,uint256)": "202046df",
          "tokensLocked(uint256)": "1ddb1d34",
          "transferOwnership(address)": "f2fde38b",
          "unlock(uint256,uint256)": "5bfadb24",
          "unlockAvailable(uint256)": "657a1c19",
          "unlockedAmount(uint256)": "c90376e4",
          "userTokensLocked(address,uint256)": "775db325",
          "wrapped_coin()": "ad66e81d",
          "wrapped_coin_fee()": "d637533e"
        }
      }
    }
  }
}