{
  "_format": "hh-sol-artifact-1",
  "contractName": "RoboLiquidity",
  "sourceName": "contracts/masterchef.sol",
  "abi": [
    {
      "inputs": [
        {
          "internalType": "contract IERC20",
          "name": "_ROBO",
          "type": "address"
        },
        {
          "internalType": "uint256",
          "name": "_totalRoboPerBlock",
          "type": "uint256"
        },
        {
          "internalType": "address",
          "name": "_roboTreasury",
          "type": "address"
        }
      ],
      "stateMutability": "nonpayable",
      "type": "constructor"
    },
    {
      "anonymous": false,
      "inputs": [
        {
          "indexed": true,
          "internalType": "uint256",
          "name": "pid",
          "type": "uint256"
        },
        {
          "indexed": false,
          "internalType": "uint256",
          "name": "allocPoint",
          "type": "uint256"
        },
        {
          "indexed": true,
          "internalType": "contract IERC20",
          "name": "lpToken",
          "type": "address"
        },
        {
          "indexed": false,
          "internalType": "bool",
          "name": "isRegular",
          "type": "bool"
        }
      ],
      "name": "AddPool",
      "type": "event"
    },
    {
      "anonymous": false,
      "inputs": [
        {
          "indexed": true,
          "internalType": "address",
          "name": "user",
          "type": "address"
        },
        {
          "indexed": true,
          "internalType": "uint256",
          "name": "pid",
          "type": "uint256"
        },
        {
          "indexed": false,
          "internalType": "uint256",
          "name": "amount",
          "type": "uint256"
        }
      ],
      "name": "Deposit",
      "type": "event"
    },
    {
      "anonymous": false,
      "inputs": [
        {
          "indexed": true,
          "internalType": "address",
          "name": "user",
          "type": "address"
        },
        {
          "indexed": true,
          "internalType": "uint256",
          "name": "pid",
          "type": "uint256"
        },
        {
          "indexed": false,
          "internalType": "uint256",
          "name": "amount",
          "type": "uint256"
        }
      ],
      "name": "EmergencyWithdraw",
      "type": "event"
    },
    {
      "anonymous": false,
      "inputs": [],
      "name": "Init",
      "type": "event"
    },
    {
      "anonymous": false,
      "inputs": [
        {
          "indexed": true,
          "internalType": "address",
          "name": "previousOwner",
          "type": "address"
        },
        {
          "indexed": true,
          "internalType": "address",
          "name": "newOwner",
          "type": "address"
        }
      ],
      "name": "OwnershipTransferred",
      "type": "event"
    },
    {
      "anonymous": false,
      "inputs": [
        {
          "indexed": true,
          "internalType": "uint256",
          "name": "pid",
          "type": "uint256"
        },
        {
          "indexed": false,
          "internalType": "uint256",
          "name": "allocPoint",
          "type": "uint256"
        }
      ],
      "name": "SetPool",
      "type": "event"
    },
    {
      "anonymous": false,
      "inputs": [
        {
          "indexed": true,
          "internalType": "address",
          "name": "boostContract",
          "type": "address"
        }
      ],
      "name": "UpdateBoostContract",
      "type": "event"
    },
    {
      "anonymous": false,
      "inputs": [
        {
          "indexed": true,
          "internalType": "address",
          "name": "user",
          "type": "address"
        },
        {
          "indexed": false,
          "internalType": "uint256",
          "name": "pid",
          "type": "uint256"
        },
        {
          "indexed": false,
          "internalType": "uint256",
          "name": "oldMultiplier",
          "type": "uint256"
        },
        {
          "indexed": false,
          "internalType": "uint256",
          "name": "newMultiplier",
          "type": "uint256"
        }
      ],
      "name": "UpdateBoostMultiplier",
      "type": "event"
    },
    {
      "anonymous": false,
      "inputs": [
        {
          "indexed": true,
          "internalType": "address",
          "name": "oldAdmin",
          "type": "address"
        },
        {
          "indexed": true,
          "internalType": "address",
          "name": "newAdmin",
          "type": "address"
        }
      ],
      "name": "UpdateBurnAdmin",
      "type": "event"
    },
    {
      "anonymous": false,
      "inputs": [
        {
          "indexed": true,
          "internalType": "uint256",
          "name": "pid",
          "type": "uint256"
        },
        {
          "indexed": false,
          "internalType": "uint256",
          "name": "lastRewardBlock",
          "type": "uint256"
        },
        {
          "indexed": false,
          "internalType": "uint256",
          "name": "lpSupply",
          "type": "uint256"
        },
        {
          "indexed": false,
          "internalType": "uint256",
          "name": "accRoboPerShare",
          "type": "uint256"
        }
      ],
      "name": "UpdatePool",
      "type": "event"
    },
    {
      "anonymous": false,
      "inputs": [
        {
          "indexed": false,
          "internalType": "uint256",
          "name": "burnRate",
          "type": "uint256"
        },
        {
          "indexed": false,
          "internalType": "uint256",
          "name": "regularFarmRate",
          "type": "uint256"
        },
        {
          "indexed": false,
          "internalType": "uint256",
          "name": "specialFarmRate",
          "type": "uint256"
        }
      ],
      "name": "UpdateRoboRate",
      "type": "event"
    },
    {
      "anonymous": false,
      "inputs": [
        {
          "indexed": true,
          "internalType": "address",
          "name": "user",
          "type": "address"
        },
        {
          "indexed": false,
          "internalType": "bool",
          "name": "isValid",
          "type": "bool"
        }
      ],
      "name": "UpdateWhiteList",
      "type": "event"
    },
    {
      "anonymous": false,
      "inputs": [
        {
          "indexed": true,
          "internalType": "address",
          "name": "user",
          "type": "address"
        },
        {
          "indexed": true,
          "internalType": "uint256",
          "name": "pid",
          "type": "uint256"
        },
        {
          "indexed": false,
          "internalType": "uint256",
          "name": "amount",
          "type": "uint256"
        }
      ],
      "name": "Withdraw",
      "type": "event"
    },
    {
      "inputs": [],
      "name": "ACC_ROBO_PRECISION",
      "outputs": [
        {
          "internalType": "uint256",
          "name": "",
          "type": "uint256"
        }
      ],
      "stateMutability": "view",
      "type": "function"
    },
    {
      "inputs": [],
      "name": "BOOST_PRECISION",
      "outputs": [
        {
          "internalType": "uint256",
          "name": "",
          "type": "uint256"
        }
      ],
      "stateMutability": "view",
      "type": "function"
    },
    {
      "inputs": [],
      "name": "MAX_BOOST_PRECISION",
      "outputs": [
        {
          "internalType": "uint256",
          "name": "",
          "type": "uint256"
        }
      ],
      "stateMutability": "view",
      "type": "function"
    },
    {
      "inputs": [],
      "name": "ROBO",
      "outputs": [
        {
          "internalType": "contract IERC20",
          "name": "",
          "type": "address"
        }
      ],
      "stateMutability": "view",
      "type": "function"
    },
    {
      "inputs": [],
      "name": "ROBO_RATE_TOTAL_PRECISION",
      "outputs": [
        {
          "internalType": "uint256",
          "name": "",
          "type": "uint256"
        }
      ],
      "stateMutability": "view",
      "type": "function"
    },
    {
      "inputs": [
        {
          "internalType": "uint256",
          "name": "_allocPoint",
          "type": "uint256"
        },
        {
          "internalType": "contract IERC20",
          "name": "_lpToken",
          "type": "address"
        },
        {
          "internalType": "bool",
          "name": "_isRegular",
          "type": "bool"
        },
        {
          "internalType": "bool",
          "name": "_withUpdate",
          "type": "bool"
        }
      ],
      "name": "add",
      "outputs": [],
      "stateMutability": "nonpayable",
      "type": "function"
    },
    {
      "inputs": [],
      "name": "boostContract",
      "outputs": [
        {
          "internalType": "address",
          "name": "",
          "type": "address"
        }
      ],
      "stateMutability": "view",
      "type": "function"
    },
    {
      "inputs": [],
      "name": "burnAdmin",
      "outputs": [
        {
          "internalType": "address",
          "name": "",
          "type": "address"
        }
      ],
      "stateMutability": "view",
      "type": "function"
    },
    {
      "inputs": [
        {
          "internalType": "bool",
          "name": "_withUpdate",
          "type": "bool"
        }
      ],
      "name": "burnRobo",
      "outputs": [],
      "stateMutability": "nonpayable",
      "type": "function"
    },
    {
      "inputs": [
        {
          "internalType": "uint256",
          "name": "_totalRoboPerBlock",
          "type": "uint256"
        },
        {
          "internalType": "bool",
          "name": "_withUpdate",
          "type": "bool"
        }
      ],
      "name": "changeroboPerBlock",
      "outputs": [],
      "stateMutability": "nonpayable",
      "type": "function"
    },
    {
      "inputs": [
        {
          "internalType": "address",
          "name": "_roboTreasury",
          "type": "address"
        }
      ],
      "name": "changeroboTreasury",
      "outputs": [],
      "stateMutability": "nonpayable",
      "type": "function"
    },
    {
      "inputs": [
        {
          "internalType": "uint256",
          "name": "_pid",
          "type": "uint256"
        },
        {
          "internalType": "uint256",
          "name": "_amount",
          "type": "uint256"
        }
      ],
      "name": "deposit",
      "outputs": [],
      "stateMutability": "nonpayable",
      "type": "function"
    },
    {
      "inputs": [
        {
          "internalType": "uint256",
          "name": "_pid",
          "type": "uint256"
        }
      ],
      "name": "emergencyWithdraw",
      "outputs": [],
      "stateMutability": "nonpayable",
      "type": "function"
    },
    {
      "inputs": [
        {
          "internalType": "address",
          "name": "_user",
          "type": "address"
        },
        {
          "internalType": "uint256",
          "name": "_pid",
          "type": "uint256"
        }
      ],
      "name": "getBoostMultiplier",
      "outputs": [
        {
          "internalType": "uint256",
          "name": "",
          "type": "uint256"
        }
      ],
      "stateMutability": "view",
      "type": "function"
    },
    {
      "inputs": [],
      "name": "lastBurnedBlock",
      "outputs": [
        {
          "internalType": "uint256",
          "name": "",
          "type": "uint256"
        }
      ],
      "stateMutability": "view",
      "type": "function"
    },
    {
      "inputs": [
        {
          "internalType": "uint256",
          "name": "",
          "type": "uint256"
        }
      ],
      "name": "lpToken",
      "outputs": [
        {
          "internalType": "contract IERC20",
          "name": "",
          "type": "address"
        }
      ],
      "stateMutability": "view",
      "type": "function"
    },
    {
      "inputs": [],
      "name": "massUpdatePools",
      "outputs": [],
      "stateMutability": "nonpayable",
      "type": "function"
    },
    {
      "inputs": [],
      "name": "owner",
      "outputs": [
        {
          "internalType": "address",
          "name": "",
          "type": "address"
        }
      ],
      "stateMutability": "view",
      "type": "function"
    },
    {
      "inputs": [
        {
          "internalType": "uint256",
          "name": "_pid",
          "type": "uint256"
        },
        {
          "internalType": "address",
          "name": "_user",
          "type": "address"
        }
      ],
      "name": "pendingRobo",
      "outputs": [
        {
          "internalType": "uint256",
          "name": "",
          "type": "uint256"
        }
      ],
      "stateMutability": "view",
      "type": "function"
    },
    {
      "inputs": [
        {
          "internalType": "uint256",
          "name": "",
          "type": "uint256"
        }
      ],
      "name": "poolInfo",
      "outputs": [
        {
          "internalType": "uint256",
          "name": "accRoboPerShare",
          "type": "uint256"
        },
        {
          "internalType": "uint256",
          "name": "lastRewardBlock",
          "type": "uint256"
        },
        {
          "internalType": "uint256",
          "name": "allocPoint",
          "type": "uint256"
        },
        {
          "internalType": "uint256",
          "name": "totalBoostedShare",
          "type": "uint256"
        },
        {
          "internalType": "bool",
          "name": "isRegular",
          "type": "bool"
        }
      ],
      "stateMutability": "view",
      "type": "function"
    },
    {
      "inputs": [],
      "name": "poolLength",
      "outputs": [
        {
          "internalType": "uint256",
          "name": "pools",
          "type": "uint256"
        }
      ],
      "stateMutability": "view",
      "type": "function"
    },
    {
      "inputs": [],
      "name": "renounceOwnership",
      "outputs": [],
      "stateMutability": "nonpayable",
      "type": "function"
    },
    {
      "inputs": [
        {
          "internalType": "bool",
          "name": "_isRegular",
          "type": "bool"
        }
      ],
      "name": "roboPerBlock",
      "outputs": [
        {
          "internalType": "uint256",
          "name": "amount",
          "type": "uint256"
        }
      ],
      "stateMutability": "view",
      "type": "function"
    },
    {
      "inputs": [],
      "name": "roboPerBlockToBurn",
      "outputs": [
        {
          "internalType": "uint256",
          "name": "amount",
          "type": "uint256"
        }
      ],
      "stateMutability": "view",
      "type": "function"
    },
    {
      "inputs": [],
      "name": "roboRateToBurn",
      "outputs": [
        {
          "internalType": "uint256",
          "name": "",
          "type": "uint256"
        }
      ],
      "stateMutability": "view",
      "type": "function"
    },
    {
      "inputs": [],
      "name": "roboRateToRegularFarm",
      "outputs": [
        {
          "internalType": "uint256",
          "name": "",
          "type": "uint256"
        }
      ],
      "stateMutability": "view",
      "type": "function"
    },
    {
      "inputs": [],
      "name": "roboRateToSpecialFarm",
      "outputs": [
        {
          "internalType": "uint256",
          "name": "",
          "type": "uint256"
        }
      ],
      "stateMutability": "view",
      "type": "function"
    },
    {
      "inputs": [],
      "name": "roboTreasury",
      "outputs": [
        {
          "internalType": "address",
          "name": "",
          "type": "address"
        }
      ],
      "stateMutability": "view",
      "type": "function"
    },
    {
      "inputs": [
        {
          "internalType": "uint256",
          "name": "_pid",
          "type": "uint256"
        },
        {
          "internalType": "uint256",
          "name": "_allocPoint",
          "type": "uint256"
        },
        {
          "internalType": "bool",
          "name": "_withUpdate",
          "type": "bool"
        }
      ],
      "name": "set",
      "outputs": [],
      "stateMutability": "nonpayable",
      "type": "function"
    },
    {
      "inputs": [],
      "name": "totalRegularAllocPoint",
      "outputs": [
        {
          "internalType": "uint256",
          "name": "",
          "type": "uint256"
        }
      ],
      "stateMutability": "view",
      "type": "function"
    },
    {
      "inputs": [],
      "name": "totalRoboPerBlock",
      "outputs": [
        {
          "internalType": "uint256",
          "name": "",
          "type": "uint256"
        }
      ],
      "stateMutability": "view",
      "type": "function"
    },
    {
      "inputs": [],
      "name": "totalSpecialAllocPoint",
      "outputs": [
        {
          "internalType": "uint256",
          "name": "",
          "type": "uint256"
        }
      ],
      "stateMutability": "view",
      "type": "function"
    },
    {
      "inputs": [
        {
          "internalType": "address",
          "name": "newOwner",
          "type": "address"
        }
      ],
      "name": "transferOwnership",
      "outputs": [],
      "stateMutability": "nonpayable",
      "type": "function"
    },
    {
      "inputs": [
        {
          "internalType": "address",
          "name": "_newBoostContract",
          "type": "address"
        }
      ],
      "name": "updateBoostContract",
      "outputs": [],
      "stateMutability": "nonpayable",
      "type": "function"
    },
    {
      "inputs": [
        {
          "internalType": "address",
          "name": "_user",
          "type": "address"
        },
        {
          "internalType": "uint256",
          "name": "_pid",
          "type": "uint256"
        },
        {
          "internalType": "uint256",
          "name": "_newMultiplier",
          "type": "uint256"
        }
      ],
      "name": "updateBoostMultiplier",
      "outputs": [],
      "stateMutability": "nonpayable",
      "type": "function"
    },
    {
      "inputs": [
        {
          "internalType": "address",
          "name": "_newBurnAdmin",
          "type": "address"
        }
      ],
      "name": "updateBurnAdmin",
      "outputs": [],
      "stateMutability": "nonpayable",
      "type": "function"
    },
    {
      "inputs": [
        {
          "internalType": "uint256",
          "name": "_pid",
          "type": "uint256"
        }
      ],
      "name": "updatePool",
      "outputs": [
        {
          "components": [
            {
              "internalType": "uint256",
              "name": "accRoboPerShare",
              "type": "uint256"
            },
            {
              "internalType": "uint256",
              "name": "lastRewardBlock",
              "type": "uint256"
            },
            {
              "internalType": "uint256",
              "name": "allocPoint",
              "type": "uint256"
            },
            {
              "internalType": "uint256",
              "name": "totalBoostedShare",
              "type": "uint256"
            },
            {
              "internalType": "bool",
              "name": "isRegular",
              "type": "bool"
            }
          ],
          "internalType": "struct RoboLiquidity.PoolInfo",
          "name": "pool",
          "type": "tuple"
        }
      ],
      "stateMutability": "nonpayable",
      "type": "function"
    },
    {
      "inputs": [
        {
          "internalType": "uint256",
          "name": "_burnRate",
          "type": "uint256"
        },
        {
          "internalType": "uint256",
          "name": "_regularFarmRate",
          "type": "uint256"
        },
        {
          "internalType": "uint256",
          "name": "_specialFarmRate",
          "type": "uint256"
        },
        {
          "internalType": "bool",
          "name": "_withUpdate",
          "type": "bool"
        }
      ],
      "name": "updateRoboRate",
      "outputs": [],
      "stateMutability": "nonpayable",
      "type": "function"
    },
    {
      "inputs": [
        {
          "internalType": "address",
          "name": "_user",
          "type": "address"
        },
        {
          "internalType": "bool",
          "name": "_isValid",
          "type": "bool"
        }
      ],
      "name": "updateWhiteList",
      "outputs": [],
      "stateMutability": "nonpayable",
      "type": "function"
    },
    {
      "inputs": [
        {
          "internalType": "uint256",
          "name": "",
          "type": "uint256"
        },
        {
          "internalType": "address",
          "name": "",
          "type": "address"
        }
      ],
      "name": "userInfo",
      "outputs": [
        {
          "internalType": "uint256",
          "name": "amount",
          "type": "uint256"
        },
        {
          "internalType": "uint256",
          "name": "rewardDebt",
          "type": "uint256"
        },
        {
          "internalType": "uint256",
          "name": "boostMultiplier",
          "type": "uint256"
        }
      ],
      "stateMutability": "view",
      "type": "function"
    },
    {
      "inputs": [
        {
          "internalType": "address",
          "name": "",
          "type": "address"
        }
      ],
      "name": "whiteList",
      "outputs": [
        {
          "internalType": "bool",
          "name": "",
          "type": "bool"
        }
      ],
      "stateMutability": "view",
      "type": "function"
    },
    {
      "inputs": [
        {
          "internalType": "uint256",
          "name": "_pid",
          "type": "uint256"
        },
        {
          "internalType": "uint256",
          "name": "_amount",
          "type": "uint256"
        }
      ],
      "name": "withdraw",
      "outputs": [],
      "stateMutability": "nonpayable",
      "type": "function"
    }
  ],
  "bytecode": "0x60a060405264e8d4a51000600c556000600d556000600e553480156200002457600080fd5b5060405162004d8e38038062004d8e83398181016040528101906200004a919062000209565b60006200005c620001bc60201b60201c565b9050806000806101000a81548173ffffffffffffffffffffffffffffffffffffffff021916908373ffffffffffffffffffffffffffffffffffffffff1602179055508073ffffffffffffffffffffffffffffffffffffffff16600073ffffffffffffffffffffffffffffffffffffffff167f8be0079c531659141344cd1fd0a4f28419497f9722a3daafe3b4186f6b6457e060405160405180910390a350600180819055508273ffffffffffffffffffffffffffffffffffffffff1660808173ffffffffffffffffffffffffffffffffffffffff1660601b8152505081600a8190555080600b60006101000a81548173ffffffffffffffffffffffffffffffffffffffff021916908373ffffffffffffffffffffffffffffffffffffffff16021790555043600f819055507f57a86f7d14ccde89e22870afe839e3011216827daa9b24e18629f0a1e9d6cc1460405160405180910390a1505050620002ff565b600033905090565b600081519050620001d581620002b1565b92915050565b600081519050620001ec81620002cb565b92915050565b6000815190506200020381620002e5565b92915050565b6000806000606084860312156200021f57600080fd5b60006200022f86828701620001db565b93505060206200024286828701620001f2565b92505060406200025586828701620001c4565b9150509250925092565b60006200026c8262000287565b9050919050565b600062000280826200025f565b9050919050565b600073ffffffffffffffffffffffffffffffffffffffff82169050919050565b6000819050919050565b620002bc816200025f565b8114620002c857600080fd5b50565b620002d68162000273565b8114620002e257600080fd5b50565b620002f081620002a7565b8114620002fc57600080fd5b50565b60805160601c614a6c6200032260003980612fd352806133535250614a6c6000f3fe608060405234801561001057600080fd5b506004361061025e5760003560e01c806378db4c3411610146578063c40d337b116100c3578063e9651e4711610087578063e9651e47146106df578063eb1f4f971461070f578063ed0150f31461072d578063f2fde38b1461074b578063fa7ccead14610767578063fda16e30146107835761025e565b8063c40d337b1461064d578063c507aeaa1461066b578063cc6db2da14610687578063dfcedeee146106a5578063e2bbb158146106c35761025e565b806399d7e84a1161010a57806399d7e84a146105bd5780639dd2fcc3146105db578063a16f2746146105f7578063ac1d060914610615578063be49f9e1146106315761025e565b806378db4c341461050157806378ed5d1f1461051f57806381bdf98c1461054f5780638da5cb5b1461056d57806393f1a40b1461058b5761025e565b8063441a3e70116101df5780635379f0d9116101a35780635379f0d914610479578063630b5ba11461049757806364482f79146104a157806369b02128146104bd578063715018a6146104db578063755edadb146104e55761025e565b8063441a3e70146103d7578063452c79cb146103f357806351eb05a61461040f5780635202b5301461043f5780635312ea8e1461045d5761025e565b806323bf85491161022657806323bf85491461031d578063265f2d001461033b578063372c12b11461035957806338a1ff1114610389578063434420c8146103a75761025e565b8063033186e814610263578063041a84c914610293578063081e3eda146102af5780630bb844bc146102cd5780631526fe27146102e9575b600080fd5b61027d600480360381019061027891906137c9565b6107a1565b60405161028a9190614818565b60405180910390f35b6102ad60048036038101906102a89190613805565b61081c565b005b6102b7610cc1565b6040516102c49190614818565b60405180910390f35b6102e760048036038101906102e29190613764565b610cce565b005b61030360048036038101906102fe91906138a6565b610f11565b604051610314959493929190614893565b60405180910390f35b610325610f61565b6040516103329190614818565b60405180910390f35b610343610f96565b6040516103509190614818565b60405180910390f35b610373600480360381019061036e9190613764565b610f9f565b60405161038091906144c5565b60405180910390f35b610391610fbf565b60405161039e9190614818565b60405180910390f35b6103c160048036038101906103bc91906138f8565b610fc5565b6040516103ce9190614818565b60405180910390f35b6103f160048036038101906103ec91906139d3565b611231565b005b61040d60048036038101906104089190613854565b611510565b005b610429600480360381019061042491906138a6565b61160a565b60405161043691906147fd565b60405180910390f35b610447611832565b6040516104549190614818565b60405180910390f35b610477600480360381019061047291906138a6565b611838565b005b610481611a3e565b60405161048e9190614818565b60405180910390f35b61049f611a4a565b005b6104bb60048036038101906104b69190613a0f565b611af9565b005b6104c5611cbb565b6040516104d29190614818565b60405180910390f35b6104e3611cc5565b005b6104ff60048036038101906104fa9190613a5e565b611dff565b005b610509611fb0565b6040516105169190614818565b60405180910390f35b610539600480360381019061053491906138a6565b611fb6565b60405161054691906144e0565b60405180910390f35b610557611ff2565b604051610564919061444a565b60405180910390f35b610575612018565b604051610582919061444a565b60405180910390f35b6105a560048036038101906105a091906138f8565b612041565b6040516105b49392919061485c565b60405180910390f35b6105c5612078565b6040516105d29190614818565b60405180910390f35b6105f560048036038101906105f09190613764565b61207e565b005b6105ff61224b565b60405161060c9190614818565b60405180910390f35b61062f600480360381019061062a919061378d565b612251565b005b61064b60048036038101906106469190613764565b6123e6565b005b6106556124a6565b6040516106629190614818565b60405180910390f35b61068560048036038101906106809190613970565b6124ac565b005b61068f6127b7565b60405161069c9190614818565b60405180910390f35b6106ad6127c0565b6040516106ba919061444a565b60405180910390f35b6106dd60048036038101906106d891906139d3565b6127e6565b005b6106f960048036038101906106f49190613854565b612cf3565b6040516107069190614818565b60405180910390f35b610717612d66565b604051610724919061444a565b60405180910390f35b610735612d8c565b6040516107429190614818565b60405180910390f35b61076560048036038101906107609190613764565b612d92565b005b610781600480360381019061077c9190613934565b612f3b565b005b61078b612fd1565b60405161079891906144e0565b60405180910390f35b6000806006600084815260200190815260200160002060008573ffffffffffffffffffffffffffffffffffffffff1673ffffffffffffffffffffffffffffffffffffffff16815260200190815260200160002060020154905064e8d4a5100081116108115764e8d4a51000610813565b805b91505092915050565b3373ffffffffffffffffffffffffffffffffffffffff16600360009054906101000a900473ffffffffffffffffffffffffffffffffffffffff1673ffffffffffffffffffffffffffffffffffffffff16146108ac576040517f08c379a00000000000000000000000000000000000000000000000000000000081526004016108a39061469d565b60405180910390fd5b600260015414156108f2576040517f08c379a00000000000000000000000000000000000000000000000000000000081526004016108e99061479d565b60405180910390fd5b6002600181905550600073ffffffffffffffffffffffffffffffffffffffff168373ffffffffffffffffffffffffffffffffffffffff16141561096a576040517f08c379a0000000000000000000000000000000000000000000000000000000008152600401610961906145dd565b60405180910390fd5b6004828154811061097757fe5b906000526020600020906005020160040160009054906101000a900460ff166109d5576040517f08c379a00000000000000000000000000000000000000000000000000000000081526004016109cc906146bd565b60405180910390fd5b64e8d4a5100081101580156109f057506501d1a94a20008111155b610a2f576040517f08c379a0000000000000000000000000000000000000000000000000000000008152600401610a269061451d565b60405180910390fd5b610a37613694565b610a408361160a565b905060006006600085815260200190815260200160002060008673ffffffffffffffffffffffffffffffffffffffff1673ffffffffffffffffffffffffffffffffffffffff16815260200190815260200160002090506000610aa286866107a1565b9050610aaf868683612ff5565b610b0d670de0b6b3a7640000610aff8560000151610af164e8d4a51000610ae38a896000015461312790919063ffffffff16565b61319790919063ffffffff16565b61312790919063ffffffff16565b61319790919063ffffffff16565b8260010181905550610b98610b4664e8d4a51000610b3887866000015461312790919063ffffffff16565b61319790919063ffffffff16565b610b8a610b7764e8d4a51000610b6986886000015461312790919063ffffffff16565b61319790919063ffffffff16565b86606001516131ed90919063ffffffff16565b61323d90919063ffffffff16565b8360600181815250508260048681548110610baf57fe5b90600052602060002090600502016000820151816000015560208201518160010155604082015181600201556060820151816003015560808201518160040160006101000a81548160ff021916908315150217905550905050836006600087815260200190815260200160002060008873ffffffffffffffffffffffffffffffffffffffff1673ffffffffffffffffffffffffffffffffffffffff168152602001908152602001600020600201819055508573ffffffffffffffffffffffffffffffffffffffff167f01abd62439b64f6c5dab6f94d56099495bd0c094f9c21f98f4d3562a21edb4ba868387604051610caa9392919061485c565b60405180910390a250505060018081905550505050565b6000600480549050905090565b610cd6613292565b73ffffffffffffffffffffffffffffffffffffffff16610cf4612018565b73ffffffffffffffffffffffffffffffffffffffff1614610d4a576040517f08c379a0000000000000000000000000000000000000000000000000000000008152600401610d419061467d565b60405180910390fd5b600073ffffffffffffffffffffffffffffffffffffffff168173ffffffffffffffffffffffffffffffffffffffff161415610dba576040517f08c379a0000000000000000000000000000000000000000000000000000000008152600401610db1906145fd565b60405180910390fd5b600260009054906101000a900473ffffffffffffffffffffffffffffffffffffffff1673ffffffffffffffffffffffffffffffffffffffff168173ffffffffffffffffffffffffffffffffffffffff161415610e4b576040517f08c379a0000000000000000000000000000000000000000000000000000000008152600401610e42906147bd565b60405180910390fd5b6000600260009054906101000a900473ffffffffffffffffffffffffffffffffffffffff16905081600260006101000a81548173ffffffffffffffffffffffffffffffffffffffff021916908373ffffffffffffffffffffffffffffffffffffffff1602179055508173ffffffffffffffffffffffffffffffffffffffff168173ffffffffffffffffffffffffffffffffffffffff167fd146fe330fdddf682413850a35b28edfccd4c4b53cfee802fd24950de5be1dbe60405160405180910390a35050565b60048181548110610f1e57fe5b90600052602060002090600502016000915090508060000154908060010154908060020154908060030154908060040160009054906101000a900460ff16905085565b6000610f9164e8d4a51000610f83600e54600a5461312790919063ffffffff16565b61319790919063ffffffff16565b905090565b64e8d4a5100081565b60076020528060005260406000206000915054906101000a900460ff1681565b600c5481565b6000610fcf613694565b60048481548110610fdc57fe5b90600052602060002090600502016040518060a0016040529081600082015481526020016001820154815260200160028201548152602001600382015481526020016004820160009054906101000a900460ff16151515158152505090506110426136c5565b6006600086815260200190815260200160002060008573ffffffffffffffffffffffffffffffffffffffff1673ffffffffffffffffffffffffffffffffffffffff168152602001908152602001600020604051806060016040529081600082015481526020016001820154815260200160028201548152505090506000826000015190506000836060015190508360200151431180156110e3575060008114155b156111a65760006111018560200151436131ed90919063ffffffff16565b9050600061116086608001516111195760095461111d565b6008545b61115288604001516111446111358b60800151612cf3565b8761312790919063ffffffff16565b61312790919063ffffffff16565b61319790919063ffffffff16565b90506111a161119284611184670de0b6b3a76400008561312790919063ffffffff16565b61319790919063ffffffff16565b8561323d90919063ffffffff16565b935050505b60006111df64e8d4a510006111d16111be8a8c6107a1565b876000015161312790919063ffffffff16565b61319790919063ffffffff16565b90506112248460200151611216670de0b6b3a7640000611208878661312790919063ffffffff16565b61319790919063ffffffff16565b6131ed90919063ffffffff16565b9550505050505092915050565b60026001541415611277576040517f08c379a000000000000000000000000000000000000000000000000000000000815260040161126e9061479d565b60405180910390fd5b6002600181905550611287613694565b6112908361160a565b905060006006600085815260200190815260200160002060003373ffffffffffffffffffffffffffffffffffffffff1673ffffffffffffffffffffffffffffffffffffffff1681526020019081526020016000209050828160000154101561132d576040517f08c379a00000000000000000000000000000000000000000000000000000000081526004016113249061465d565b60405180910390fd5b600061133933866107a1565b9050611346338683612ff5565b60008411156113d1576113668483600001546131ed90919063ffffffff16565b82600001819055506113d033856005888154811061138057fe5b9060005260206000200160009054906101000a900473ffffffffffffffffffffffffffffffffffffffff1673ffffffffffffffffffffffffffffffffffffffff1661329a9092919063ffffffff16565b5b61142f670de0b6b3a7640000611421856000015161141364e8d4a5100061140587896000015461312790919063ffffffff16565b61319790919063ffffffff16565b61312790919063ffffffff16565b61319790919063ffffffff16565b826001018190555061149161146464e8d4a51000611456848861312790919063ffffffff16565b61319790919063ffffffff16565b6004878154811061147157fe5b9060005260206000209060050201600301546131ed90919063ffffffff16565b6004868154811061149e57fe5b906000526020600020906005020160030181905550843373ffffffffffffffffffffffffffffffffffffffff167ff279e6a1f5e320cca91135676d9cb6e44ca8a08c0b88342bcdb1144f6511b568866040516114fa9190614818565b60405180910390a3505050600180819055505050565b611518613292565b73ffffffffffffffffffffffffffffffffffffffff16611536612018565b73ffffffffffffffffffffffffffffffffffffffff161461158c576040517f08c379a00000000000000000000000000000000000000000000000000000000081526004016115839061467d565b60405180910390fd5b801561159b5761159a611a4a565b5b60006115b2600f54436131ed90919063ffffffff16565b905060006115d06115c1610f61565b8361312790919063ffffffff16565b90506115fe600260009054906101000a900473ffffffffffffffffffffffffffffffffffffffff1682613320565b43600f81905550505050565b611612613694565b6004828154811061161f57fe5b90600052602060002090600502016040518060a0016040529081600082015481526020016001820154815260200160028201548152602001600382015481526020016004820160009054906101000a900460ff1615151515815250509050806020015143111561182d57600081606001519050600082608001516116a5576009546116a9565b6008545b90506000821180156116bb5750600081115b156117755760006116d98460200151436131ed90919063ffffffff16565b905060006117248361171687604001516117086116f98a60800151612cf3565b8761312790919063ffffffff16565b61312790919063ffffffff16565b61319790919063ffffffff16565b905061176961175685611748670de0b6b3a76400008561312790919063ffffffff16565b61319790919063ffffffff16565b866000015161323d90919063ffffffff16565b85600001818152505050505b43836020018181525050826004858154811061178d57fe5b90600052602060002090600502016000820151816000015560208201518160010155604082015181600201556060820151816003015560808201518160040160006101000a81548160ff021916908315150217905550905050837f3be3541fc42237d611b30329040bfa4569541d156560acdbbae57640d20b8f4684602001518486600001516040516118229392919061485c565b60405180910390a250505b919050565b600a5481565b6002600154141561187e576040517f08c379a00000000000000000000000000000000000000000000000000000000081526004016118759061479d565b60405180910390fd5b600260018190555060006004828154811061189557fe5b9060005260206000209060050201905060006006600084815260200190815260200160002060003373ffffffffffffffffffffffffffffffffffffffff1673ffffffffffffffffffffffffffffffffffffffff16815260200190815260200160002090506000816000015490506000826000018190555060008260010181905550600061194b64e8d4a5100061193d61192e33896107a1565b8561312790919063ffffffff16565b61319790919063ffffffff16565b90508084600301541161195f576000611977565b6119768185600301546131ed90919063ffffffff16565b5b84600301819055506119e133836005888154811061199157fe5b9060005260206000200160009054906101000a900473ffffffffffffffffffffffffffffffffffffffff1673ffffffffffffffffffffffffffffffffffffffff1661329a9092919063ffffffff16565b843373ffffffffffffffffffffffffffffffffffffffff167fbb757047c2b5f3974fe26b7c10f732e7bce710b0952a71082702781e62ae059584604051611a289190614818565b60405180910390a3505050506001808190555050565b670de0b6b3a764000081565b6000600480549050905060005b81811015611af557611a67613694565b60048281548110611a7457fe5b90600052602060002090600502016040518060a0016040529081600082015481526020016001820154815260200160028201548152602001600382015481526020016004820160009054906101000a900460ff16151515158152505090506000816040015114611ae957611ae78261160a565b505b50806001019050611a57565b5050565b611b01613292565b73ffffffffffffffffffffffffffffffffffffffff16611b1f612018565b73ffffffffffffffffffffffffffffffffffffffff1614611b75576040517f08c379a0000000000000000000000000000000000000000000000000000000008152600401611b6c9061467d565b60405180910390fd5b611b7e8361160a565b508015611b8e57611b8d611a4a565b5b60048381548110611b9b57fe5b906000526020600020906005020160040160009054906101000a900460ff1615611c0f57611c0482611bf660048681548110611bd357fe5b9060005260206000209060050201600201546008546131ed90919063ffffffff16565b61323d90919063ffffffff16565b600881905550611c5b565b611c5482611c4660048681548110611c2357fe5b9060005260206000209060050201600201546009546131ed90919063ffffffff16565b61323d90919063ffffffff16565b6009819055505b8160048481548110611c6957fe5b906000526020600020906005020160020181905550827fc0cfd54d2de2b55f1e6e108d3ec53ff0a1abe6055401d32c61e9433b747ef9f883604051611cae9190614818565b60405180910390a2505050565b6501d1a94a200081565b611ccd613292565b73ffffffffffffffffffffffffffffffffffffffff16611ceb612018565b73ffffffffffffffffffffffffffffffffffffffff1614611d41576040517f08c379a0000000000000000000000000000000000000000000000000000000008152600401611d389061467d565b60405180910390fd5b600073ffffffffffffffffffffffffffffffffffffffff1660008054906101000a900473ffffffffffffffffffffffffffffffffffffffff1673ffffffffffffffffffffffffffffffffffffffff167f8be0079c531659141344cd1fd0a4f28419497f9722a3daafe3b4186f6b6457e060405160405180910390a360008060006101000a81548173ffffffffffffffffffffffffffffffffffffffff021916908373ffffffffffffffffffffffffffffffffffffffff160217905550565b611e07613292565b73ffffffffffffffffffffffffffffffffffffffff16611e25612018565b73ffffffffffffffffffffffffffffffffffffffff1614611e7b576040517f08c379a0000000000000000000000000000000000000000000000000000000008152600401611e729061467d565b60405180910390fd5b600084118015611e8b5750600083115b8015611e975750600082115b611ed6576040517f08c379a0000000000000000000000000000000000000000000000000000000008152600401611ecd906146fd565b60405180910390fd5b64e8d4a51000611f0183611ef3868861323d90919063ffffffff16565b61323d90919063ffffffff16565b14611f41576040517f08c379a0000000000000000000000000000000000000000000000000000000008152600401611f389061473d565b60405180910390fd5b8015611f5057611f4f611a4a565b5b611f5a6000611510565b83600e8190555082600c8190555081600d819055507f18f23fe71454cb225ce81305829a34dc75838cc195df40323305c3f95176ffaf848484604051611fa29392919061485c565b60405180910390a150505050565b600f5481565b60058181548110611fc357fe5b906000526020600020016000915054906101000a900473ffffffffffffffffffffffffffffffffffffffff1681565b600260009054906101000a900473ffffffffffffffffffffffffffffffffffffffff1681565b60008060009054906101000a900473ffffffffffffffffffffffffffffffffffffffff16905090565b6006602052816000526040600020602052806000526040600020600091509150508060000154908060010154908060020154905083565b60095481565b612086613292565b73ffffffffffffffffffffffffffffffffffffffff166120a4612018565b73ffffffffffffffffffffffffffffffffffffffff16146120fa576040517f08c379a00000000000000000000000000000000000000000000000000000000081526004016120f19061467d565b60405180910390fd5b600073ffffffffffffffffffffffffffffffffffffffff168173ffffffffffffffffffffffffffffffffffffffff16141580156121855750600360009054906101000a900473ffffffffffffffffffffffffffffffffffffffff1673ffffffffffffffffffffffffffffffffffffffff168173ffffffffffffffffffffffffffffffffffffffff1614155b6121c4576040517f08c379a00000000000000000000000000000000000000000000000000000000081526004016121bb906147dd565b60405180910390fd5b80600360006101000a81548173ffffffffffffffffffffffffffffffffffffffff021916908373ffffffffffffffffffffffffffffffffffffffff1602179055508073ffffffffffffffffffffffffffffffffffffffff167f4c0c07d0b548b824a1b998eb4d11fccf1cfbc1e47edcdb309970ba88315eb30360405160405180910390a250565b600e5481565b612259613292565b73ffffffffffffffffffffffffffffffffffffffff16612277612018565b73ffffffffffffffffffffffffffffffffffffffff16146122cd576040517f08c379a00000000000000000000000000000000000000000000000000000000081526004016122c49061467d565b60405180910390fd5b600073ffffffffffffffffffffffffffffffffffffffff168273ffffffffffffffffffffffffffffffffffffffff16141561233d576040517f08c379a0000000000000000000000000000000000000000000000000000000008152600401612334906146dd565b60405180910390fd5b80600760008473ffffffffffffffffffffffffffffffffffffffff1673ffffffffffffffffffffffffffffffffffffffff16815260200190815260200160002060006101000a81548160ff0219169083151502179055508173ffffffffffffffffffffffffffffffffffffffff167fc551bbb22d0406dbfb8b6b7740cc521bcf44e1106029cf899c19b6a8e4c99d51826040516123da91906144c5565b60405180910390a25050565b6123ee613292565b73ffffffffffffffffffffffffffffffffffffffff1661240c612018565b73ffffffffffffffffffffffffffffffffffffffff1614612462576040517f08c379a00000000000000000000000000000000000000000000000000000000081526004016124599061467d565b60405180910390fd5b80600b60006101000a81548173ffffffffffffffffffffffffffffffffffffffff021916908373ffffffffffffffffffffffffffffffffffffffff16021790555050565b60085481565b6124b4613292565b73ffffffffffffffffffffffffffffffffffffffff166124d2612018565b73ffffffffffffffffffffffffffffffffffffffff1614612528576040517f08c379a000000000000000000000000000000000000000000000000000000000815260040161251f9061467d565b60405180910390fd5b60008373ffffffffffffffffffffffffffffffffffffffff166370a08231306040518263ffffffff1660e01b8152600401612563919061444a565b60206040518083038186803b15801561257b57600080fd5b505afa15801561258f573d6000803e3d6000fd5b505050506040513d601f19601f820116820180604052508101906125b391906138cf565b10156125f4576040517f08c379a00000000000000000000000000000000000000000000000000000000081526004016125eb9061475d565b60405180910390fd5b801561260357612602611a4a565b5b81156126295761261e8460085461323d90919063ffffffff16565b600881905550612645565b61263e8460095461323d90919063ffffffff16565b6009819055505b6005839080600181540180825580915050600190039060005260206000200160009091909190916101000a81548173ffffffffffffffffffffffffffffffffffffffff021916908373ffffffffffffffffffffffffffffffffffffffff16021790555060046040518060a00160405280600081526020014381526020018681526020016000815260200184151581525090806001815401808255809150506001900390600052602060002090600502016000909190919091506000820151816000015560208201518160010155604082015181600201556060820151816003015560808201518160040160006101000a81548160ff02191690831515021790555050508273ffffffffffffffffffffffffffffffffffffffff1661277860016005805490506131ed90919063ffffffff16565b7f18caa0724a26384928efe604ae6ddc99c242548876259770fc88fcb7e719d8fa86856040516127a9929190614833565b60405180910390a350505050565b64e8d4a5100081565b600360009054906101000a900473ffffffffffffffffffffffffffffffffffffffff1681565b6002600154141561282c576040517f08c379a00000000000000000000000000000000000000000000000000000000081526004016128239061479d565b60405180910390fd5b600260018190555061283c613694565b6128458361160a565b905060006006600085815260200190815260200160002060003373ffffffffffffffffffffffffffffffffffffffff1673ffffffffffffffffffffffffffffffffffffffff16815260200190815260200160002090508160800151806128f45750600760003373ffffffffffffffffffffffffffffffffffffffff1673ffffffffffffffffffffffffffffffffffffffff16815260200190815260200160002060009054906101000a900460ff165b612933576040517f08c379a000000000000000000000000000000000000000000000000000000000815260040161292a9061461d565b60405180910390fd5b600061293f33866107a1565b905060008260000154111561295a57612959338683612ff5565b5b6000841115612bc95760006005868154811061297257fe5b9060005260206000200160009054906101000a900473ffffffffffffffffffffffffffffffffffffffff1673ffffffffffffffffffffffffffffffffffffffff166370a08231306040518263ffffffff1660e01b81526004016129d5919061444a565b60206040518083038186803b1580156129ed57600080fd5b505afa158015612a01573d6000803e3d6000fd5b505050506040513d601f19601f82011682018060405250810190612a2591906138cf565b9050612a8b33308760058a81548110612a3a57fe5b9060005260206000200160009054906101000a900473ffffffffffffffffffffffffffffffffffffffff1673ffffffffffffffffffffffffffffffffffffffff1661339d909392919063ffffffff16565b612b5d8160058881548110612a9c57fe5b9060005260206000200160009054906101000a900473ffffffffffffffffffffffffffffffffffffffff1673ffffffffffffffffffffffffffffffffffffffff166370a08231306040518263ffffffff1660e01b8152600401612aff919061444a565b60206040518083038186803b158015612b1757600080fd5b505afa158015612b2b573d6000803e3d6000fd5b505050506040513d601f19601f82011682018060405250810190612b4f91906138cf565b6131ed90919063ffffffff16565b9450612b7685846000015461323d90919063ffffffff16565b8360000181905550612bbe612bab64e8d4a51000612b9d858961312790919063ffffffff16565b61319790919063ffffffff16565b856060015161323d90919063ffffffff16565b846060018181525050505b612c27670de0b6b3a7640000612c198560000151612c0b64e8d4a51000612bfd87896000015461312790919063ffffffff16565b61319790919063ffffffff16565b61312790919063ffffffff16565b61319790919063ffffffff16565b82600101819055508260048681548110612c3d57fe5b90600052602060002090600502016000820151816000015560208201518160010155604082015181600201556060820151816003015560808201518160040160006101000a81548160ff021916908315150217905550905050843373ffffffffffffffffffffffffffffffffffffffff167f90890809c654f11d6e72a28fa60149770a0d11ec6c92319d6ceb2bb0a4ea1a1586604051612cdd9190614818565b60405180910390a3505050600180819055505050565b60008115612d3057612d2964e8d4a51000612d1b600c54600a5461312790919063ffffffff16565b61319790919063ffffffff16565b9050612d61565b612d5e64e8d4a51000612d50600c54600a5461312790919063ffffffff16565b61319790919063ffffffff16565b90505b919050565b600b60009054906101000a900473ffffffffffffffffffffffffffffffffffffffff1681565b600d5481565b612d9a613292565b73ffffffffffffffffffffffffffffffffffffffff16612db8612018565b73ffffffffffffffffffffffffffffffffffffffff1614612e0e576040517f08c379a0000000000000000000000000000000000000000000000000000000008152600401612e059061467d565b60405180910390fd5b600073ffffffffffffffffffffffffffffffffffffffff168173ffffffffffffffffffffffffffffffffffffffff161415612e7e576040517f08c379a0000000000000000000000000000000000000000000000000000000008152600401612e759061453d565b60405180910390fd5b8073ffffffffffffffffffffffffffffffffffffffff1660008054906101000a900473ffffffffffffffffffffffffffffffffffffffff1673ffffffffffffffffffffffffffffffffffffffff167f8be0079c531659141344cd1fd0a4f28419497f9722a3daafe3b4186f6b6457e060405160405180910390a3806000806101000a81548173ffffffffffffffffffffffffffffffffffffffff021916908373ffffffffffffffffffffffffffffffffffffffff16021790555050565b612f43613292565b73ffffffffffffffffffffffffffffffffffffffff16612f61612018565b73ffffffffffffffffffffffffffffffffffffffff1614612fb7576040517f08c379a0000000000000000000000000000000000000000000000000000000008152600401612fae9061467d565b60405180910390fd5b8015612fc657612fc5611a4a565b5b81600a819055505050565b7f000000000000000000000000000000000000000000000000000000000000000081565b612ffd6136c5565b6006600084815260200190815260200160002060008573ffffffffffffffffffffffffffffffffffffffff1673ffffffffffffffffffffffffffffffffffffffff1681526020019081526020016000206040518060600160405290816000820154815260200160018201548152602001600282015481525050905060006130a864e8d4a5100061309a85856000015161312790919063ffffffff16565b61319790919063ffffffff16565b905060006130f7670de0b6b3a76400006130e9600488815481106130c857fe5b9060005260206000209060050201600001548561312790919063ffffffff16565b61319790919063ffffffff16565b905060006131128460200151836131ed90919063ffffffff16565b905061311e8782613320565b50505050505050565b60008083141561313a5760009050613191565b600082840290508284828161314b57fe5b041461318c576040517f08c379a00000000000000000000000000000000000000000000000000000000081526004016131839061463d565b60405180910390fd5b809150505b92915050565b60008082116131db576040517f08c379a00000000000000000000000000000000000000000000000000000000081526004016131d2906145bd565b60405180910390fd5b8183816131e457fe5b04905092915050565b600082821115613232576040517f08c379a00000000000000000000000000000000000000000000000000000000081526004016132299061457d565b60405180910390fd5b818303905092915050565b600080828401905083811015613288576040517f08c379a000000000000000000000000000000000000000000000000000000000815260040161327f9061455d565b60405180910390fd5b8091505092915050565b600033905090565b61331b8363a9059cbb60e01b84846040516024016132b992919061449c565b604051602081830303815290604052907bffffffffffffffffffffffffffffffffffffffffffffffffffffffff19166020820180517bffffffffffffffffffffffffffffffffffffffffffffffffffffffff8381831617835250505050613426565b505050565b600081111561339957613398600b60009054906101000a900473ffffffffffffffffffffffffffffffffffffffff1683837f000000000000000000000000000000000000000000000000000000000000000073ffffffffffffffffffffffffffffffffffffffff1661339d909392919063ffffffff16565b5b5050565b613420846323b872dd60e01b8585856040516024016133be93929190614465565b604051602081830303815290604052907bffffffffffffffffffffffffffffffffffffffffffffffffffffffff19166020820180517bffffffffffffffffffffffffffffffffffffffffffffffffffffffff8381831617835250505050613426565b50505050565b6060613488826040518060400160405280602081526020017f5361666545524332303a206c6f772d6c6576656c2063616c6c206661696c65648152508573ffffffffffffffffffffffffffffffffffffffff166134ed9092919063ffffffff16565b90506000815111156134e857808060200190518101906134a8919061387d565b6134e7576040517f08c379a00000000000000000000000000000000000000000000000000000000081526004016134de9061477d565b60405180910390fd5b5b505050565b60606134fc8484600085613505565b90509392505050565b60608247101561354a576040517f08c379a00000000000000000000000000000000000000000000000000000000081526004016135419061459d565b60405180910390fd5b6135538561361a565b613592576040517f08c379a00000000000000000000000000000000000000000000000000000000081526004016135899061471d565b60405180910390fd5b600060608673ffffffffffffffffffffffffffffffffffffffff1685876040516135bc9190614433565b60006040518083038185875af1925050503d80600081146135f9576040519150601f19603f3d011682016040523d82523d6000602084013e6135fe565b606091505b509150915061360e82828661362d565b92505050949350505050565b600080823b905060008111915050919050565b6060831561363d5782905061368d565b6000835111156136505782518084602001fd5b816040517f08c379a000000000000000000000000000000000000000000000000000000000815260040161368491906144fb565b60405180910390fd5b9392505050565b6040518060a00160405280600081526020016000815260200160008152602001600081526020016000151581525090565b60405180606001604052806000815260200160008152602001600081525090565b6000813590506136f5816149da565b92915050565b60008135905061370a816149f1565b92915050565b60008151905061371f816149f1565b92915050565b60008135905061373481614a08565b92915050565b60008135905061374981614a1f565b92915050565b60008151905061375e81614a1f565b92915050565b60006020828403121561377657600080fd5b6000613784848285016136e6565b91505092915050565b600080604083850312156137a057600080fd5b60006137ae858286016136e6565b92505060206137bf858286016136fb565b9150509250929050565b600080604083850312156137dc57600080fd5b60006137ea858286016136e6565b92505060206137fb8582860161373a565b9150509250929050565b60008060006060848603121561381a57600080fd5b6000613828868287016136e6565b93505060206138398682870161373a565b925050604061384a8682870161373a565b9150509250925092565b60006020828403121561386657600080fd5b6000613874848285016136fb565b91505092915050565b60006020828403121561388f57600080fd5b600061389d84828501613710565b91505092915050565b6000602082840312156138b857600080fd5b60006138c68482850161373a565b91505092915050565b6000602082840312156138e157600080fd5b60006138ef8482850161374f565b91505092915050565b6000806040838503121561390b57600080fd5b60006139198582860161373a565b925050602061392a858286016136e6565b9150509250929050565b6000806040838503121561394757600080fd5b60006139558582860161373a565b9250506020613966858286016136fb565b9150509250929050565b6000806000806080858703121561398657600080fd5b60006139948782880161373a565b94505060206139a587828801613725565b93505060406139b6878288016136fb565b92505060606139c7878288016136fb565b91505092959194509250565b600080604083850312156139e657600080fd5b60006139f48582860161373a565b9250506020613a058582860161373a565b9150509250929050565b600080600060608486031215613a2457600080fd5b6000613a328682870161373a565b9350506020613a438682870161373a565b9250506040613a54868287016136fb565b9150509250925092565b60008060008060808587031215613a7457600080fd5b6000613a828782880161373a565b9450506020613a938782880161373a565b9350506040613aa48782880161373a565b9250506060613ab5878288016136fb565b91505092959194509250565b613aca81614918565b82525050565b613ad98161492a565b82525050565b613ae88161492a565b82525050565b6000613af9826148e6565b613b0381856148fc565b9350613b13818560208601614996565b80840191505092915050565b613b2881614972565b82525050565b6000613b39826148f1565b613b438185614907565b9350613b53818560208601614996565b613b5c816149c9565b840191505092915050565b6000613b74602a83614907565b91507f4d61737465724368656656323a20496e76616c6964206e657720626f6f73742060008301527f6d756c7469706c696572000000000000000000000000000000000000000000006020830152604082019050919050565b6000613bda602683614907565b91507f4f776e61626c653a206e6577206f776e657220697320746865207a65726f206160008301527f64647265737300000000000000000000000000000000000000000000000000006020830152604082019050919050565b6000613c40601b83614907565b91507f536166654d6174683a206164646974696f6e206f766572666c6f7700000000006000830152602082019050919050565b6000613c80601e83614907565b91507f536166654d6174683a207375627472616374696f6e206f766572666c6f7700006000830152602082019050919050565b6000613cc0602683614907565b91507f416464726573733a20696e73756666696369656e742062616c616e636520666f60008301527f722063616c6c00000000000000000000000000000000000000000000000000006020830152604082019050919050565b6000613d26601a83614907565b91507f536166654d6174683a206469766973696f6e206279207a65726f0000000000006000830152602082019050919050565b6000613d66602c83614907565b91507f4d61737465724368656656323a2054686520757365722061646472657373206d60008301527f7573742062652076616c696400000000000000000000000000000000000000006020830152604082019050919050565b6000613dcc602e83614907565b91507f4d61737465724368656656323a204275726e2061646d696e206164647265737360008301527f206d7573742062652076616c69640000000000000000000000000000000000006020830152604082019050919050565b6000613e32604283614907565b91507f4d61737465724368656656323a205468652061646472657373206973206e6f7460008301527f20617661696c61626c6520746f206465706f73697420696e207468697320706f60208301527f6f6c0000000000000000000000000000000000000000000000000000000000006040830152606082019050919050565b6000613ebe602183614907565b91507f536166654d6174683a206d756c7469706c69636174696f6e206f766572666c6f60008301527f77000000000000000000000000000000000000000000000000000000000000006020830152604082019050919050565b6000613f24601683614907565b91507f77697468647261773a20496e73756666696369656e74000000000000000000006000830152602082019050919050565b6000613f64602083614907565b91507f4f776e61626c653a2063616c6c6572206973206e6f7420746865206f776e65726000830152602082019050919050565b6000613fa4602983614907565b91507f4f776e61626c653a2063616c6c6572206973206e6f742074686520626f6f737460008301527f20636f6e747261637400000000000000000000000000000000000000000000006020830152604082019050919050565b600061400a603083614907565b91507f4d61737465724368656656323a204f6e6c7920726567756c6172206661726d2060008301527f636f756c6420626520626f6f73746564000000000000000000000000000000006020830152604082019050919050565b6000614070603283614907565b91507f4d61737465724368656656323a20546865207768697465206c6973742061646460008301527f72657373206d7573742062652076616c696400000000000000000000000000006020830152604082019050919050565b60006140d6602e83614907565b91507f4d61737465724368656656323a20524f424f2072617465206d7573742062652060008301527f67726561746572207468616e20300000000000000000000000000000000000006020830152604082019050919050565b600061413c601d83614907565b91507f416464726573733a2063616c6c20746f206e6f6e2d636f6e74726163740000006000830152602082019050919050565b600061417c602583614907565b91507f4d61737465724368656656323a20546f74616c2072617465206d75737420626560008301527f20316531320000000000000000000000000000000000000000000000000000006020830152604082019050919050565b60006141e2601183614907565b91507f4e6f6e6520455243323020746f6b656e730000000000000000000000000000006000830152602082019050919050565b6000614222602a83614907565b91507f5361666545524332303a204552433230206f7065726174696f6e20646964206e60008301527f6f742073756363656564000000000000000000000000000000000000000000006020830152604082019050919050565b6000614288601f83614907565b91507f5265656e7472616e637947756172643a207265656e7472616e742063616c6c006000830152602082019050919050565b60006142c8604183614907565b91507f4d61737465724368656656323a204275726e2061646d696e206164647265737360008301527f206973207468652073616d6520776974682063757272656e742061646472657360208301527f73000000000000000000000000000000000000000000000000000000000000006040830152606082019050919050565b6000614354603683614907565b91507f4d61737465724368656656323a204e657720626f6f737420636f6e747261637460008301527f2061646472657373206d7573742062652076616c6964000000000000000000006020830152604082019050919050565b60a0820160008201516143c36000850182614415565b5060208201516143d66020850182614415565b5060408201516143e96040850182614415565b5060608201516143fc6060850182614415565b50608082015161440f6080850182613ad0565b50505050565b61441e81614968565b82525050565b61442d81614968565b82525050565b600061443f8284613aee565b915081905092915050565b600060208201905061445f6000830184613ac1565b92915050565b600060608201905061447a6000830186613ac1565b6144876020830185613ac1565b6144946040830184614424565b949350505050565b60006040820190506144b16000830185613ac1565b6144be6020830184614424565b9392505050565b60006020820190506144da6000830184613adf565b92915050565b60006020820190506144f56000830184613b1f565b92915050565b600060208201905081810360008301526145158184613b2e565b905092915050565b6000602082019050818103600083015261453681613b67565b9050919050565b6000602082019050818103600083015261455681613bcd565b9050919050565b6000602082019050818103600083015261457681613c33565b9050919050565b6000602082019050818103600083015261459681613c73565b9050919050565b600060208201905081810360008301526145b681613cb3565b9050919050565b600060208201905081810360008301526145d681613d19565b9050919050565b600060208201905081810360008301526145f681613d59565b9050919050565b6000602082019050818103600083015261461681613dbf565b9050919050565b6000602082019050818103600083015261463681613e25565b9050919050565b6000602082019050818103600083015261465681613eb1565b9050919050565b6000602082019050818103600083015261467681613f17565b9050919050565b6000602082019050818103600083015261469681613f57565b9050919050565b600060208201905081810360008301526146b681613f97565b9050919050565b600060208201905081810360008301526146d681613ffd565b9050919050565b600060208201905081810360008301526146f681614063565b9050919050565b60006020820190508181036000830152614716816140c9565b9050919050565b600060208201905081810360008301526147368161412f565b9050919050565b600060208201905081810360008301526147568161416f565b9050919050565b60006020820190508181036000830152614776816141d5565b9050919050565b6000602082019050818103600083015261479681614215565b9050919050565b600060208201905081810360008301526147b68161427b565b9050919050565b600060208201905081810360008301526147d6816142bb565b9050919050565b600060208201905081810360008301526147f681614347565b9050919050565b600060a08201905061481260008301846143ad565b92915050565b600060208201905061482d6000830184614424565b92915050565b60006040820190506148486000830185614424565b6148556020830184613adf565b9392505050565b60006060820190506148716000830186614424565b61487e6020830185614424565b61488b6040830184614424565b949350505050565b600060a0820190506148a86000830188614424565b6148b56020830187614424565b6148c26040830186614424565b6148cf6060830185614424565b6148dc6080830184613adf565b9695505050505050565b600081519050919050565b600081519050919050565b600081905092915050565b600082825260208201905092915050565b600061492382614948565b9050919050565b60008115159050919050565b600061494182614918565b9050919050565b600073ffffffffffffffffffffffffffffffffffffffff82169050919050565b6000819050919050565b600061497d82614984565b9050919050565b600061498f82614948565b9050919050565b60005b838110156149b4578082015181840152602081019050614999565b838111156149c3576000848401525b50505050565b6000601f19601f8301169050919050565b6149e381614918565b81146149ee57600080fd5b50565b6149fa8161492a565b8114614a0557600080fd5b50565b614a1181614936565b8114614a1c57600080fd5b50565b614a2881614968565b8114614a3357600080fd5b5056fea2646970667358221220898605e4f623c1a4e13a7da10a4da897ef87c1f4a3ecd8adc1b9bda524ef147864736f6c634300060c0033",
  "linkReferences": {},
  "deployedLinkReferences": {}
}